:020000040800F2
:100000006008002099010008DF240008211F000873
:10001000DD24000829050008BF27000800000000B3
:10002000000000000000000000000000E3240008C1
:100030000F08000800000000E12400082125000846
:10004000B3010008B3010008B3010008B3010008C0
:10005000B3010008B3010008B3010008B3010008B0
:10006000B3010008B3010008B3010008B3010008A0
:10007000B3010008B3010008B3010008B301000890
:10008000B3010008B3010008B3010008B301000880
:10009000B3010008B3010008B3010008B301000870
:1000A000B3010008B3010008B3010008B301000860
:1000B0007925000885250008B3010008B301000870
:1000C000B3010008B3010008B3010008B301000840
:1000D000B3010008B3010008B3010008B301000830
:1000E000B3010008B3010008B301000800F002F8F2
:1000F00000F042F80AA090E8000C82448344AAF180
:100100000107DA4501D100F037F8AFF2090EBAE87D
:100110000F0013F0010F18BFFB1A43F0010318473B
:10012000A4270000C4270000103A24BF78C878C173
:10013000FAD8520724BF30C830C144BF04680C60ED
:10014000704700000023002400250026103A28BF35
:1001500078C1FBD8520728BF30C148BF0B60704739
:10016000642900F0AB80732900F09781002070476C
:100170001FB51FBD10B510BD00F093F91146FFF774
:10018000F7FF02F02DFB00F0B1F903B4FFF7F2FF27
:1001900003BC00F0B9F9000009488047094800474E
:1001A000FEE7FEE7FEE7FEE7FEE7FEE7FEE7FEE727
:1001B000FEE7FEE704480549054A064B7047000084
:1001C00075250008ED00000860020020600800208E
:1001D00060040020600400200FB41CB5074B06AA81
:1001E0007B4469460090059800F02DF9002069468F
:1001F00000F03CF91CBC5DF814FB00008902000013
:100200002DE9F0410E460446002020622046E168B8
:10021000884730B3252805D0D4E901219047206ACA
:10022000401CF2E7E168204600278847050018D007
:10023000A5F14100192802D820354FF40067324655
:10024000294620462760FFF78BFF40B1012804D0E4
:10025000F61D26F007060836D8E7361DD6E72846ED
:10026000DAE7206ABDE8F08170B50C460546012A40
:1002700005D02878800600D5EA69002302E0012332
:1002800005E05B1C934202D2E05C0028F9D1A8692A
:10029000E618C01AA861286A184428622846AFF3F5
:1002A000008004E0D5E9012114F8010B9047B44225
:1002B000F8D32846AFF3008070BD00002DE9F0416F
:1002C0000646002410687529314616A510D0AFF3F4
:1002D0000080002802DA404213A507E031688A074F
:1002E00001D512A502E0490704D511A5012401E0BA
:1002F000AFF3008000210A2206F1240709E0B0FBD9
:10030000F2FCB0FBF2F302FB1C00303078541846CC
:10031000491C0028F3D123462A463046BDE8F04167
:1003200000F032B8000000002D0000002B0000009B
:10033000200000004FF0000200B513469446964698
:10034000203922BFA0E80C50A0E80C50B1F12001E8
:10035000BFF4F7AF090728BFA0E80C5048BF0CC096
:100360005DF804EB890028BF40F8042B08BF7047F4
:1003700048BF20F8022B11F0804F18BF00F8012B66
:1003800070477047704770472DE9F0470D46994612
:100390009246044600F124080168880604D5E06905
:1003A00021F01001216000E00120A84201DD471B7F
:1003B00000E00027A1697A1902EB0900081AA06180
:1003C0002078C00602D42046AFF30080002608E063
:1003D000D4E901211AF806009047206A401C761CD7
:1003E00020624E45F4DB2078C0060AD52046AFF3E4
:1003F000008006E0D4E9012130209047206A401CAB
:100400002062381EA7F10107F4DC07E0D4E90121DE
:1004100018F805009047206A401C2062281EA5F1AC
:100420000105F3DC2046AFF300802078000602D5FA
:100430000220BDE8F0870120FBE7000001694A1CAB
:1004400002610878704700B58FB0CDE90131002115
:10045000059105497944CDE9031011466846FFF737
:10046000CFFE0FB000BD0000E5FFFFFF0A6802F8F5
:10047000010B0A60704710B5436913B1AFF30080F8
:1004800001E0FFF7F1FE012010BD127800F1240118
:100490000A7000224A700122EDE711684FF0FF3226
:1004A000E9E7754600F02CF8AE460500694653466C
:1004B00020F00700854618B020B5FFF77BFEBDE8A9
:1004C00020404FF000064FF000074FF000084FF0BB
:1004D000000B21F00701AC46ACE8C009ACE8C0094C
:1004E000ACE8C009ACE8C0098D46704710B50446B9
:1004F000AFF300802046BDE81040FFF746BE000085
:10050000004870470002002001491820ABBEFEE7FA
:1005100026000200704700F00F01000900EB800088
:1005200001EB4000C0B27047FEE7017A002221F0E3
:100530000101017200F09AB8017A002241F0010134
:10054000017200F093B810B50022012100F08EF87E
:10055000BDE81040052000F01FBA017A002221F00A
:100560000201017200F082B810B5044602982160C1
:1005700022716371A0712820A0720620E0710C2006
:100580002072142060720820E072322000F004FA19
:1005900000223321204600F069F800223321204652
:1005A00000F064F8052000F0F7F90022322120461F
:1005B00000F05CF8052000F0EFF900222021204631
:1005C00000F054F8052000F0E7F9E1790022204618
:1005D00000F04CF8217A0022204600F047F8617ABA
:1005E0000022204600F042F8A17A0022204600F0C6
:1005F0003DF800220121204600F038F82046002274
:10060000BDE81040022100F031B830B44479002335
:100610008C4201D8641EE1B28479944201D8641EF0
:10062000E2B232B1012A06D0022A06D0032A06D04D
:1006300007E00B4605E0403102E0143100E05431A0
:10064000CBB230BC43F08001002200F00FB8012291
:1006500000F00CB870B50C46054603E02846641C53
:10066000FFF7F5FF21780029F8D170BD7CB506466B
:100670000807040EF07A01F0F00518B145F00805FE
:1006800044F00804012A01D02AB108E045F0010530
:1006900044F0010403E025F0010524F0010445F0D5
:1006A00004008DF80400012000F076F98DF8055063
:1006B00044F004008DF80600012000F06DF94FF4BD
:1006C0007A708DF8074000903179042301AA3068D0
:1006D00000F02EFB7CBD0000F0B4284801464278B3
:1006E00091F90210182A2FD00024382A37D04A2A2C
:1006F0002ED0682A24D129B30021817000291FD06F
:100700001F4B0A221D7DB5FBF2F102FB1156B5FB12
:10071000F2F51A4918310E704D70DD7CB5FBF2F61A
:1007200002FB1656B5FBF2F58E70CD709B7CB3FBC9
:10073000F2F502FB1535B3FBF2F20D714A71C4708C
:10074000F0BC70470121D8E70029F9D0012003E06F
:100750000029F5D04FF0FF30F0BC01F0D9BF0029DF
:10076000EED0C178491CC9B2C1700629E8D3C47063
:1007700000218170F0BC01F0B5BE00000000002037
:10078000680100200A21B0FBF1F201FB1202B0FB6C
:10079000F1F042EA0010C0B270473EB504464FF493
:1007A0007A720321C01D8DE8070001230022D021A9
:1007B000206800F053FBE079FFF7ADFE2075207A4A
:1007C000FFF7A9FEE074607AFFF7A5FEA0743EBDB6
:1007D00001607047FEB5044615460E461846FFF701
:1007E000D1FF20712846FFF7CDFF60713046FFF73B
:1007F000C9FFA0714FF47A720321201D8DE8070014
:1008000001230022D021206800F050FCFEBD70477B
:100810007FB5504C4FF47A75204694F90210007958
:1008200019B101293BD1D8B34CE0012813D14A4872
:10083000FFF793FE4848FFF778FE4748FFF783FE2F
:10084000002211464448FFF7E0FE44A14248FFF76A
:1008500001FF0020207100F0A1F920616169401AB8
:10086000A8421CD301F092FD3B481C38FFF795FFCE
:10087000012202213848FFF7C8FE374839A15C3011
:1008800000F10A0300F1140200905038FFF7A4FCB5
:10089000314931480C31FFF7DDFE206960617FBDD1
:1008A000FFE72D48FFF74FFE002211462A48FFF7C9
:1008B000ACFE30A12848FFF7CDFE2748FFF73CFEED
:1008C0000120207100F06AF920616169401AA84294
:1008D00020D3012202212048FFF797FE1D4818303F
:1008E00090F9031090F9005090F9013090F902202E
:1008F0008DE82E0090F9043090F90520164821A1CA
:100900000C30FFF769FC144913480C31FFF7A2FEC5
:1009100020696061E0780628C1D2DFE800F00306B4
:10092000090C0F1201220D210DE001220C210AE019
:100930000122082107E00122072104E0012203210E
:1009400001E00122022104B00348BDE87040FFF736
:100950005CBE0000000000208401002054494D4589
:100960003A0000002573203A202573203A20257391
:100970000000000054494D452053455454494E470A
:100980003A00000025642564203A2025642564206F
:100990003A2025642564000070B5044600F0FEF896
:1009A0000546601C02D004480078044400F0F6F8C4
:1009B000401BA042FAD370BD200000202DE9F84F63
:1009C000DFF8B891002409F1040A0AF1040B234668
:1009D0000F270BF1040EC9E00125A5402A40AA42C9
:1009E0007DD1674ED1F804C0ACEB0608B44532D0D7
:1009F00014DCBCF1030F3AD009DCBCF1000F2AD0A3
:100A0000BCF1010F1CD0BCF1020F31D11DE0BCF1D3
:100A1000110F17D0BCF1120F2AD119E0B8F5881FB9
:100A200019D006DCB8F5803F15D0B8F5801F1FD16E
:100A300011E0B8F5001F0ED0B8F5041F18D10AE078
:100A4000CB6815E0CB681B1D12E0CB6808330FE0C4
:100A5000CB680C330CE08B682BB1012B4FF00803F3
:100A600003D0456104E0042302E0056100E00023B7
:100A7000FF2A01D8064601E000F104064FEA84058A
:100A800001D9A5F12005D6F8008007FA05FC28EA6F
:100A90000C0803FA05F548EA0508C6F800804D6819
:100AA000ED0062D5374DAE6946F00106AE61AD6925
:100AB00024F0030605F001050095334D06EB050C07
:100AC000DCF80850A607360F07FA06F825EA0805ED
:100AD000DFF8B880404503D14FF0000817E044E04C
:100AE000DFF8AC80404502D14FF001080FE0DFF89D
:100AF000A480404502D14FF0020808E0DFF898805A
:100B0000404502D14FF0030801E04FF0040808FA15
:100B100006F848EA0508CCF808804D68D9F8006066
:100B2000ED034D4601D5164300E096432E604D6817
:100B3000DAF80060AD03554601D5164300E0964350
:100B40002E604D68DBF80060ED025D4601D516436E
:100B500000E096432E604D68DEF80060AD027546F9
:100B600001D5164300E096432E60641C0D682A46AA
:100B7000E5407FF431AFBDE8F88F0000000401408C
:100B80000000111000100240000001400008014068
:100B9000000C014000100140001401400148806831
:100BA000704700002000002070B5040025D094F8A4
:100BB0003D00002520B984F83C50204600F00EFB93
:100BC000242084F83D002068016821F001010160C3
:100BD0002068016841F4004101602068016821F447
:100BE0000041016000F074FC4D4A6168914201D8F7
:100BF0004C4900E04C49884201D2012070BD4B496C
:100C00002368B0FBF1F15E6826F03F060E435E609C
:100C10006368934206D94FF4967359434FF47A733D
:100C2000B1FBF3F12368491C1E6A26F03F063143ED
:100C300019626168914210D84900401EB0FBF1F280
:100C4000521CC2F30B02042A01D2042022E0B0FBA2
:100C5000F1F0401CC0F30B001CE0A268F2B301EB02
:100C6000C10303EB0116431EB3FBF6F35B1C43F415
:100C700080431B0549D092B301EBC10202EB011185
:100C8000401EB0FBF1F0401CC0F30B0040F480406C
:100C900040F400402168CA694CF6FF739A43104340
:100CA000C861D4E9071001432068026822F0C0023D
:100CB00011430160D4E9030101432068826848F2CE
:100CC000FF339A4311438160D4E905010843216849
:100CD000CA6822F0FF021043C86001E00EE016E08F
:100CE0002068016841F0010101602564202084F83A
:100CF0003D00256384F83E50002070BD01EB4106A5
:100D0000431EB3FBF6F35B1CB3E70120C2E701EB24
:100D10004101401EB0FBF1F0401CC0F30B00B7E7EF
:100D2000A086010080841E0000093D0040420F00A3
:100D30002DE9F84F1F4690468A460446DDF8289074
:100D4000FFF72CFF054694F83D0020287FD119239A
:100D5000012240492046009501F040FA002876D152
:100D600094F83C00012872D0012084F83C002068EF
:100D70000168C90703D1016841F0010101602068E1
:100D8000016821F400610160212084F83D001020F9
:100D900084F83E0000262664C4F824806785608DB0
:100DA00020852D48E0622B464A465146204601F0F8
:100DB000CFF890B9206841698069009036E02A46F2
:100DC0004946204601F0BCFA50B1206C042804D1F9
:100DD0002068016841F4007101600120BDE8F88FCE
:100DE000606A216800780861606A401C6062618DF9
:100DF000491E6185218D491E89B22185226853696A
:100E0000DB435B070BD451B100781061606A401C72
:100E10006062608D401E6085208D401E20852A46C0
:100E20004946204601F0B4F90028CED1208D002893
:100E3000C5D154F83D0B016841F4007101602020D8
:100E400004F81E09E67766770020C7E7FFE702206F
:100E5000C4E70000020010000000FFFF2DE9FF4F73
:100E600083B00025DDE910799A4693460446DDF803
:100E700048800095FFF792FE064694F83D00202832
:100E80007CD11923012285492046009601F0A6F95C
:100E90000028F5D194F83C0001286FD0012084F897
:100EA0003C0020680168C90703D1016841F00101D5
:100EB00001602068016821F400610160222084F84B
:100EC0003D00402084F83E0025646762A4F82A9023
:100ED000608D20857248E062CDE9008653465A460F
:100EE0002046049901F082F800287DD1208DDFF89A
:100EF000B491202768B1012814D002282068016825
:100F00001ED041F4806101602068416980690090D1
:100F1000B6E02068416981690091016841F400717F
:100F20000160ADE02068016821F48061016072B663
:100F30002068416981690091016841F400710AE00B
:100F400041F40061016072B62068416981690091D5
:100F5000016821F48061016062B691E0032868D8DD
:100F600001280CD0022843464FF000024946204693
:100F700000960FD001F032F9B0BB10E08BE03246A2
:100F80004146204601F0A9F970BB20680069616AFA
:100F900008706CE001F022F930BB72B634E02068D2
:100FA000016821F48061016072B620680069616A9D
:100FB0000870606A401C6062208D401E2085608D34
:100FC000401E6085384846F2A8110068B0FBF1F079
:100FD000C0EBC00000EB80000090401E009008D0E5
:100FE00020684069C04300E029E040070CD5009824
:100FF000F3E744F8305F6773A573206940F0200081
:10100000206162B625731AE02068016841F400711E
:10101000016020680069616A0870606A401C606253
:10102000218D491E2185618D491E618562B6216829
:101030001BE032464146204601F04FF918B101202D
:1010400007B0BDE8F08F20680069616A0870606AC7
:10105000401C6062218D491E2185618D491E61857C
:1010600021684A69D24352070AD409690170606A4B
:10107000401C6062208D401E2085608D401E608572
:10108000208D00287FF46AAF84F83D7084F83E50CC
:1010900084F83C50D4E70220D2E7000002001000A0
:1010A0000000FFFF040001002C0000202DE9FF4F8D
:1010B00083B09A46DDE9119793460446DDF84080F7
:1010C000FFF76CFD054694F83D0020287FD11923D9
:1010D000012240492046009501F080F8002876D191
:1010E00094F83C00012872D0012084F83C0020686C
:1010F0000168C90703D1016841F00101016020685E
:10110000016821F400610160212084F83D00402045
:1011100084F83E0000262664C4F82480A4F82A90AF
:10112000608D20852C48E062CDE9007553465A4613
:101130002046049900F0D8FF70B930E02A463946BD
:10114000204601F0FDF858B1206C042804D1206835
:10115000016841F400710160012007B0BDE8F08F23
:10116000606A216800780861606A401C6062218DB5
:10117000491E89B22185628D521E6285226853699B
:10118000DB435B070BD469B100781061606A401CD7
:101190006062208D401E2085608D401E6085208D00
:1011A0000028CBD12A463946204600F0F1FF00281E
:1011B000CAD154F83D0B016841F400710160202050
:1011C00004F81E09E67766770020C6E7FFE70220ED
:1011D000C3E70000020010000000FFFF30B585B03B
:1011E000002100910191029103911E4D03681E4C54
:1011F000122103221D48AB4216D1A36943F0080314
:10120000A361A369039203F008030493C023CDE90B
:1012100000316946FFF7D2FBE06940F40010E0615D
:10122000E06900F4001019E0114DAB4217D1A36939
:1012300043F00803A361A369039203F00803049336
:101240004FF44063CDE900316946FFF7B7FBE06931
:1012500040F48000E061E06900F48000049005B093
:1012600030BD00000054004000100240000C01405E
:10127000005800400248816802781144816070473C
:1012800020000020074810B5016841F010010160FE
:10129000032000F075F8012000F006F800F024F8B3
:1012A000002010BD0020024070B50D4D04464FF4E3
:1012B0007A712878B1FBF0F00A490968B1FBF0F0C7
:1012C00000F0DCFA48B9102C07D200222146501E4B
:1012D00000F036F800206C6070BD012070BD000089
:1012E000200000202C0000200C4808B5816941F046
:1012F00001018161816901F001010091C16941F041
:101300008051C161C06900F080500090044841687C
:1013100021F0E06141F00071416008BD0010024021
:1013200000000140002809DB00F01F02012191406C
:101330004009800000F1E020C0F800117047000073
:10134000F0B40E4B1B680C46C3F30223C3F1070530
:10135000042D00D90425191D072901D2002300E01E
:10136000DB1E012606FA05F1491E214099409E40E8
:10137000761E16403143F0BC01F022BA0CED00E0BD
:10138000064900F0070208684FF6FF03184040EADC
:101390000220034A10430860704700000CED00E093
:1013A0000000FA052DE9F0470F46050061D0434ED5
:1013B000306800F00700B84209D2306820F007001A
:1013C00038433060306800F00700B84251D12868D7
:1013D0003B4C810712D5400703D5606840F4E060BC
:1013E00060602878000703D5606840F46050606052
:1013F0006068A96820F0F000084360602878C007A2
:1014000028D06868012810D02168022810D08907E8
:1014100000292EDA616821F0030101436160FFF7C2
:10142000BDFB804641F288390DE021688903EFE772
:101430008901EDE7FFF7B2FBA0EB0801494502D9AE
:101440000320BDE8F0876068696800F00C00B0EB2D
:10145000810FEFD1306800F00700B8420BD9306837
:1014600020F0070038433060306800F00700B842D1
:1014700001D00120E5E72878400705D56068E968D4
:1014800020F4E060084360602878000706D56068B3
:10149000296920F4605040EAC100606000F028F83B
:1014A0006168084AC1F30311515CC84006490860ED
:1014B00006480068FFF7F8FE0020C2E7002002405F
:1014C00000100240AC2800082C000020240000205E
:1014D0000448054900684968044AC1F30221515C87
:1014E000C84070472C00002000100240BC280008B3
:1014F00012A185B00FC98DE80F0014A0144A00682E
:1015000004905168134801F00C03042B10D0082BF1
:101510000ED1C1F38343C9031DF803000AD55168F6
:1015200004AAC1F34041515C0A4A5043B0FBF1F0B8
:1015300005B0704708494843FAE700000203040574
:10154000060708090A0B0C0D0E0F1010010200000F
:101550000010024000127A0000093D002DE9F84F0A
:10156000040070D02078C04DC00749D06868C0F32F
:101570008100012807D06868C0F38100022809D1E2
:101580006868C00306D52868800339D560680028DC
:10159000E7D035E06068B0F5803F0BD010B1B0F512
:1015A000A02F11D0286820F480302860286820F40B
:1015B000802002E0286840F480302860606890B1A4
:1015C000FFF7ECFA06460AE0286840F4802028601D
:1015D000F0E700BFFFF7E2FA801B642873D82868A1
:1015E0008003F7D50CE0FFF7D9FA064605E000BF07
:1015F000FFF7D4FA801B6428F0D828688003F7D45A
:1016000020789A4E80074FF001094FF0000839D535
:10161000686810F00C0F07D06868C0F381000228DA
:1016200009D16868C00306D42868800714D52069EA
:10163000012808D110E02069B0B1C6F80090FFF78A
:10164000ADFA074605E00AE1FFF7A8FAC01B022839
:10165000C4D828688007F7D52868616920F0F800A9
:1016600040EAC10028600DE0C6F80080FFF796FA56
:10167000074604E0FFF792FAC01B022823D8286827
:101680008007F7D4207800072CD57948A169D9B113
:10169000C0F80090FFF782FA074604E0FFF77EFAF1
:1016A000C01B02280FD8686A8007F7D571484FF42D
:1016B000FA510068B0FBF1F0009000BF0098411EA5
:1016C0000091FAD20EE080E0C0F80080FFF766FAE1
:1016D000074604E0FFF762FAC01B022875D8686A63
:1016E0008007F7D42078400760D5E8690027C0005C
:1016F00008D4E86940F08050E861E869012700F00B
:10170000805000905C480168C90513D40168834685
:1017100041F480710160FFF741FA824606E000BFA4
:10172000FFF73CFAA0EB0A0064284ED8DBF8000073
:10173000C005F5D5E06801280AD008B1052813D006
:10174000286A20F001002862286A20F0040002E0E4
:10175000286A40F001002862E06841F2883B98B1B5
:10176000FFF71CFA82460BE0286A40F0040028626A
:10177000EEE700BFFFF712FAA0EB0A0159455AD86D
:10178000286A8007F6D50CE0FFF708FA824605E0E4
:10179000FFF704FAA0EB0A0159454CD8286A8007E4
:1017A000F6D41FB1E86920F08050E861E06988B3A1
:1017B0006968C1F38101022944D00228C6F860801B
:1017C00004D0FFF7EBF9044638E034E0FFF7E6F920
:1017D000074604E0FFF7E2F9C01B02282BD828686F
:1017E0008001F7D4206AB0F5803F05D16868A16810
:1017F00020F4003008436860D4E9080108436968B0
:1018000021F4741108436860C6F86090FFF7C6F9C8
:10181000044606E025E000BFFFF7C0F9001B0228E0
:1018200009D828688001F7D51BE000BFFFF7B6F99B
:10183000001B022802D90320BDE8F88F2868800128
:10184000F4D40EE00128F7D06868226A00F48031F1
:10185000914204D1616A00F47010884201D00120E5
:10186000EAE70020E8E700000010024000004242E2
:10187000800442422C0000200070004010B5401E41
:10188000B0F1807F01D3012010BD4FF0E0246061F2
:101890000F21601700F094FF0020A0610720206155
:1018A000002010BD7047704770B590F83C20012AA9
:1018B00026D0012480F83C40022280F83D200368B5
:1018C0005A689D6822F070060A6832435A600D4BD0
:1018D00002689A4208D0B2F1804F05D00A4B9A4272
:1018E00002D00A4B9A4204D1496825F0800319437B
:1018F000916080F83D40002180F83C10084670BDA2
:10190000022070BD002C014000040040000800408F
:1019100010B5040003D094F83D0010B107E0012099
:1019200010BD002084F83C00204600F01FF8022083
:1019300084F83D00211D206800F02AFE012084F873
:10194000460084F83E0084F83F0084F8400084F8A4
:10195000410084F8420084F8430084F8440084F88D
:10196000450084F83D00002010BD000000B585B0A2
:101970000021009101910291039101681B48B1F18E
:10198000804F15D01A4A914210D1C16941F002012D
:10199000C161C069002200F00200049011461D20C0
:1019A000FFF7CEFC5FF01D00FFF7BCFC05B000BDEB
:1019B000C16941F00101C161C16901F001010491F6
:1019C000816941F0040181618069694600F0040089
:1019D0000490012000900748FEF7F0FF0022114616
:1019E0001C20FFF7ADFC1C20DEE7000000100240C9
:1019F000000400400008014070B5044690F83C0027
:101A0000012817D0012584F83C50022084F83D00BD
:101A10002068826822F0770222F47F4282600868A0
:101A2000502830D00DDC20284DD005DC98B310288C
:101A30003BD148E0022070BD302844D0402834D14A
:101A400039E0602828D0702806D0B0F5805F2CD00F
:101A5000B0F5005F29D10AE0CB68D1E90121206807
:101A600000F0D9FD2068816841F0770109E0CB687A
:101A7000D1E90121206800F0CEFD2068816841F4A1
:101A80008041816011E0CA684968206800F0D5FD96
:101A90005021206807E016E0CA684968206800F015
:101AA00009FE6021206800F0C0FD84F83D50002050
:101AB00084F83C0070BDCA684968206800F0BDFD2C
:101AC00040212068EFE7226801461046EBE700005E
:101AD00010B50021174800F00DFA17490881CA888F
:101AE000821A92B24A81C880A2F17900132803D2E7
:101AF0000020C860087010BD0F2A0BD908784FF07D
:101B00000102C0F11F0302FA03F2CB6842EA0302AA
:101B1000CA6001E003D2087800F10100087008787B
:101B20002028E8D18889000A4870BDE81040FEF7F7
:101B3000D3BD0000D8000020000000202DE9F041B6
:101B4000054690F83C000C46012836D0012085F867
:101B50003C008AB3042A42D02868082A51D0D4E92C
:101B60000023E168066A26F480560662C669076AA1
:101B700026F4407646EA03234FF6FF7606EA013163
:101B800023F4704319434FF4005627F4005306EA38
:101B900002321A43C16102622868C16921F44061BE
:101BA000C1612868C169A26841EA0221C1610020BF
:101BB00085F83C00BDE8F08101E00220FAE7D4E9B5
:101BC0000012E368286800F049FD2868816921F067
:101BD0000C01816128688169A26811430FE0D4E992
:101BE0000012E368286800F077FD2868816921F415
:101BF0004061816128688169A26841EA02218161AE
:101C0000D5E7D4E90027267B016A21F480710162BF
:101C1000C169036A21F00301394321F0F00731075C
:101C20004FF4007647EA116123F4007306EA0222BA
:101C30001A43C16102622868C16921F00C01C161C7
:101C40002868C169A2681143B0E710B5040003D049
:101C500094F83D0010B107E0012010BD002084F889
:101C60003C00204600F01EF8022084F83D00211DB3
:101C7000206800F08DFC012084F8460084F83E00C6
:101C800084F83F0084F8400084F8410084F8420062
:101C900084F8430084F8440084F8450084F83D004B
:101CA000002010BD7047000010B5044651B1042952
:101CB0000DD0082910D094F8410094F8452001284F
:101CC00011D10EE094F83E0094F84220F7E794F822
:101CD0003F0094F84320F2E794F8400094F8442041
:101CE000EDE7012A01D0012010BD022051B10429E5
:101CF00011D0082918D084F8410084F845000C2937
:101D00001BD136E084F83E0084F842002068C268A7
:101D100042F0020210E084F83F0084F8430020689B
:101D2000C26842F0040207E084F8400084F84400EE
:101D30002068C26842F00802C2600122206800F0F8
:101D40005DFC0E492068884208D0B0F1804F05D074
:101D50000B49884202D00B49884204D1816801F0C6
:101D60000701062903D0016841F00101016000204C
:101D700010BD2068C26842F01002DDE7002C01406F
:101D8000000400400008004070B504460068016986
:101D90004FF00005C943890715D4C168C9438907B5
:101DA00011D4E91E01610120207720688069800735
:101DB000204602D0FFF78CFE04E000F098F82046A1
:101DC00000F096F8257720680169C943490717D4C0
:101DD000C168C943490713D46FF0040101610220AF
:101DE00020772068806910F4407F204602D0FFF7FA
:101DF0006FFE04E000F07BF8204600F079F82577CC
:101E000020680169C943090716D4C168C943090795
:101E100012D46FF008010161042020772068C069A6
:101E20008007204602D0FFF753FE04E000F05FF881
:101E3000204600F05DF8257720680169C943C9068E
:101E400017D4C168C943C90613D46FF010010161EA
:101E5000082020772068C06910F4407F204602D017
:101E6000FFF736FE04E000F042F8204600F040F8AC
:101E7000257720680169C943C90708D1C168C943EA
:101E8000C90704D1891E0161204600F032F820689C
:101E90000169C943090609D4C168C943090605D4C3
:101EA0006FF0800101612046FFF7FCFC20680169AA
:101EB000C943490609D4C168C943490605D46FF02E
:101EC00040010161204600F02AF820680169C943F9
:101ED00089060BD4C168C943890607D46FF0200175
:101EE00001612046BDE87040FFF7DDBC70BD704762
:101EF000704770470246002041B1042909D00829E3
:101F00000AD00C2901D11068006C70471068406B32
:101F100070471068806B70471068C06B70477047DF
:101F2000FEE701684A69D24352050FD46FF480621C
:101F30004A61002140F8301F2022427381730269F8
:101F400042F00402026101730120704700207047D3
:101F5000F8B50446C06A1E460D461746082807D045
:101F6000012805D010F5803F02D0206B122804D143
:101F70002068016841F480710160134600224FF02F
:101F800001112046009600F029F940B12068006850
:101F9000C00502D54FF4007020640320F8BD20690D
:101FA000B0F5804F0ED00620216800EAD51040F031
:101FB000F000086133463A460B49204600F042F9EA
:101FC00078B902E005F0FE0000E0E8B2216808619F
:101FD000054933463A46891F204600F033F9002868
:101FE000DCD00120F8BD0000080001002DE9F84F09
:101FF0000446006889460B9D01689846174641F4DF
:10200000806101602068016841F480710160009581
:102010004FF0011B0022594620460A9B00F0DEF8D3
:102020004FF4007A40B120680068C00501D5C4F8BB
:1020300040A00320BDE8F88F216809F0FE00086188
:102040002B46284920460A9A00F0FCF8F0BB20688D
:102050004169806900902A4620460A9900F070F98B
:1020600040B1206C04283AD12068016841F4007125
:10207000016034E0FEB2B8F1010F09D02168380ADE
:1020800008612A4620460A9900F05AF90028E8D14A
:10209000206806612A4620460A9900F051F9002876
:1020A000DFD12068016841F4807101600095002251
:1020B000594620460A9B00F091F80028B3D12168C8
:1020C00009F0FF0040F00100086100E007E02B4646
:1020D000044920460A9A00F0B5F80028AAD0012049
:1020E000A8E70000020001002DE9F843044600685B
:1020F0000D46DDE9089701689846164641F480715F
:1021000001604B4600224FF001112046009700F07D
:1021100065F848B120680068C00502D54FF400702A
:1021200020640320BDE8F883216805F0FE00086103
:102130003B464A461549204600F084F888B9206895
:102140004169806900903A464946204600F0F8F817
:1021500048B1206C042804D12068016841F4007162
:1021600001600120DEE7F5B2B8F1010F09D0216866
:10217000300A08613A464946204600F0E1F8002856
:10218000E7D1206805610020CCE7000002000100D3
:1021900070B516460D4604460DE02046FFF7C1FE19
:1021A00008B1012070BD681C05D0FEF7F7FC801B4C
:1021B000A84207D835B120684069C0434007ECD435
:1021C000002070BD002044F8300F20216173A073FF
:1021D000216941F0200121612073E2E72DE9F047F8
:1021E0001E4690460D460446C1F30747DDF8209091
:1021F00008E0701C06D0FEF7D1FCA0EB0900B0424D
:102200000FD876B12068012F18D0806925EA000028
:102210000004000C14D000214145EAD00020BDE8A4
:10222000F087002044F8300F20216173A0732169EA
:1022300041F02001216120730120F0E74069E5E7CA
:102240000121E9E72DE9F0479A4691460E460446FA
:1022500000254FF02008C1F3074725E020684069BA
:10226000C043400514D42068016841F40071016046
:1022700021686FF480604861256384F83D8084F8AC
:102280003E50206C40F00400206484F83C501FE075
:10229000B9F1FF3F08D0FEF781FCA0EB0A014945E8
:1022A0000CD8B9F1000F09D02068012F13D0806934
:1022B00026EA00000004000C0BD0CFE744F8305FA2
:1022C00084F80D80A573206940F0200020612573FB
:1022D0000120BDE8F0874069EAE72DE9F0410025DB
:1022E00090460E460446202717E04069C043C006CA
:1022F0000CD454F8301B6FF01000486144F81059AA
:102300006777A577206A2062257717E0FEF746FCFD
:10231000A0EB0800B04208D83EB120684169C9432B
:102320004906E2D40020BDE8F08144F8305F6773CD
:10233000A573206940F02000206125730120F2E799
:1023400070B516460D4604460DE02046FFF7E9FD40
:1023500008B1012070BD681C05D0FEF71FFC801B72
:10236000A84207D835B120684069C0430006ECD4C4
:10237000002070BD002044F8300F20216173A0734D
:10238000216941F0200121612073E2E710B5104C72
:10239000227D0A2A01D20FA100E00FA10C4878305B
:1023A000FDF71AFF0A48E27C82300A2A01D209A10D
:1023B00000E009A1FDF710FF0548A27C8C300A2A35
:1023C00001D204A100E004A1BDE81040FDF704BF64
:1023D00068010020302564002564000010B58AB033
:1023E00000242348049405940694079408940994BF
:1023F0000094019402944FF080410394016040F2F4
:102400001F31C0E901144FF6FF71C0E90314846164
:10241000FFF77EFA08B172B6FEE74FF480500490E1
:1024200004A91348FFF7E8FA08B172B6FEE71048AE
:10243000FFF70BFC08B172B6FEE7089408A90C4838
:102440000994FFF731FA08B172B6FEE70220009056
:102450000120CDE901040022694605480394FFF7F5
:102460006DFB002801D072B6FEE70AB010BD000077
:10247000D800002010B586B00024174800940194BD
:1024800002940394049413490594016040F21F31AF
:10249000C0E901144FF47A71C0E903148461FFF7B5
:1024A00037FA08B172B6FEE74FF4805000906946E3
:1024B0000948FFF7A1FA08B172B6FEE7049404A92F
:1024C00005480594FFF7F0F9002801D072B6FEE741
:1024D00006B010BD0004004020010020FEE7FEE72A
:1024E000704770470C484278017802EB820201EB9A
:1024F0004201CBB2C278817802EB820201EB420149
:10250000CAB20179407900EB800001EB4000C1B212
:102510000248FEF75FB900001800002068010020A3
:10252000FEF7A8BE10B590B028216846FDF702FF5F
:1025300014210AA8FDF7FEFE02200090012004905D
:1025400010200024059007946846FFF707F808B1AB
:1025500072B6FEE70F20CDE90A040C940D94002119
:102560000AA80E94FEF71EFF002801D072B6FEE7FF
:1025700010B010BD704700000148FFF705BC000017
:10258000D80000200148FFF7FFBB00002001002019
:10259000F0B50268164B174C174D4FF08047984224
:1025A00005D0B84203D0A04201D0A84203D122F006
:1025B00070064A683243984205D0B84203D0A04220
:1025C00001D0A84203D122F44074CA6822434C6966
:1025D00022F08002224302608A68C2620A68826234
:1025E000984201D10969016301214161F0BD0000F8
:1025F000002C0140000400400008004010B501F02C
:102600001F030121046A99408C430462016A9A40C5
:102610001143016210BD10B5846842EA032224F41C
:102620007F440A432243826010BD826822F0700218
:102630000A4342F007018160704710B5036A046ADB
:1026400024F001040462846924F0F00444EA0214D2
:1026500023F00A020A438461026210BD70B5046A65
:1026600024F0010404628469056A0F4EB04208D068
:10267000B0F1804F05D00D4EB04202D00C4EB042AA
:1026800003D124F00304144301E044F001041A07C9
:1026900024F0F00444EA126225F00A0301F00A0172
:1026A00019438261016270BD002C014000040040AA
:1026B0000008004010B5036A23F010030362836929
:1026C000046A23F4704343EA023224F0A00343EA8D
:1026D00001118261016210BD30B5046A24F010045A
:1026E00004628469056A24F4407444EA022222F4F4
:1026F00070444FF6FF7202EA03322243A02425F011
:10270000A00304EA011119438261016230BD000097
:10271000264910B501F11803CA7893F90410062A66
:102720000DD2DFE802F0030D17212B3419780922AE
:10273000084440B21870002100F03AF8187010BD3B
:1027400059780522084440B25870002100F030F852
:10275000587010BD99780922084440B29870002141
:1027600000F026F8987010BDD9780522084440B2D0
:10277000D870002100F01CF8D87010BD084440B299
:1027800018710922002100F013F8187110BD5A7950
:102790000429104440B2587101DC022200E00122F9
:1027A000002100F005F8587110BD00000000002065
:1027B000904200DD0846884200DA10467047FEE786
:1027C0000907090E002804DB00F1E02080F800145E
:1027D000704700F00F0000F1E02080F8141D7047F2
:1027E00008B5FEF74FFDFFF79DFE2A48816941F0CD
:1027F00004018161816901F004010091816941F066
:10280000080181618069244900F008000090234894
:10281000234D00240160C0E901540E14C0E90346B1
:1028200044618461C4610462FEF7BEF908B172B606
:10283000FEE7FFF7D3FD19481A4954300160C0E99B
:102840000154C0E9034644618461C4610462FEF737
:10285000ABF908B172B6FEE7FFF70CFE0F48002196
:10286000A830FFF721FA0D4901F59C70FDF7B0FF84
:102870000A4902205431009010237F2201F5807014
:10288000FDF772FE0848FDF75EFE00BFFDF7C0FFD2
:10289000FCE700000010024000540040300000201F
:1028A000A0860100005800408401002000000000C4
:1028B00000000000010203040607080900000000F0
:1028C00001020304E428000800000020300000009A
:1028D00028010008142900083000002030080000FA
:1028E000440100080000000001000000000000009A
:1028F00000000000000000000000000000000000D8
:1029000000000000010000001000000000000000B6
:042910000024F400AB
:04000005080000ED02
:00000001FF
