:020000040800F2
:1000000050070020910100081F130008A3120008E8
:100010001D1300088F040008B5160008000000003A
:100020000000000000000000000000005D16000855
:100030009104000800000000211300085F1600086A
:10004000AB010008AB010008AB010008AB010008E0
:10005000AB010008AB010008AB010008AB010008D0
:10006000AB010008AB010008AB010008AB010008C0
:10007000AB010008AB010008AB010008AB010008B0
:10008000AB010008AB010008AB010008AB010008A0
:10009000AB010008AB010008AB010008AB01000890
:1000A000AB010008AB010008AB010008AB01000880
:1000B000AB010008AB010008AB010008AB01000870
:1000C000AB010008AB010008AB01000825130008D4
:1000D00031130008AB010008AB010008AB010008B8
:1000E000AB010008AB010008AB01000800F002F80A
:1000F00000F03FF80AA090E8000C82448344AAF183
:100100000107DA4501D100F034F8AFF2090EBAE880
:100110000F0013F0010F18BFFB1A43F0010318473B
:100120004C1600006C160000103A24BF78C878C145
:10013000FAD8520724BF30C830C144BF04680C60ED
:10014000704700000023002400250026103A28BF35
:1001500078C1FBD8520728BF30C148BF0B60704739
:10016000642900F07D80002070471FB51FBD10B5C9
:1001700010BD00F052F91146FFF7F7FF01F0ACFA9D
:1001800000F070F903B4FFF7F2FF03BC00F078F958
:100190000948804709480047FEE7FEE7FEE7FEE71B
:1001A000FEE7FEE7FEE7FEE7FEE7FEE70448054957
:1001B000054A064B70470000B3160008ED00000822
:1001C0005001002050070020500300205003002061
:1001D0000FB41CB5074B06AA7B44694600900598EE
:1001E00000F003F90020694600F012F91CBC5DF82C
:1001F00014FB0000350200002DE9F0410E460446D4
:10020000002020622046E168884730B3252805D0C9
:10021000D4E901219047206A401CF2E7E1682046BA
:1002200000278847050018D0A5F14100192802D8F9
:1002300020354FF400673246294620462760FFF7F5
:100240008FFF40B1012804D0F61D26F007060836BE
:10025000D8E7361DD6E72846DAE7206ABDE8F08100
:100260002DE9F0410646002410687529314616A58F
:1002700010D0AFF30080002802DA404213A507E057
:1002800031688A0701D512A502E0490704D511A5F6
:10029000012401E0AFF3008000210A2206F12407C7
:1002A00009E0B0FBF2FCB0FBF2F302FB1C003030C3
:1002B00078541846491C0028F3D123462A46304674
:1002C000BDE8F04100F032B8000000002D00000051
:1002D0002B000000200000004FF0000200B5134684
:1002E00094469646203922BFA0E80C50A0E80C5056
:1002F000B1F12001BFF4F7AF090728BFA0E80C5007
:1003000048BF0CC05DF804EB890028BF40F8042BFF
:1003100008BF704748BF20F8022B11F0804F18BF6C
:1003200000F8012B70477047704770472DE9F04780
:100330000D4699469246044600F124080168880655
:1003400004D5E06921F01001216000E00120A842FD
:1003500001DD471B00E00027A1697A1902EB0900C3
:10036000081AA0612078C00602D42046AFF30080AE
:10037000002608E0D4E901211AF806009047206A17
:10038000401C761C20624E45F4DB2078C0060AD55E
:100390002046AFF3008006E0D4E9012130209047E9
:1003A000206A401C2062381EA7F10107F4DC07E038
:1003B000D4E9012118F805009047206A401C20620A
:1003C000281EA5F10105F3DC2046AFF3008020785C
:1003D000000602D50220BDE8F0870120FBE70000FF
:1003E00001694A1C02610878704700B58FB0CDE9F9
:1003F00001310021059105497944CDE903101146E9
:100400006846FFF7F9FE0FB000BD0000E5FFFFFFF3
:100410000A6802F8010B0A607047754600F02CF874
:10042000AE4605006946534620F00700854618B0E1
:1004300020B5FFF7BBFEBDE820404FF000064FF0AF
:1004400000074FF000084FF0000B21F00701AC4609
:10045000ACE8C009ACE8C009ACE8C009ACE8C00928
:100460008D46704710B50446AFF300802046BDE8C6
:100470001040FFF787BE000000487047EC000020E6
:1004800001491820ABBEFEE7260002007047FEE7D8
:100490007047000010B590F821100024022903D005
:1004A0000421816301243DE001680A6822F00E0204
:1004B0000A6001680A6822F001020A601A4A0168AB
:1004C000914201D1012121E0174A1432914201D118
:1004D00010211BE0144A2832914201D1891515E000
:1004E000114A3C32914201D189140FE00E4A503238
:1004F000914202D14FF4803108E00B4A64329142BC
:1005000002D14FF4801101E04FF08071064A083AA1
:100510005160012180F82110002180F82010416BEA
:1005200001B18847204610BD0800024070B504465E
:1005300000F0FEF80546601C02D004480078044430
:1005400000F0F6F8401BA042FAD370BD180000205E
:100550002DE9F84FDFF8B891002409F1040A0AF1F7
:10056000040B23460F270BF1040EC9E00125A5401B
:100570002A40AA427DD1674ED1F804C0ACEB0608F0
:10058000B44532D014DCBCF1030F3AD009DCBCF125
:10059000000F2AD0BCF1010F1CD0BCF1020F31D1E9
:1005A0001DE0BCF1110F17D0BCF1120F2AD119E0D8
:1005B000B8F5881F19D006DCB8F5803F15D0B8F51E
:1005C000801F1FD111E0B8F5001F0ED0B8F5041F31
:1005D00018D10AE0CB6815E0CB681B1D12E0CB6890
:1005E00008330FE0CB680C330CE08B682BB1012B88
:1005F0004FF0080303D0456104E0042302E00561E5
:1006000000E00023FF2A01D8064601E000F10406BD
:100610004FEA840501D9A5F12005D6F8008007FA34
:1006200005FC28EA0C0803FA05F548EA0508C6F8AF
:1006300000804D68ED0062D5374DAE6946F0010689
:10064000AE61AD6924F0030605F001050095334D58
:1006500006EB050CDCF80850A607360F07FA06F87B
:1006600025EA0805DFF8B880404503D14FF00008BF
:1006700017E044E0DFF8AC80404502D14FF00108BC
:100680000FE0DFF8A480404502D14FF0020808E0F7
:10069000DFF89880404502D14FF0030801E04FF0A9
:1006A000040808FA06F848EA0508CCF808804D68FE
:1006B000D9F80060ED034D4601D5164300E096439E
:1006C0002E604D68DAF80060AD03554601D516433B
:1006D00000E096432E604D68DBF80060ED025D4659
:1006E00001D5164300E096432E604D68DEF80060A9
:1006F000AD02754601D5164300E096432E60641C9A
:100700000D682A46E5407FF431AFBDE8F88F000060
:1007100000040140000011100010024000000140E0
:1007200000080140000C014000100140001401408D
:100730000148806870470000180000200248816866
:10074000027811448160704718000020074810B5F6
:10075000016841F010010160032000F075F80F20DE
:1007600000F006F800F024F8002010BD0020024040
:1007700070B50D4D04464FF47A712878B1FBF0F056
:100780000A490968B1FBF0F000F077FD48B9102C78
:1007900007D200222146501E00F036F800206C607F
:1007A00070BD012070BD0000180000202400002052
:1007B0000C4808B5816941F001018161816901F04E
:1007C00001010091C16941F08051C161C06900F02F
:1007D000805000900448416821F0E06141F00071D0
:1007E000416008BD0010024000000140002809DB04
:1007F00000F01F02012191404009800000F1E0203B
:10080000C0F8001170470000F0B40E4B1B680C4696
:10081000C3F30223C3F10705042D00D90425191DD4
:10082000072901D2002300E0DB1E012606FA05F1AC
:10083000491E214099409E40761E16403143F0BC2F
:1008400000F039BF0CED00E0064900F0070208682F
:100850004FF6FF03184040EA0220034A10430860A5
:10086000704700000CED00E00000FA052DE9F047AC
:100870000F46050061D0434E306800F00700B842D3
:1008800009D2306820F0070038433060306800F04B
:100890000700B84251D128683B4C810712D5400768
:1008A00003D5606840F4E06060602878000703D5F5
:1008B000606840F4605060606068A96820F0F000F3
:1008C000084360602878C00728D06868012810D0E5
:1008D0002168022810D0890700292EDA616821F0EA
:1008E000030101436160FFF723FF804641F288392D
:1008F0000DE021688903EFE78901EDE7FFF718FFB5
:10090000A0EB0801494502D90320BDE8F0876068E3
:10091000696800F00C00B0EB810FEFD1306800F097
:100920000700B8420BD9306820F007003843306028
:10093000306800F00700B84201D00120E5E72878D0
:10094000400705D56068E96820F4E060084360600E
:100950002878000706D56068296920F4605040EACD
:10096000C100606000F018F86168084AC1F3031123
:10097000515CC8400649086006480068FFF7F8FE69
:100980000020C2E700200240001002405C1700086F
:10099000240000201C00002012A185B00FC98DE8A2
:1009A0000F0014A0144A006804905168134801F025
:1009B0000C03042B10D0082B0ED1C1F38343C903C1
:1009C0001DF803000AD5516804AAC1F34041515CE7
:1009D0000A4A5043B0FBF1F005B07047084948435C
:1009E000FAE7000002030405060708090A0B0C0DCC
:1009F0000E0F1010010200000010024000127A00D9
:100A000000093D002DE9F84F040070D02078C04D5A
:100A1000C00749D06868C0F38100012807D0686822
:100A2000C0F38100022809D16868C00306D5286890
:100A3000800339D560680028E7D035E06068B0F5FC
:100A4000803F0BD010B1B0F5A02F11D0286820F452
:100A500080302860286820F4802002E0286840F474
:100A600080302860606890B1FFF762FE06460AE0B9
:100A7000286840F480202860F0E700BFFFF758FEA8
:100A8000801B642873D828688003F7D50CE0FFF733
:100A90004FFE064605E000BFFFF74AFE801B6428B4
:100AA000F0D828688003F7D420789A4E80074FF05A
:100AB00001094FF0000839D5686810F00C0F07D015
:100AC0006868C0F38100022809D16868C00306D4B1
:100AD0002868800714D52069012808D110E0206912
:100AE000B0B1C6F80090FFF723FE074605E00AE123
:100AF000FFF71EFEC01B0228C4D828688007F7D560
:100B00002868616920F0F80040EAC10028600DE023
:100B1000C6F80080FFF70CFE074604E0FFF708FE6A
:100B2000C01B022823D828688007F7D42078000744
:100B30002CD57948A169D9B1C0F80090FFF7F8FD2C
:100B4000074604E0FFF7F4FDC01B02280FD8686ACF
:100B50008007F7D571484FF4FA510068B0FBF1F007
:100B6000009000BF0098411E0091FAD20EE080E094
:100B7000C0F80080FFF7DCFD074604E0FFF7D8FD72
:100B8000C01B022875D8686A8007F7D42078400710
:100B900060D5E8690027C00008D4E86940F08050BB
:100BA000E861E869012700F0805000905C48016826
:100BB000C90513D40168834641F480710160FFF7D1
:100BC000B7FD824606E000BFFFF7B2FDA0EB0A00CA
:100BD00064284ED8DBF80000C005F5D5E068012890
:100BE0000AD008B1052813D0286A20F00100286235
:100BF000286A20F0040002E0286A40F00100286220
:100C0000E06841F2883B98B1FFF792FD82460BE025
:100C1000286A40F004002862EEE700BFFFF788FD75
:100C2000A0EB0A0159455AD8286A8007F6D50CE08E
:100C3000FFF77EFD824605E0FFF77AFDA0EB0A0193
:100C400059454CD8286A8007F6D41FB1E86920F0CE
:100C50008050E861E06988B36968C1F381010229C5
:100C600044D00228C6F8608004D0FFF761FD044636
:100C700038E034E0FFF75CFD074604E0FFF758FD7D
:100C8000C01B02282BD828688001F7D4206AB0F551
:100C9000803F05D16868A16820F40030084368608F
:100CA000D4E908010843696821F4741108436860B5
:100CB000C6F86090FFF73CFD044606E025E000BF63
:100CC000FFF736FD001B022809D828688001F7D5F8
:100CD0001BE000BFFFF72CFD001B022802D90320F8
:100CE000BDE8F88F28688001F4D40EE00128F7D021
:100CF0006868226A00F48031914204D1616A00F48C
:100D00007010884201D00120EAE70020E8E70000E7
:100D100000100240000042428004424224000020B1
:100D2000007000407047000038B504460068426813
:100D30008168C9434B0606D5CB0704D1D3435B0674
:100D400001D4216C05E08B0708D4D3431B0605D4DE
:100D5000616C01B02046BDE8304008478B0601D5E4
:100D60004B0646D4D3439B0643D44B060AD494F88F
:100D70005130032B3ED0636D43F004036365C368B9
:100D800083680093890609D4616D41F001016165B2
:100D900081680091016821F040010160606D0028C8
:100DA00027D02068416821F0E0014160012084F8EB
:100DB0005100900722D02068416821F00301416072
:100DC000104DE06C40B14563E06CFFF763FB18B178
:100DD000606D40F040006065A06C002809D045635C
:100DE000A06CFFF757FB002803D0606D40F0400077
:100DF000606538BDC1688068009038BD2046FFF747
:100E000091FF38BDD914000870B5040009D0606A9C
:100E1000002540B125616561A56294F8510040B19B
:100E20000CE0012070BD6068B0F5827FF4D0E56110
:100E3000F2E784F85050204600F040F8022084F891
:100E400051002068016821F040010160A0882189DB
:100E500000F4827001F404410843A18901F40061A7
:100E60000843217C01F002010843217D01F00101CA
:100E70000843218B01F400710843217F01F0380100
:100E8000084394F8201001F080010843218D01F4FB
:100E90000051084321680860A069042101EA10405C
:100EA000216848602068C16921F40061C1616565FD
:100EB000012084F85100002070BD000070B586B09C
:100EC000002400940194029403942E4A01682E4851
:100ED00002250326914227D1816941F48051816125
:100EE000816901F480510491816941F004018161BB
:100EF0008069694600F004000490B020CDE9000547
:100F0000224D03962846FFF723FB4020CDE900043D
:100F1000694628460294FFF71BFB00221146232056
:100F2000FFF772FC232029E0194A914228D1C169B8
:100F300041F48041C161C16901F48041049181693A
:100F400041F0080181618069124C00F008000490B2
:100F50004FF43040009069462046FFF7F9FA4FF40D
:100F60008040CDE90005694603962046FFF7F0FA78
:100F7000002211462420FFF747FC2420FFF736FC0F
:100F800006B070BD00300140001002400008014072
:100F900000380040000C0140F0B40024856813467E
:100FA00004261DB94268B2F5827F0DD090F850201A
:100FB000012A0FD0012280F8502090F851700022B1
:100FC000012F0AD0022436E080F85160F0BC0A46B6
:100FD00000F000B90220F0BC704771B16BB180F82D
:100FE0005160426581638387C38702638286C286BC
:100FF0004264C16819B1124902E001241BE01149A1
:101000000164B5F5004F09D101680B6823F0400376
:101010000B6001680B6823F480430B6001684B6828
:1010200043F060034B6001680B685B0603D40B68F8
:1010300043F040030B6080F850202046CBE70000CF
:101040006515000885150008054A0168914203D11D
:1010500004490A78521C0A7014220349FFF79CBF06
:101060000038004000000020280000202DE9F84F43
:10107000044690F8500000271D4616468946012870
:101080000DD04FF0010B84F850B0FFF751FB8046B4
:1010900094F85100BA46012804D0022793E00220B8
:1010A000BDE8F88FB9F1000F73D0002E71D0032086
:1010B00084F85100C4F854A0C4F83090A686E6869F
:1010C000C4F838A0A4F83CA0A4F83EA0C4F844A0FA
:1010D000C4F840A0A068B0F5004F09D120680168AD
:1010E00021F0400101602068016841F48041016005
:1010F00020680168490603D4016841F0400101609D
:10110000E068B0F5006F606803D030B3012E24D0E2
:1011100041E008B1012E1CD1206B21680088C86015
:1011200006E020688168890709D5216B0988C160BC
:10113000206B801C2063E08E401EE08609E0FFF7F4
:10114000F7FAA0EB0800A84202D3681C01D031E0F6
:101150007DB3E08E0028E4D120E0206B2168007888
:10116000087306E020688168890709D5216B097832
:101170000173206B401C2063E08E401EE0860AE075
:10118000FFF7D6FAA0EB0800A84203D3681C02D0F0
:1011900010E017E06DB1E08E0028E3D14246294609
:1011A000204600F0CFF908B120206065A06818B192
:1011B00006E0FFE7032706E02068C168806800902A
:1011C000606D00B1012784F851B084F850A0384612
:1011D00066E70000F0B590F850500024012D0CD0C7
:1011E000012580F8505090F8515000264768012D95
:1011F0000BD0B7F5827F06D101E00220F0BD8768F1
:101200000FB9042D01D0022429E0A9B1A2B19BB1EC
:1012100090F85150042D02D0052580F851504665B4
:1012200001638386C38682638387C387C16829B1CC
:101230000D4901640D4904E0012410E00C490164EA
:101240000C49416401684A6842F0E0024A60016862
:101250000A68520603D40A6842F040020A6080F825
:1012600050602046F0BD00003D1300089D130008AB
:101270006D130008CD130008704710B5401EB0F183
:10128000807F01D3012010BD4FF0E02460610F2169
:10129000601700F010FA0020A061072020610020F4
:1012A00010BDFEE70E4810B50C4901604FF4827185
:1012B000416000218160C1604FF480220161C0E97A
:1012C0000512C1610162416281620A21C162FFF7B8
:1012D0009BFD002801D072B6FEE710BD0030014032
:1012E0003C0000200C4810B50A4901600021416013
:1012F0008160C1600161416181610162416281621D
:101300000A21C162FFF780FD002801D072B6FEE716
:1013100010BD00000038004094000020FEE7FEE70A
:10132000704700000148FFF7FFBC00003C000020B0
:101330000148FFF7F9BC0000940000200168C9686B
:10134000826B1180816B891C8163C18F491EC187AB
:10135000C18F002909D101684A6822F040024A6021
:10136000C18E002901D100F049B870470168097B9E
:10137000826B1170816B491C8163C18F491EC187CB
:10138000C18F002909D101684A6822F060024A60D1
:10139000C18E002901D100F031B87047016B02689D
:1013A0000988D160016B891C0163C18E491EC18609
:1013B000C18E002909D101684A6822F080024A6082
:1013C000C18F002901D100F019B87047016B026884
:1013D00009781173016B491C0163C18E491EC186D6
:1013E000C18E002909D101684A6822F080024A6052
:1013F000C18F002901D100F001B8704738B504460B
:10140000214845F6C0510068B0FBF1F06421484323
:101410000090FFF78DF902462068416821F0200115
:101420004160009888B1401E009020688068800765
:10143000F7D56421204600F085F818B1606D40F0C2
:1014400020006065A06828B108E0606D40F02000D1
:101450006065EEE72068C16880680090616D0120DA
:1014600029B184F851002046FFF75CFC38BD94F8A0
:10147000511084F851000429204602D0FFF7FCFEE9
:1014800038BDFFF7E1FD38BD2400002038B5044623
:101490000068416821F060014160FFF749F90246A8
:1014A0006421204600F020F818B1606D40F0200063
:1014B0006065A06818B92068C16880680090012044
:1014C00084F85100606D0028204602D0FFF72AFC06
:1014D00038BDFFF7B9FD38BD10B5406A0021C1879E
:1014E000C186FFF71FFC10BDF8B5044640684FF4F5
:1014F0008273984217D1A0684FF48065B0F5004F11
:1015000001D0A8420FD12068066826F04006066088
:101510006068984207D1A068A84204D100920B46A7
:101520000022012103E000920B4600228021204688
:1015300000F038F8002804D0606D40F020006065AD
:101540000320F8BD38B50B460092044600228021E6
:1015500000F028F8002804D0606D40F0200060659D
:10156000032038BD0168C968826B1180816B891CBA
:101570008163C18F491EC187C18F002901D1FFF747
:1015800085BF70470168097B826B1170816B491CB4
:101590008163C18F491EC187C18F002901D1FFF727
:1015A00075BF70472DE9F8431E46914688460446AC
:1015B000089DFFF7BDF8401B351AFFF7B9F807463D
:1015C00025480068C0F3CB30684338E0701C37D042
:1015D000FFF7AEF8C01BA84203D215B1009860B364
:1015E0002CE02068416821F0E00141606068B0F5BE
:1015F000827F0BD1A068B0F5004F02D0B0F5806FAC
:1016000004D12068016821F040010160A06AB0F5B2
:10161000005F09D12068016821F400510160206851
:10162000016841F400510160012084F8510000205C
:1016300084F850000320BDE8F8830025401E009088
:101640002068816838EA010004D000214945BDD1F5
:101650000020F0E70121F9E7240000207047FFF7A0
:101660006DB810B590B028216846FEF735FE1421FC
:101670000AA8FEF731FE02200090012004901020FD
:101680000024059007946846FFF7BCF908B172B6CC
:10169000FEE70F20CDE90A040C940D9400210AA85E
:1016A0000E94FFF7E3F8002801D072B6FEE710B001
:1016B00010BD7047FEE70907090E002804DB00F1A2
:1016C000E02080F80014704700F00F0000F1E020E7
:1016D00080F8141D7047000008B5FFF737F8FFF7D2
:1016E000C0FF1848816941F004018161816901F0FE
:1016F00004010091816941F008018161806900F075
:1017000008000090FFF7CEFDFFF7ECFD0E49142214
:1017100001F16C00FFF740FC0C4D4FF47A740B485C
:101720002A780BA1401CFEF753FD084906486423A4
:101730001422491C1430FFF799FC2046FEF7F6FEF0
:10174000EDE700000010024028000020000000200B
:1017500048656C6C6F3A202564200A000000000088
:101760000000000001020304060708098C170008A6
:10177000000000202800000028010008B41700081D
:101780002800002028070000440100080048656C7C
:101790006C6F206165000000000000000000000088
:1017A0000000000001000000100000000000000028
:0417B0000024F4001D
:04000005080000ED02
:00000001FF
