:020000040800F2
:100000000808002091010008A71C000897180008A4
:10001000A51C0008DD0400086F2200080000000095
:10002000000000000000000000000000C9200008DF
:100030005705000800000000A91C00084121000825
:10004000AB010008AB010008AB010008AB010008E0
:10005000AB010008AB010008AB010008AB010008D0
:10006000AB010008AB010008AB010008AB010008C0
:10007000AB010008AB010008AB010008AB010008B0
:10008000AB010008AB010008AB010008AB010008A0
:10009000AB010008AB010008AB010008AB01000890
:1000A000AB010008AB010008AB010008AB01000880
:1000B000AB010008AB010008AB010008AB01000870
:1000C000AB010008AB010008AB010008AB01000860
:1000D000AB010008AB010008AB010008AB01000850
:1000E000AB010008AB010008AB01000800F002F80A
:1000F00000F03FF80AA090E8000C82448344AAF183
:100100000107DA4501D100F034F8AFF2090EBAE880
:100110000F0013F0010F18BFFB1A43F0010318473B
:10012000484B0000684B0000103A24BF78C878C1E3
:10013000FAD8520724BF30C830C144BF04680C60ED
:10014000704700000023002400250026103A28BF35
:1001500078C1FBD8520728BF30C148BF0B60704739
:10016000642900F07D80002070471FB51FBD10B5C9
:1001700010BD00F070F91146FFF7F7FF02F0D0F85C
:1001800000F08EF903B4FFF7F2FF03BC00F096F91C
:100190000948804709480047FEE7FEE7FEE7FEE71B
:1001A000FEE7FEE7FEE7FEE7FEE7FEE70448054957
:1001B000054A064B7047000095210008ED00000835
:1001C000080200200808002008040020080400207D
:1001D0000FB41CB5074B06AA7B44694600900598EE
:1001E00000F021F90020694600F030F91CBC5DF8F0
:1001F00014FB0000710200002DE9F0410E46044698
:10020000002020622046E168884730B3252805D0C9
:10021000D4E901219047206A401CF2E7E1682046BA
:1002200000278847050018D0A5F14100192802D8F9
:1002300020354FF400673246294620462760FFF7F5
:100240008FFF40B1012804D0F61D26F007060836BE
:10025000D8E7361DD6E72846DAE7206ABDE8F08100
:100260002DE9F0410646002410687529314616A58F
:1002700010D0AFF30080002802DA404213A507E057
:1002800031688A0701D512A502E0490704D511A5F6
:10029000012401E0AFF3008000210A2206F12407C7
:1002A00009E0B0FBF2FCB0FBF2F302FB1C003030C3
:1002B00078541846491C0028F3D123462A46304674
:1002C000BDE8F04100F051B8000000002D00000032
:1002D0002B0000002000000010B5431C02E010F8C5
:1002E000011B71B18107FAD14FF0013202C88C1A9B
:1002F0008C4314EAC211F9D0C01A0A0603D0C01EFA
:1003000010BDC01A10BD0A0401D0801E10BD090224
:10031000FCD0401E10BD4FF0000200B513469446BD
:100320009646203922BFA0E80C50A0E80C50B1F14D
:100330002001BFF4F7AF090728BFA0E80C5048BF61
:100340000CC05DF804EB890028BF40F8042B08BFFF
:10035000704748BF20F8022B11F0804F18BF00F8FB
:10036000012B70477047704770472DE9F0470D46E5
:1003700099469246044600F124080168880604D58F
:10038000E06921F01001216000E00120A84201DDB8
:10039000471B00E00027A1697A1902EB0900081A3F
:1003A000A0612078C00602D42046AFF3008000266A
:1003B00008E0D4E901211AF806009047206A401CA1
:1003C000761C20624E45F4DB2078C0060AD5204614
:1003D000AFF3008006E0D4E9012130209047206A85
:1003E000401C2062381EA7F10107F4DC07E0D4E9C5
:1003F000012118F805009047206A401C2062281E41
:10040000A5F10105F3DC2046AFF30080207800065B
:1004100002D50220BDE8F0870120FBE701694A1CF4
:1004200002610878704700B58FB0CDE90131002135
:10043000059105497944CDE9031011466846FFF757
:10044000DBFE0FB000BD0000E5FFFFFF0A6802F809
:10045000010B0A607047754600F02CF8AE460500A7
:100460006946534620F00700854618B020B5FFF7CF
:100470009DFEBDE820404FF000064FF000074FF012
:1004800000084FF0000B21F00701AC46ACE8C009B2
:10049000ACE8C009ACE8C009ACE8C0098D467047BB
:1004A00010B50446AFF300802046BDE81040FFF7CA
:1004B00069BE000000487047A801002001491820CB
:1004C000ABBEFEE726000200704700F00F010009F6
:1004D00000EB800001EB4000C0B27047FEE73EB584
:1004E00004464FF47A7204210E308DE80700012390
:1004F0000322D021206800F051FBA07BFFF7E5FF2D
:10050000A075E07BFFF7E1FF6075207CFFF7DDFF62
:10051000E075607CFFF7D9FF20763EBD3EB504460E
:100520004FF47A720321C01D8DE8070001230022D9
:10053000D021206800F032FBE079FFF7C6FF20757C
:10054000207AFFF7C2FFE074607AFFF7BEFFA07465
:100550003EBD016070477047FEB500254FF6E0765E
:10056000104CCDE90165606800900F4A1B212120E5
:10057000236801F071FDCDE90165606800900A4AC9
:100580001B2114323720236801F066FDCDE9016597
:1005900060680090044A1B211E325820236801F035
:1005A0005BFDFEBD0800002060010020FEB50024B8
:1005B0001623802204211E20009401F02FFC0F4DF1
:1005C0000F4EA87D56F82000FFF786FE6FF00A0157
:1005D000484311218E3001EB500040F2FF71CDE90C
:1005E00001140849C0B24A680092AA7D0B68042130
:1005F00056F8222001F030FDFEBD0000440100202D
:100600002400002008000020FEB5002001F050FC6E
:100610004FF6FF74002150239F220846009401F0FA
:1006200049FE0021502311220846009401F0F6FBF8
:1006300066110025194CCDE901656068009018A28B
:100640000F210520236801F007FDCDE901656068F1
:10065000009014A219210520236801F0FDFCCDE9CA
:1006600001656068009010A223210520236801F035
:10067000F3FCCDE90165606800900CA22D210520F6
:10068000236801F0E9FCCDE901656068009004A2EF
:1006900037210520236801F0DFFCFEBD00000020AB
:1006A0004C0000004F00000043000000410000002B
:1006B000FEB500254FF6FF76114CCDE90165606867
:1006C0000090104A32211F20236801F0C5FCCDE9BB
:1006D0000165606800900B4A32210A3A3F20236886
:1006E00001F0BAFC0848CDE9016541680091054A6E
:1006F0000368143A38216F2001F0AEFCFEBD000003
:10070000100000209C0100200800002010B51548B2
:10071000FFF7E5FE134C1448627D01788A4202D04F
:100720000270012141700A2A01D210A100E010A13B
:100730000C481C30FFF74CFD0A48E27D30300A2A95
:1007400001D20CA100E00DA1FFF742FD0548227E79
:100750003A300A2A01D20AA100E00BA1BDE81040FC
:10076000FFF736BD4401002018000020302564004A
:10077000256400002F302564000000002F25640050
:100780002F323030256400002F3230256400000005
:1007900010B51348FFF7A3FE1148FFF7BFFE104C3A
:1007A00004F14400227D0A2A01D20EA100E00FA12B
:1007B000FFF70EFD0A48E27C4E300A2A01D209A159
:1007C00000E00AA1FFF704FD0548A27C58300A2A80
:1007D00001D207A100E007A1BDE81040FFF7F8BC77
:1007E000440100203A302564000000003A256400EE
:1007F000302564002564000070B5044600F004F95B
:100800000546601C02D004480078044400F0FCF85F
:10081000401BA042FAD370BD400000202DE9F84FE4
:10082000DFF8B891002409F1040A0AF1040B234609
:100830000F270BF1040EC9E00125A5402A40AA426A
:100840007DD1674ED1F804C0ACEB0608B44532D078
:1008500014DCBCF1030F3AD009DCBCF1000F2AD044
:10086000BCF1010F1CD0BCF1020F31D11DE0BCF175
:10087000110F17D0BCF1120F2AD119E0B8F5881F5B
:1008800019D006DCB8F5803F15D0B8F5801F1FD110
:1008900011E0B8F5001F0ED0B8F5041F18D10AE01A
:1008A000CB6815E0CB681B1D12E0CB6808330FE066
:1008B000CB680C330CE08B682BB1012B4FF0080395
:1008C00003D0456104E0042302E0056100E0002359
:1008D000FF2A01D8064601E000F104064FEA84052C
:1008E00001D9A5F12005D6F8008007FA05FC28EA11
:1008F0000C0803FA05F548EA0508C6F800804D68BB
:10090000ED0062D5374DAE6946F00106AE61AD69C6
:1009100024F0030605F001050095334D06EB050CA8
:10092000DCF80850A607360F07FA06F825EA08058E
:10093000DFF8B880404503D14FF0000817E044E0ED
:10094000DFF8AC80404502D14FF001080FE0DFF83E
:10095000A480404502D14FF0020808E0DFF89880FB
:10096000404502D14FF0030801E04FF0040808FAB7
:1009700006F848EA0508CCF808804D68D9F8006008
:10098000ED034D4601D5164300E096432E604D68B9
:10099000DAF80060AD03554601D5164300E09643F2
:1009A0002E604D68DBF80060ED025D4601D5164310
:1009B00000E096432E604D68DEF80060AD0275469B
:1009C00001D5164300E096432E60641C0D682A464C
:1009D000E5407FF431AFBDE8F88F0000000401402E
:1009E000000011100010024000000140000801400A
:1009F000000C014000100140001401400AB10161E7
:100A000070470904FBE70000014880687047000058
:100A10004000002070B5040025D094F83D0000256A
:100A200020B984F83C50204600F0E0F9242084F8F6
:100A30003D002068016821F0010101602068016823
:100A400041F4004101602068016821F40041016027
:100A500000F01AFB4D4A6168914201D84C4900E010
:100A60004C49884201D2012070BD4B492368B0FB3C
:100A7000F1F15E6826F03F060E435E6063689342C4
:100A800006D94FF4967359434FF47A73B1FBF3F1DF
:100A90002368491C1E6A26F03F06314319626168CB
:100AA000914210D84900401EB0FBF1F2521CC2F333
:100AB0000B02042A01D2042022E0B0FBF1F0401C1A
:100AC000C0F30B001CE0A268F2B301EBC10303EB1F
:100AD0000116431EB3FBF6F35B1C43F480431B0576
:100AE00049D092B301EBC10202EB0111401EB0FBF1
:100AF000F1F0401CC0F30B0040F4804040F4004093
:100B00002168CA694CF6FF739A431043C861D4E95F
:100B1000071001432068026822F0C00211430160FF
:100B2000D4E9030101432068826848F2FF339A4305
:100B300011438160D4E9050108432168CA6822F0A5
:100B4000FF021043C86001E00EE016E02068016873
:100B500041F0010101602564202084F83D002563F7
:100B600084F83E50002070BD01EB4106431EB3FBEC
:100B7000F6F35B1CB3E70120C2E701EB4101401E25
:100B8000B0FBF1F0401CC0F30B00B7E7A0860100FA
:100B900080841E0000093D0040420F002DE9FF4FF8
:100BA00083B00025DDE910799A4693460446DDF8C6
:100BB00048800095FFF728FF064694F83D0020285E
:100BC0007CD11923012285492046009600F0FAFEC7
:100BD0000028F5D194F83C0001286FD0012084F85A
:100BE0003C0020680168C90703D1016841F0010198
:100BF00001602068016821F400610160222084F80E
:100C00003D00402084F83E0025646762A4F82A90E5
:100C1000608D20857248E062CDE9008653465A46D1
:100C20002046049900F050FE00287DD1208DDFF889
:100C3000B491202768B1012814D0022820680168E7
:100C40001ED041F480610160206841698069009094
:100C5000B6E02068416981690091016841F4007142
:100C60000160ADE02068016821F48061016072B626
:100C70002068416981690091016841F400710AE0CE
:100C800041F40061016072B6206841698169009198
:100C9000016821F48061016062B691E0032868D8A0
:100CA00001280CD0022843464FF000024946204656
:100CB00000960FD000F086FEB0BB10E08BE032460D
:100CC0004146204600F0FDFE70BB20680069616A65
:100CD00008706CE000F076FE30BB72B634E020683D
:100CE000016821F48061016072B620680069616A60
:100CF0000870606A401C6062208D401E2085608DF7
:100D0000401E6085384846F2A8110068B0FBF1F03B
:100D1000C0EBC00000EB80000090401E009008D0A7
:100D200020684069C04300E029E040070CD50098E6
:100D3000F3E744F8305F6773A573206940F0200043
:100D4000206162B625731AE02068016841F40071E1
:100D5000016020680069616A0870606A401C606216
:100D6000218D491E2185618D491E618562B62168EC
:100D70001BE032464146204600F0A3FE18B1012098
:100D800007B0BDE8F08F20680069616A0870606A8A
:100D9000401C6062218D491E2185618D491E61853F
:100DA00021684A69D24352070AD409690170606A0E
:100DB000401C6062208D401E2085608D401E608535
:100DC000208D00287FF46AAF84F83D7084F83E508F
:100DD00084F83C50D4E70220D2E700000200100063
:100DE0000000FFFF040001004C00002010B586B099
:100DF0000021009101910291039100680F498842FE
:100E00001AD10F4CA06940F00800A061A0696946A2
:100E100000F008000490C0200090122001900320F0
:100E200003900848FFF7FAFCE06940F40010E06125
:100E3000E06900F40010049006B010BD00540040BA
:100E400000100240000C0140024881680278114401
:100E50008160704740000020074810B5016841F0EC
:100E600010010160032000F067F80F2000F006F881
:100E700000F024F8002010BD0020024070B50D4D98
:100E800004464FF47A712878B1FBF0F00A490968FA
:100E9000B1FBF0F000F009FC48B9102C07D2002299
:100EA0002146501E00F028F800206C6070BD012023
:100EB00070BD0000400000204C0000200C4808B528
:100EC000816941F001018161816901F001010091B5
:100ED000C16941F08051C161C06900F0805000904B
:100EE0000448416821F0E06141F00071416008BDB3
:100EF0000010024000000140F0B40E4B1B680C468D
:100F0000C3F30223C3F10705042D00D90425191DDD
:100F1000072901D2002300E0DB1E012606FA05F1B5
:100F2000491E214099409E40761E16403143F0BC38
:100F300001F09EB90CED00E0064900F007020868D8
:100F40004FF6FF03184040EA0220034A10430860AE
:100F5000704700000CED00E00000FA052DE9F047B5
:100F60000F46050061D0434E306800F00700B842DC
:100F700009D2306820F0070038433060306800F054
:100F80000700B84251D128683B4C810712D5400771
:100F900003D5606840F4E06060602878000703D5FE
:100FA000606840F4605060606068A96820F0F000FC
:100FB000084360602878C00728D06868012810D0EE
:100FC0002168022810D0890700292EDA616821F0F3
:100FD000030101436160FFF717FD804641F2883944
:100FE0000DE021688903EFE78901EDE7FFF70CFDCC
:100FF000A0EB0801494502D90320BDE8F0876068ED
:10100000696800F00C00B0EB810FEFD1306800F0A0
:101010000700B8420BD9306820F007003843306031
:10102000306800F00700B84201D00120E5E72878D9
:10103000400705D56068E96820F4E0600843606017
:101040002878000706D56068296920F4605040EAD6
:10105000C100606000F028F86168084AC1F303111C
:10106000515CC8400649086006480068FFF706FF63
:101070000020C2E700200240001002400C4C000893
:101080004C000020440000200448054900684968DD
:10109000044AC1F30221515CC84070474C00002053
:1010A000001002401C4C000812A185B00FC98DE849
:1010B0000F0014A0144A006804905168134801F00E
:1010C0000C03042B10D0082B0ED1C1F38343C903AA
:1010D0001DF803000AD5516804AAC1F34041515CD0
:1010E0000A4A5043B0FBF1F005B070470849484345
:1010F000FAE7000002030405060708090A0B0C0DB5
:101100000E0F1010010200000010024000127A00C1
:1011100000093D002DE9F84F040070D02078C04D43
:10112000C00749D06868C0F38100012807D068680B
:10113000C0F38100022809D16868C00306D5286879
:10114000800339D560680028E7D035E06068B0F5E5
:10115000803F0BD010B1B0F5A02F11D0286820F43B
:1011600080302860286820F4802002E0286840F45D
:1011700080302860606890B1FFF746FC06460AE0C0
:10118000286840F480202860F0E700BFFFF73CFCAF
:10119000801B642873D828688003F7D50CE0FFF71C
:1011A00033FC064605E000BFFFF72EFC801B6428D9
:1011B000F0D828688003F7D420789A4E80074FF043
:1011C00001094FF0000839D5686810F00C0F07D0FE
:1011D0006868C0F38100022809D16868C00306D49A
:1011E0002868800714D52069012808D110E02069FB
:1011F000B0B1C6F80090FFF707FC074605E00AE12A
:10120000FFF702FCC01B0228C4D828688007F7D566
:101210002868616920F0F80040EAC10028600DE00C
:10122000C6F80080FFF7F0FB074604E0FFF7ECFB91
:10123000C01B022823D828688007F7D4207800072D
:101240002CD57948A169D9B1C0F80090FFF7DCFB33
:10125000074604E0FFF7D8FBC01B02280FD8686AD6
:101260008007F7D571484FF4FA510068B0FBF1F0F0
:10127000009000BF0098411E0091FAD20EE080E07D
:10128000C0F80080FFF7C0FB074604E0FFF7BCFB97
:10129000C01B022875D8686A8007F7D420784007F9
:1012A00060D5E8690027C00008D4E86940F08050A4
:1012B000E861E869012700F0805000905C4801680F
:1012C000C90513D40168834641F480710160FFF7BA
:1012D0009BFB824606E000BFFFF796FBA0EB0A00EF
:1012E00064284ED8DBF80000C005F5D5E068012879
:1012F0000AD008B1052813D0286A20F0010028621E
:10130000286A20F0040002E0286A40F00100286208
:10131000E06841F2883B98B1FFF776FB82460BE02C
:10132000286A40F004002862EEE700BFFFF76CFB7C
:10133000A0EB0A0159455AD8286A8007F6D50CE077
:10134000FFF762FB824605E0FFF75EFBA0EB0A01B8
:1013500059454CD8286A8007F6D41FB1E86920F0B7
:101360008050E861E06988B36968C1F381010229AE
:1013700044D00228C6F8608004D0FFF745FB04463D
:1013800038E034E0FFF740FB074604E0FFF73CFBA2
:10139000C01B02282BD828688001F7D4206AB0F53A
:1013A000803F05D16868A16820F400300843686078
:1013B000D4E908010843696821F47411084368609E
:1013C000C6F86090FFF720FB044606E025E000BF6A
:1013D000FFF71AFB001B022809D828688001F7D5FF
:1013E0001BE000BFFFF710FB001B022802D90320FF
:1013F000BDE8F88F28688001F4D40EE00128F7D00A
:101400006868226A00F48031914204D1616A00F474
:101410007010884201D00120EAE70020E8E70000D0
:101420000010024000004242800442424C00002072
:101430000070004070B5040009D0606A002540B11A
:1014400025616561A56294F8510040B10CE001206E
:1014500070BD6068B0F5827FF4D0E561F2E784F892
:101460005050204600F040F8022084F851002068D7
:10147000016821F040010160A088218900F4827098
:1014800001F404410843A18901F400610843217C6F
:1014900001F002010843217D01F001010843218B85
:1014A00001F400710843217F01F03801084394F8EA
:1014B000201001F080010843218D01F40051084300
:1014C00021680860A069042101EA10402168486091
:1014D0002068C16921F40061C1616565012084F85B
:1014E0005100002070BD000000B585B000210091C2
:1014F00001910291039100680F4988421AD10F4867
:10150000816941F480518161816901F480510491C4
:10151000816941F0040181618069694600F004003D
:101520000490A02000900220019003200390044822
:10153000FFF774F905B000BD003001400010024013
:10154000000801402DE9F84F044690F850000027AC
:101550001D461646894601280DD04FF0010B84F830
:1015600050B0FFF751FA804694F85100BA4601286E
:1015700004D0022793E00220BDE8F88FB9F1000FF4
:1015800073D0002E71D0032084F85100C4F854A009
:10159000C4F83090A686E686C4F838A0A4F83CA02B
:1015A000A4F83EA0C4F844A0C4F840A0A068B0F5D8
:1015B000004F09D12068016821F0400101602068D6
:1015C000016841F48041016020680168490603D444
:1015D000016841F040010160E068B0F5006F6068AB
:1015E00003D030B3012E24D041E008B1012E1CD12C
:1015F000206B21680088C86006E020688168890740
:1016000009D5216B0988C160206B801C2063E08EA6
:10161000401EE08609E0FFF7F7F9A0EB0800A842BA
:1016200002D3681C01D031E07DB3E08E0028E4D104
:1016300020E0206B21680078087306E0206881684C
:10164000890709D5216B09780173206B401C206341
:10165000E08E401EE0860AE0FFF7D6F9A0EB080016
:10166000A84203D3681C02D010E017E06DB1E08EF1
:101670000028E3D142462946204600F016FB08B177
:1016800020206065A06818B106E0FFE7032706E0A8
:101690002068C16880680090606D00B1012784F8FF
:1016A00051B084F850A0384666E710B5401EB0F13E
:1016B000807F01D3012010BD4FF0E02460610F2135
:1016C000601700F0D5FD0020A061072020610020F8
:1016D00010BD000070B590F83C20012A26D00124EE
:1016E00080F83C40022280F83D2003685A689D68DB
:1016F00022F070060A6832435A600D4B02689A4223
:1017000008D0B2F1804F05D00A4B9A4202D00A4B62
:101710009A4204D1496825F080031943916080F80A
:101720003D40002180F83C10084670BD022070BD8D
:10173000002C0140000400400008004010B50400E7
:1017400003D094F83D0010B107E0012010BD002047
:1017500084F83C00204600F01FF8022084F83D0089
:10176000211D206800F018FD012084F8460084F84F
:101770003E0084F83F0084F8400084F8410084F87B
:10178000420084F8430084F8440084F8450084F85B
:101790003D00002010BD000008B5006806498842E1
:1017A00008D10648C16941F00401C161C06900F077
:1017B0000400009008BD0000000800400010024036
:1017C00070B5044690F83C00012817D0012584F834
:1017D0003C50022084F83D002068826822F07702A5
:1017E00022F47F4282600868502830D00DDC202827
:1017F0004DD005DC98B310283BD148E0022070BDE5
:10180000302844D0402834D139E0602828D07028CE
:1018100006D0B0F5805F2CD0B0F5005F29D10AE08A
:10182000CB68D1E90121206800F0ECFC20688168D8
:1018300041F0770109E0CB68D1E90121206800F08F
:10184000E1FC2068816841F48041816011E0CA6850
:101850004968206800F0E8FC5021206807E016E0A5
:10186000CA684968206800F0F0FC6021206800F038
:10187000D3FC84F83D50002084F83C0070BDCA6859
:101880004968206800F0D0FC40212068EFE722681A
:1018900001461046EBE7FEE701684A69D24352056C
:1018A0000FD46FF480624A61002140F8301F20227B
:1018B00042738173026942F00402026101730120E4
:1018C00070470020704700002DE9F84F044600687B
:1018D00089460B9D01689846174641F48061016076
:1018E0002068016841F48071016000954FF0011B90
:1018F0000022594620460A9B00F064F84FF4007A13
:1019000040B120680068C00501D5C4F840A003209C
:10191000BDE8F88F216809F0FE0008612B462849D0
:1019200020460A9A00F082F8F0BB2068416980697D
:1019300000902A4620460A9900F0F6F840B1206C43
:1019400004283AD12068016841F40071016034E054
:10195000FEB2B8F1010F09D02168380A08612A46A1
:1019600020460A9900F0E0F80028E8D120680661D6
:101970002A4620460A9900F0D7F80028DFD12068CF
:10198000016841F4807101600095002259462046AB
:101990000A9B00F017F80028B3D1216809F0FF0076
:1019A00040F00100086100E007E02B4604492046B2
:1019B0000A9A00F03BF80028AAD00120A8E700000E
:1019C000020001002DE9F0471E4690460D460446F0
:1019D000C1F30747DDF8209008E0701C06D0FFF740
:1019E00013F8A0EB0900B0420FD876B12068012FA0
:1019F00018D0806925EA00000004000C14D00021F2
:101A00004145EAD00020BDE8F087002044F8300FBF
:101A100020216173A073216941F0200121612073AD
:101A20000120F0E74069E5E70121E9E72DE9F0470A
:101A30009A4691460E46044600254FF02008C1F311
:101A4000074725E020684069C043400514D420685A
:101A5000016841F40071016021686FF480604861A1
:101A6000256384F83D8084F83E50206C40F00400EB
:101A7000206484F83C501FE0B9F1FF3F08D0FEF726
:101A8000C3FFA0EB0A0149450CD8B9F1000F09D0FA
:101A90002068012F13D0806926EA00000004000CA2
:101AA0000BD0CFE744F8305F84F80D80A573206930
:101AB00040F02000206125730120BDE8F0874069D7
:101AC000EAE72DE9F041002590460E46044620271E
:101AD00017E04069C043C0060CD454F8301B6FF0C7
:101AE0001000486144F810596777A577206A206292
:101AF000257717E0FEF788FFA0EB0800B04208D872
:101B00003EB120684169C9434906E2D40020BDE8DE
:101B1000F08144F8305F6773A573206940F02000BE
:101B2000206125730120F2E770B516460D46044684
:101B30000DE02046FFF7B0FE08B1012070BD681C23
:101B400005D0FEF761FF801BA84207D835B1206899
:101B50004069C0430006ECD4002070BD002044F86A
:101B6000300F20216173A073216941F020012161B0
:101B70002073E2E72DE9F04186B000241C48009470
:101B8000019402940394816941F0040181618169A7
:101B900001F004010491816941F0080181618069CB
:101BA000144F00F008000490002210213846FEF780
:101BB00025FFDFF84480002203214046FEF71EFF88
:101BC000102001250226CDE90005CDE9024669462F
:101BD0003846FEF723FE0320CDE90005CDE9024695
:101BE00069464046FEF71AFE06B0BDE8F0810000E7
:101BF0000010024000080140000C01400E4810B5E2
:101C00000C4901604FF48271416000218160C16024
:101C10004FF400720161C0E90512C16101624162C5
:101C200081620A21C162FFF705FC002801D072B66B
:101C3000FEE710BD00300140A400002010B586B0C2
:101C400000241748009401940294039404941349C7
:101C50000594016041F63F71C0E901144FF6FF7130
:101C6000C0E903148461FFF769FD08B172B6FEE7AD
:101C70004FF48050009069460948FFF7A1FD08B174
:101C800072B6FEE7049404A905480594FFF722FD07
:101C9000002801D072B6FEE706B010BD0008004073
:101CA000FC000020FEE7FEE7704738B50B460092C7
:101CB00004460022802100F009F8002804D0606D5D
:101CC00040F020006065032038BD00002DE9F84396
:101CD0001E46914688460446089DFEF795FE401B29
:101CE000351AFEF791FE074625480068C0F3CB3051
:101CF000684338E0701C37D0FEF786FEC01BA84250
:101D000003D215B1009860B32CE02068416821F03F
:101D1000E00141606068B0F5827F0BD1A068B0F54A
:101D2000004F02D0B0F5806F04D12068016821F027
:101D300040010160A06AB0F5005F09D12068016828
:101D400021F4005101602068016841F400510160F4
:101D5000012084F85100002084F850000320BDE8E1
:101D6000F8830025401E00902068816838EA010051
:101D700004D000214945BDD10020F0E70121F9E759
:101D80004C000020F8B516460C460546A0281DD28A
:101D9000802C1BD20E4F002210213846FEF72EFE5B
:101DA000601CC3B2681CC2B2E1B2E8B200F0C8F86D
:101DB000300A8DF800008DF801600221684600F0BD
:101DC0003BF9012210213846FEF718FEF8BD00004D
:101DD000000801402DE9F04110F8015B044617E0CE
:101DE000207800F01BF96078A41C00F0800730F028
:101DF000800604D03146204600F01EF934443FB13D
:101E000014F8010BFF2801D14FF4FA70FEF7F4FC2F
:101E10006D1EEDB2E4D2BDE8F08100002DE9F8437B
:101E20001C46DDF8208015460E460746A0283BD20A
:101E3000802E39D27819401EA02802DBC7F1A000FD
:101E400085B23019401E802802DBC6F1800084B2C2
:101E5000DFF85890002210214846FEF7CFFD3019D8
:101E6000401EC3B27819401EC2B2F1B2F8B200F0FF
:101E700067F84FEA18208DF800008DF8018026469B
:101E80000BE02C4605E00221684600F0D5F8641E00
:101E9000A4B2002CF7D1761EB6B2002EF1D10122E9
:101EA00010214846FEF7AAFDBDE8F883000801406E
:101EB00008B5002100908023A0220846FFF7AEFF5E
:101EC00008BD000010B50D4C002210212046FEF781
:101ED00095FD00F017F80A48FFF77CFF08483B30F3
:101EE000FFF778FF06484830FFF774FF20460122CD
:101EF000BDE810401021FEF781BD00000008014040
:101F00008423000810B5084C002202212046FEF769
:101F100075FD0520FEF770FC20460122BDE810404B
:101F20000221FEF76BBD0000000C01400A4601468D
:101F30004FF0FF330148FFF705BB0000A40000206D
:101F4000F8B507461C4615460E462A2000F066F8EE
:101F5000002000907F1C8DF801706D1C8DF80350DF
:101F60000421684600F068F82B2000F057F8B61CF2
:101F70008DF80160A41C8DF803400421684600F030
:101F80005BF82C2000F04AF8F8BD00000FB42DE9F2
:101F9000FF5F4A1EC3F307263244D4B2DFB2421EAB
:101FA000DDE913A93A44D2B2C9B2C0B22346FFF761
:101FB000C7FF00252CE010981299203800FB06502E
:101FC000002431F810804FEA1A2002900AF0FF0036
:101FD00001904FEA192009F0FF0B009015E000BFB7
:101FE00008FA04F0000406D502988DF80C00019858
:101FF0008DF80D0004E000988DF80C008DF80DB000
:10200000022103A800F018F8641CA742E8D86D1C50
:10201000AE42D0D8BDE8FF1F5DF814FB01B5002229
:1020200001210448FEF7EAFC01216846FFF77EFF24
:1020300008BD0000000C014070B50C4605460122A9
:1020400011460448FEF7DAFCA1B22846BDE870400C
:10205000FFF76CBF000C01402DE9FE4FDFF86490E4
:10206000DDE90DBA14460E460546984600221021B9
:102070004846FEF7C3FC08F0FF0718E07819A028CF
:1020800009D3C8F3072081198EB200253044802877
:1020900010D2202A0AD0CDE901BA0C98009043460C
:1020A00031462846FFF772FF781985B2641C227802
:1020B000002AE3D103B04846BDE8F04F01221021C9
:1020C000FEF79CBC00080140704710B5FEF79CFA73
:1020D000FEF7EEFAFEF740FABDE81040FEF766BAEA
:1020E0003EB5FEF713FBFEF78FFC114C6060A16854
:1020F000401AB0F57A7F05D3FEF74AFBFEF7D8FA0F
:102100006068A0606078002520B1FEF725FAFEF730
:102110004DFA65704FF6FF70CDE90105054806A23E
:102120004168009103685A213220FFF795FF3EBDB8
:1021300018000020100000207E44487E00000000AF
:10214000FEF782BE10B590B028216846FEF7E3F88E
:1021500014210AA8FEF7DFF8022000900120049065
:1021600010200024059007946846FEF7D3FF08B1BD
:1021700072B6FEE70F20CDE90A040C940D940021FD
:102180000AA80E94FEF7EAFE002801D072B6FEE718
:1021900010B010BD70470000F0B50268164B174C28
:1021A000174D4FF08047984205D0B84203D0A04267
:1021B00001D0A84203D122F070064A683243984207
:1021C00005D0B84203D0A04201D0A84203D122F4E6
:1021D0004074CA6822434C6922F0800222430260A4
:1021E0008A68C2620A688262984201D10969016301
:1021F00001214161F0BD0000002C014000040040BD
:102200000008004010B5846842EA032224F47F44A9
:102210000A432243826010BD826822F070020A43A2
:1022200042F007018160704710B5036A046A24F028
:1022300001040462846924F0F00444EA021423F0E7
:102240000A020A438461026210BD10B5036A23F0DA
:10225000100303628369046A23F4704343EA023281
:1022600024F0A00343EA01118261016210BDFEE780
:102270000907090E002804DB00F1E02080F80014B3
:10228000704700F00F0000F1E02080F8141D704747
:102290002DE9F041044615191E460F466D1E05E056
:1022A000A0B232463946FFF76DFD641CA542F7DC4B
:1022B000BDE8F0812DE9F0411C46DDF81880154697
:1022C0000F4606464346224600F018F87019401E95
:1022D00080B243462246394600F010F843462A466B
:1022E00039463046FFF7D4FF3819401E81B24346C5
:1022F0002A463046BDE8F041FFF7CABF2DE9F0415C
:102300000C4617191D4606467F1E05E0A1B22A4657
:102310003046FFF737FD641CA742F7DCBDE8F081CB
:10232000FEF79AFDFFF70EFFFFF724FCFFF766FCB0
:10233000FFF784FC114810494FF4804201601049B6
:10234000416000218160C0E9031241618161C16186
:102350000162FEF75FFB08B172B6FEE7FFF7B2FD60
:10236000064901F1F400FEF7F4F8FFF7AEFE00BFF6
:10237000FFF7B6FEFCE700000054004050000020CC
:10238000A08601000F0180961180FFB103012C2D62
:10239000B203012C2DB306012C2D012C2DB4010705
:1023A000C003A20284C101C5C2020A00C3028A2A74
:1023B000C4028AEEC5010E20003601603A01050212
:1023C0002A040000007F2B040000007F04E01002BC
:1023D0001C07123732292D29252B3900010310E162
:1023E00010031D07062E2C292D2E2E373F0000022C
:1023F0001013800A29806400000000000000000023
:1024000000000000000000000000000000100010AC
:10241000001000100010001000000010000000006C
:102420000028002800280000000000000000000034
:102430000000000000240024007C00240048007CF0
:1024400000480048000000000038005400500038E8
:102450000014005400540038001000000020005404
:10246000005800300028005400140008000000004C
:1024700000100028002800100034004800480034F4
:10248000000000000010001000100000000000001C
:1024900000000000000000000008001000200020E4
:1024A0000020002000200020001000080020001064
:1024B00000080008000800080008000800100020BC
:1024C000001000380010002800000000000000008C
:1024D000000000000000000000100010007C001050
:1024E00000100000000000000000000000000000DC
:1024F00000000000000000100010001000000000AC
:102500000000000000000038000000000000000093
:1025100000000000000000000000000000000010AB
:10252000000000000008000800100010001000105B
:102530000020002000000000003800440044005447
:102540000044004400440038000000000010003047
:1025500000500010001000100010001000000000DB
:102560000038004400440004000800100020007CF3
:1025700000000000003800440004001800040004BB
:10258000004400380000000000080018002800285F
:102590000048007C0008000800000000007C0040AB
:1025A00000400078000400040044003800000000EF
:1025B00000380044004000780044004400440038E3
:1025C00000000000007C0004000800100010002043
:1025D00000200020000000000038004400440038C3
:1025E000004400440044003800000000003800446B
:1025F00000440044003C0004004400380000000097
:1026000000000000001000000000000000000010AA
:1026100000000000000000000000001000000000AA
:10262000000000100010001000000000000C00303E
:1026300000400030000C000000000000000000001E
:102640000000007C0000007C000000000000000092
:102650000000000000600018000400180060000086
:1026600000000000003800440004000800100010C2
:10267000000000100000000000380044004C00542E
:10268000005C0040004000380000000000100028FE
:10269000002800280028007C0044004400000000BE
:1026A000007800440044007800440044004400786E
:1026B000000000000038004400400040004000409E
:1026C000004400380000000000700048004400444E
:1026D000004400440048007000000000007C0040FE
:1026E0000040007C004000400040007C00000000F2
:1026F000007C004000400078004000400040004066
:10270000000000000038004400400040005C00442D
:102710000044003800000000004400440044007CF5
:102720000044004400440044000000000038001051
:102730000010001000100010001000380000000011
:1027400000040004000400040004000400440038F5
:1027500000000000004400480050006000500048A5
:1027600000480044000000000040004000400040DD
:10277000004000400040007C000000000044006C6D
:10278000006C005400440044004400440000000079
:1027900000440064006400540054004C004C0044A9
:1027A000000000000038004400440044004400449D
:1027B0000044003800000000007800440044004459
:1027C0000078004000400040000000000038004455
:1027D0000044004400440044005400380004000059
:1027E0000078004400440044007800480048004459
:1027F00000000000003800440040003000080004E1
:102800000044003800000000007C001000100010A0
:1028100000100010001000100000000000440044F0
:10282000004400440044004400440038000000001C
:102830000044004400440028002800280010001034
:102840000000000000440044005400540054006C98
:102850000028002800000000004400280028001084
:10286000001000280028004400000000004400443C
:1028700000280028001000100010001000000000C8
:10288000007C000400080010001000200040007CC4
:1028900000000000001800100010001000100010D0
:1028A0000010001000100018002000200010001080
:1028B00000100010000800080000000000300010A8
:1028C0000010001000100010001000100010003068
:1028D0000010002800280044000000000000000054
:1028E00000000000000000000000000000000000E8
:1028F00000000000000000FE0020001000000000AA
:1029000000000000000000000000000000000000C7
:1029100000380044003C0044004C0034000000003B
:102920000040004000580064004400440064005827
:10293000000000000000000000380044004000409B
:102940000044003800000000000400040034004C83
:1029500000440044004C003400000000000000006F
:1029600000380044007C00400044003800000000B3
:10297000000C0010007C001000100010001000106F
:1029800000000000000000000034004C004400443F
:10299000004C0034000400780040004000580064FF
:1029A0000044004400440044000000000010000007
:1029B0000070001000100010001000100000000057
:1029C0000010000000700010001000100010001037
:1029D000001000E00040004000480050006000503F
:1029E00000480044000000000070001000100010BB
:1029F0000010001000100010000000000000000097
:102A000000780054005400540054005400000000AA
:102A100000000000005800640044004400440044EA
:102A200000000000000000000038004400440044A2
:102A3000004400380000000000000000005800645E
:102A400000440044006400580040004000000000C2
:102A50000034004C00440044004C003400040004E6
:102A600000000000005800640040004000400040AA
:102A700000000000000000000038004400300008A2
:102A800000440038000000000020002000780020F2
:102A900000200020002000180000000000000000BE
:102AA0000044004400440044004C00340000000096
:102AB0000000000000440044002800280028001006
:102AC0000000000000000000005400540054006C9E
:102AD000002800280000000000000000004400283A
:102AE000001000100028004400000000000000005A
:102AF000004400440028002800100010001000606E
:102B000000000000007C0008001000200040007C55
:102B1000000000000018001000100010002000202D
:102B2000001000100010001800100010001000101D
:102B300000100010001000100010001000300010F5
:102B400000100010000800080010001000100030F5
:102B50000000000000000074004C000000000000B5
:102B60000000000000000000000000000000000065
:102B70000000000000000000000000000000000055
:102B800000000000000000000000000C000C000C21
:102B9000000C000C000C000C000C000C000C000CD5
:102BA0000000000C000C0000000000000000001BF2
:102BB000001B001B001B001B0000000000000000A9
:102BC0000000000000000000000000000000000005
:102BD00000008019801980198019C07FC07F80197A
:102BE0000033C07FC07F0033003300330033000068
:102BF000000000000000001E003F8075806500742A
:102C0000003C001E00078005806580658075003FE0
:102C1000001E0004000400000000007000D840D82E
:102C2000C0D880D900730006000C801BC036C06677
:102C3000C046C00680030000000000000000001E27
:102C4000003F003300330033001E000CC03CC06660
:102C5000806380618063C03E801C00000000000033
:102C60000000000C000C000C000C000C0000000028
:102C70000000000000000000000000000000000054
:102C800000000000800000010003000600060004B0
:102C9000000C000C000C000C000C000C00040006E2
:102CA0000006000300018000002000100018000C46
:102CB000000C0004000600060006000600060006E0
:102CC0000004000C000C0018001000200000000C94
:102CD000002D003F001E0033000000000000000037
:102CE00000000000000000000000000000000000E4
:102CF000000000000000000C000C000C000CC0FFE5
:102D0000C0FF000C000C000C000C000000000000D4
:102D100000000000000000000000000000000000B3
:102D20000000000000000000000000000000000C97
:102D3000000C000400040008000000000000000077
:102D400000000000000000000000001E001E000047
:102D50000000000000000000000000000000000073
:102D60000000000000000000000000000000000063
:102D7000000000000000000C000C0000000000003B
:102D80000000000300030003000600060006000622
:102D9000000C000C000C000C0018001800180000BB
:102DA000000000000000001E003F003380618061D1
:102DB0008061806D806D8061806180610033003F43
:102DC000001E00000000000000000006000E001EB3
:102DD0000036002600060006000600060006000673
:102DE0000006000600060000000000000000001EB3
:102DF000003F807380618061800100030006000C49
:102E0000001800300060807F807F0000000000001C
:102E10000000001C003E006300630003000E000E73
:102E200000038001800180618073003F001E00006C
:102E30000000000000000006000E000E001E001E34
:102E40000016003600360066807F807F0006000690
:102E500000060000000000000000007F007F00600E
:102E600000600060006E007F8063800180018061EF
:102E70008073003F001E0000000000000000001EE4
:102E8000003F803380610060006E007F807380614E
:102E9000806180618033003F001E00000000000060
:102EA0000000807F807F8001000300030006000691
:102EB000000C000C000C000800180018001800009E
:102EC000000000000000001E003F80638061806100
:102ED0000021001E003F8061806180618061003FB1
:102EE000001E0000000000000000001E003F0073F4
:102EF0008061806180618073803F801D800180617E
:102F00000073003F001E00000000000000000000F1
:102F1000000000000000000C000C00000000000099
:102F2000000000000000000C000C00000000000089
:102F3000000000000000000000000000000C000C79
:102F400000000000000000000000000C000C000465
:102F50000004000800000000000000008000800362
:102F6000000E003800600038000E80038000000072
:102F70000000000000000000000000000000000051
:102F80000000807F807F00000000807F807F000045
:102F90000000000000000000000000000000000031
:102FA0000000000000400070001C000780010007C6
:102FB000001C007000400000000000000000000045
:102FC0000000001F803FC071C060C000C0018003CE
:102FD0000007000E000C000C0000000C000C0000AC
:102FE000000000000000001E003F803180718063FF
:102FF000806F806D806D806F806700600032003E62
:10300000001C0000000000000000000E000E001B6D
:10301000001B001B001B80318031803F803F8031CE
:10302000C060C060C0600000000000000000007CC4
:10303000007E0063006300630063007E007E006327
:10304000806180618063007F007E000000000000DE
:103050000000001E003F8031806100600060006061
:1030600000600060006080618031003F001E000051
:10307000000000000000007C007F0063806380612E
:103080008061806180618061806100630063007E97
:10309000007C0000000000000000807F807F006056
:1030A000006000600060007F007F006000600060E2
:1030B0000060807F807F0000000000000000807FB3
:1030C000807F0060006000600060007F007F006023
:1030D0000060006000600060006000000000000010
:1030E0000000001E003F80318061006000600060D1
:1030F00080638063806180618031803F001E0000BA
:10310000000000000000806180618061806180615A
:103110008061807F807F806180618061806180616B
:1031200080610000000000000000003F003F000C34
:10313000000C000C000C000C000C000C000C000C2F
:10314000000C003F003F0000000000000000800174
:103150008001800180018001800180018001800167
:10316000806180618073003F001E0000000000004D
:103170000000C0608061006300660066006C00783B
:10318000007C00660066006380618061C0600000B2
:10319000000000000000006000600060006000604F
:1031A0000060006000600060006000600060807F80
:1031B000807F0000000000000000C071C071C07B73
:1031C000C07AC06AC06AC06EC064C060C060C060BF
:1031D000C060C060C060000000000000000080719E
:1031E0008071807980798079806D806D806D806557
:1031F0008067806780678063806300000000000054
:103200000000001E003F00338061806180618061AA
:1032100080618061806180610033003F001E00009A
:10322000000000000000007E007F806380618061FC
:1032300080618063007F007E00600060006000604D
:1032400000600000000000000000001E003F00338E
:10325000806180618061806180618061806580675C
:103260000033803F401E0000000000000000007E90
:10327000007F8063806180618063007F007E0066E4
:103280000063006380618061C06000000000000096
:103290000000000E001F8031803100300038001E19
:1032A00000078003806180618031003F001E0000C4
:1032B000000000000000C0FFC0FF000C000C000C6C
:1032C000000C000C000C000C000C000C000C000C9E
:1032D000000C00000000000000008061806180613F
:1032E00080618061806180618061806180618061D6
:1032F0008073003F001E0000000000000000C0605E
:10330000C060C060803180318031001B001B001B19
:10331000001B000E000E000E000400000000000064
:103320000000C0C0C0C0C0C0C0C0C0C0C0CC804CC5
:10333000804C805E8052805280738061806100008A
:10334000000000000000C0C0806080610033003BCE
:10335000001E000C000C001E001F003B80718061ED
:10336000C0C00000000000000000C0C0806180619B
:1033700000330033001E001E000C000C000C000C7B
:10338000000C000C000C0000000000000000803F5A
:10339000803F8001000300030006000C000C0018B1
:1033A000001800300060807F807F00000000000077
:1033B000000F000F000C000C000C000C000C000CA7
:1033C000000C000C000C000C000C000C000C000C9D
:1033D000000F000F0000001800180018000C000C6F
:1033E000000C000C000600060006000600030003A7
:1033F0000003000000000000001E001E0006000682
:10340000000600060006000600060006000600068C
:103410000006000600060006001E001E0000000C4C
:10342000000C001E00120033003380618061000038
:10343000000000000000000000000000000000008C
:10344000000000000000000000000000000000007C
:10345000000000000000000000000000000000006C
:10346000E0FF0000000000380018000C0000000021
:10347000000000000000000000000000000000004C
:10348000000000000000000000000000000000003C
:103490000000001F803F80618001801F803F8061AD
:1034A0008063807FC03800000000000000000060E2
:1034B000006000600060006E007F8073806180614A
:1034C000806180618073007F006E0000000000005A
:1034D00000000000000000000000001E003F80739C
:1034E00080610060006080618073003F001E00000A
:1034F0000000000000008001800180018001801D2B
:10350000803F807380618061806180618073803FD3
:10351000801D00000000000000000000000000000E
:103520000000001E003F00738061807F807F00608C
:103530008071003F001E0000000000000000C00776
:10354000C00F000C000C807F807F000C000C000C72
:10355000000C000C000C000C000C0000000000002F
:103560000000000000000000801D803F807380612B
:103570008061806180618073803F801D80018063F5
:10358000007F003E00000060006000600060006F8F
:10359000807F8071806180618061806180618061F5
:1035A000806100000000000000000006000600002E
:1035B0000000003E003E0006000600060006000671
:1035C00000060006000600000000000000060006DD
:1035D00000000000003E003E000600060006000657
:1035E000000600060006000600060046007E003CBD
:1035F00000000060006000600060806100630066A1
:10360000006C007C0076006300638061C060000095
:10361000000000000000003E003E0006000600061C
:10362000000600060006000600060006000600066A
:103630000006000000000000000000000000000084
:10364000000080DDC0FFC0CEC0CCC0CCC0CCC0CCA0
:10365000C0CCC0CCC0CC00000000000000000000C6
:10366000000000000000006F807F80718061806139
:1036700080618061806180618061000000000000E5
:1036800000000000000000000000001E003F8073EA
:1036900080618061806180618073003F001E000056
:1036A000000000000000000000000000006E007F2D
:1036B000807380618061806180618073007F006EB3
:1036C000006000600060006000000000000000007A
:1036D000801D803F80738061806180618061807324
:1036E000803F801D8001800180018001000000007A
:1036F0000000000000000067803F0039003000300B
:1037000000300030003000300030000000000000C9
:1037100000000000000000000000001E803F8061EB
:103720000060007F803F80018061007F001E0000FC
:103730000000000000000000000800180018007FD2
:10374000007F001800180018001800180018801FCB
:10375000800F0000000000000000000000000000DA
:103760000000806180618061806180618061806132
:103770008063807F803D00000000000000000000AA
:10378000000000000000C060803180318031001BEB
:10379000001B001B000E000E0006000000000000D1
:1037A0000000000000000000000080DD80DD80DD02
:1037B00000550055005500770077002200220000D8
:1037C0000000000000000000000000000000806118
:1037D00000330033001E000C000C001E00330033C9
:1037E00080610000000000000000000000000000F8
:1037F00080618061803100330033001B001B001B9F
:10380000000E000E000E001C007C00700000000086
:10381000000000000000C07FC07F800100030006A0
:10382000000C00180030C07FC07F000000000000C6
:103830008003800700060006000600060006000E52
:10384000001C001C000E0006000600060006000614
:10385000800780030006000600060006000600063A
:103860000006000600060006000600060006000628
:1038700000060006000600060038003C000C000CA4
:10388000000C000C000C000E00070007000E000CDE
:10389000000C000C000C000C003C00380000000084
:1038A000000000000000000000008038807F00471A
:1038B0000000000000000000000000000000000008
:1038C00000000000000000000000000000000000F8
:1038D00000000000000000000000000000000000E8
:1038E00000000000000000000000000000000000D8
:1038F00000000000E003E003E003E003E003E00376
:10390000E003E003C003C003C001C001C001C00167
:10391000C001000000000000E003E003E00300003D
:1039200000000000000000003C1E3C1E3C1E3C1E2F
:103930003C1E3C1E3C1E0000000000000000000079
:103940000000000000000000000000000000000077
:10395000000000000000000000000000CE01CE03C7
:10396000DE039E039C039C07FF3FFF7F3807380F51
:10397000780F780F780EFFFFFFFFF01EF01CE01CA1
:10398000E03CE03DE03900000000000000000000E5
:10399000FC03FE0FEE1FE01EE01EE01EE01EE01F17
:1039A000E00FE007F003FC01FE01FE01FE01FE0155
:1039B000FE01FE01FE3DFC3FF00FE001E0010000D2
:1039C00000000000033E07F78FE78EE79EE3BCE3AD
:1039D000B8E7F8E7F0F7E03FC001FF03FF07F307A0
:1039E000F30FF31EF33CF338F3787FF03FE0000071
:1039F0000000000000000000E007F80F780F781FBB
:103A0000781F781F780FF00FE00F801FC37FC3FB74
:103A1000E7F3F7F1F7F0FFF07FF03EF87F7CFF3F30
:103A2000EF1F00000000000000000000E003E003C2
:103A3000E003E003E003C003C00100000000000059
:103A40000000000000000000000000000000000076
:103A50000000000000000000000000000000000066
:103A60003F007C00F001E001C003C0078007800731
:103A7000800F000F000F000F000F000F000F800FCE
:103A800080078007C007C003E001F0017C003F0011
:103A90000F000000007E001FC007C003E001F0011E
:103AA000F000F000F80078007800780078007800E6
:103AB0007800F800F000F000F001E001C003C0075A
:103AC000001F007E00780000E003C003C001CE3973
:103AD000FF3F7F3F20037003F807780F3C1F380635
:103AE00000000000000000000000000000000000D6
:103AF00000000000000000000000000000000000C6
:103B00000000000000000000C001C001C001C001B1
:103B1000C001C001C001FFFFFFFFC001C001C00123
:103B2000C001C001C0010000000000000000000052
:103B30000000000000000000000000000000000085
:103B40000000000000000000000000000000000075
:103B50000000E003E003E003E003E001E001E00136
:103B6000C001800300000000000000000000000011
:103B700000000000000000000000FE3FFE3F0000CB
:103B80000000000000000000000000000000000035
:103B90000000000000000000000000000000000025
:103BA0000000000000000000000000000000000015
:103BB00000000000000000000000E003E003E0035C
:103BC000E003000000000000000000000F000F00F4
:103BD0001E001E003C003C0078007800F000F00061
:103BE000E001E001C003C00380078007000F000F61
:103BF000001E001E003C003C0078007800F0000031
:103C0000F007F80F7C1F3E3E1E3C1F7C1F7C0F7888
:103C10000F780F780F780F780F780F781F7C1F7C44
:103C20001E3C3E3E7C1FF80FF00700000000000025
:103C300000000000F000F007F03FF03FF001F0015D
:103C4000F001F001F001F001F001F001F001F001EC
:103C5000F001F001F001F001F001FF3FFF3F000033
:103C60000000000000000000E00FF83F7C3C3C003A
:103C70003E003E003E003C003C007C00F800F001AD
:103C8000E003C0078007000F001E003E003CFE3F1F
:103C9000FE3F00000000000000000000F00FF81FD1
:103CA0007C1C3E003E003E003C003C00F800F00F53
:103CB000F80F7C003E001E001E001E001E003E008D
:103CC0007C1CF81FE01F0000000000000000000046
:103CD0007800F800F800F801F803F807F807780F03
:103CE000781E781E783C78787878FFFFFFFF7800A0
:103CF000780078007800780078000000000000006C
:103D000000000000FC1FFC1FFC1F001E001E001E08
:103D1000001E001EE01FF81FFC007C003E003E005D
:103D20001E003E003E003C007C1CF81FE01F00000F
:103D30000000000000000000FC01FE078E0F001FC5
:103D4000001E003E003C003CF83DFC3F3E7F1F7ED5
:103D50000F3C0F3C0F3C0F3C0F3E1F1E3E1FFC0F45
:103D6000F00300000000000000000000FF3FFF3FE4
:103D7000FF3F0F001E001E003C0038007800F000DE
:103D8000F000E001E001C003C0038007800F800F56
:103D9000000F001F001F00000000000000000000D6
:103DA000F807FC0F3E1F1E1E1E3E1E3E1E1E3C1F21
:103DB000F80FF007F80FFC1E3E3E1F3C1F7C0F7CE7
:103DC0000F7C1F3C3E3FFC1FF0070000000000007E
:103DD00000000000F007F80F7C1E3E3C1E3C1F7CDC
:103DE0001F7C1F7C1F7C1F3C3F3EFF1FEF071F00F7
:103DF0001E001E003E003C00F838F03FE01F0000AF
:103E000000000000000000000000000000000000B2
:103E100000000000E003E003E003E0030000000016
:103E200000000000000000000000E003E003E003E9
:103E3000E00300000000000000000000000000009F
:103E40000000000000000000E003E003E003E003E6
:103E50000000000000000000000000000000E0037F
:103E6000E003E003E003E001E001E001C0038003C0
:103E700000000000000000000000000003000F0030
:103E80003F00FC00F003C00F003F00FE003FC00FEA
:103E9000F003FC003F000F000300000000000000E2
:103EA0000000000000000000000000000000000012
:103EB0000000000000000000FFFFFFFF0000000006
:103EC0000000FFFFFFFF00000000000000000000F6
:103ED00000000000000000000000000000000000E2
:103EE0000000000000E000F8007E801FE007F801FD
:103EF0007E001F007E00F801E007801F007E00F8B2
:103F000000E000000000000000000000F01FFC3F87
:103F10003E381F381F381E001E003C007800F0009D
:103F2000E001C003C003C007C0070000000000009C
:103F3000C007C007C007000000000000000000002C
:103F4000F803FE0F1E1F0F3E7F3CFF78EF79C7730B
:103F5000C7F38FF38FF38FF39FF39FF3FF73FF7B11
:103F6000F779003C1C1FFC0FF80300000000000064
:103F700000000000000000000000E003E003F00784
:103F8000F007F007780F780F7C0E3C1E3C1E3E3C7D
:103F9000FE3FFF3F1F780F780FF007F007F000009B
:103FA0000000000000000000000000000000F83FDA
:103FB000FC3F3E3C1E3C1E3C1E3C3E3C7C3CF03FDD
:103FC000F83F7E3C1F3C1F3C0F3C0F3C1F3CFE3F1C
:103FD000F83F0000000000000000000000000000AA
:103FE0000000FF01FF07871F003E003C007C0078B7
:103FF0000078007800780078007C007C003E003F6C
:10400000831FFF07FF010000000000000000000008
:10401000000000000000F07FFC7F7E781F781F7892
:104020000F780F780F780F780F780F780F780F7858
:104030001F781E787E78F87FE07F00000000000087
:1040400000000000000000000000FF3FFF3F003EB6
:10405000003E003E003E003E003EFE3FFE3F003E72
:10406000003E003E003E003E003EFF3FFF3F00009E
:104070000000000000000000000000000000FF1F22
:10408000FF1F001E001E001E001E001E001EFF1F40
:10409000FF1F001E001E001E001E001E001E001E30
:1040A000001E0000000000000000000000000000F2
:1040B0000000FE03FF0F871F003E007C007C00789D
:1040C00000F800F87FF87FF80F780F7C0F7C0F3E28
:1040D0008F1FFF0FFE030000000000000000000023
:1040E0000000000000001F7C1F7C1F7C1F7C1F7CC9
:1040F0001F7C1F7C1F7CFF7FFF7F1F7C1F7C1F7C22
:104100001F7C1F7C1F7C1F7C1F7C000000000000A8
:1041100000000000000000000000FF3FFF3FE00340
:10412000E003E003E003E003E003E003E003E00377
:10413000E003E003E003E003E003FF3FFF3F000094
:104140000000000000000000000000000000FC1F54
:10415000FC1F7C007C007C007C007C007C007C00E0
:104160007C007C007C007C0078007800F838F03F10
:10417000C03F000000000000000000000000000040
:1041800000001F3C1E3C3C3C783CF03CE03DE03FE6
:10419000C03F803FC03FE03FF03DF03C783C7C3C7E
:1041A0003E3C1F3C0F3C00000000000000000000EF
:1041B000000000000000003E003E003E003E003EC9
:1041C000003E003E003E003E003E003E003E003EFF
:1041D000003E003E003EFF3FFF3F000000000000A9
:1041E000000000000000000000001FF81FFC1FFC82
:1041F0003FFE3FFE3FFE7FFF77FF77FFF7F7E7F7D2
:10420000E7F3E7F3C7F307F007F007F007F0000064
:1042100000000000000000000000000000000F7C13
:104220000F7C0F7E0F7F0F7F8F7F8F7FCF7FEF7B86
:10423000EF79FF79FF78FF787F783F783F781F78B4
:104240001F780000000000000000000000000000D7
:104250000000F007FC1F3E3E1F7C0F780F780FF820
:104260000FF80FF80FF80FF80FF80F780F781F7C82
:104270003E3EFC1FF00700000000000000000000B0
:10428000000000000000FC3FFF3F1F3E0F3E0F3EBE
:104290000F3E0F3E1F3E3F3EFC3FF03F003E003EC4
:1042A000003E003E003E003E003E000000000000D8
:1042B00000000000000000000000F007FC1F3E3E70
:1042C0001F7C0F780F780FF80FF80FF80FF80FF822
:1042D0000FF80F780F781F7C3E3EFC1FF8077C001C
:1042E0003F000F0003000000000000000000F03F4E
:1042F000FC3F7E3C3E3C1E3C1E3C3E3C3C3CFC3C71
:10430000F03FE03FF03DF83C7C3C3E3C1E3C1F3C17
:104310000F3C000000000000000000000000000052
:104320000000FC07FE1F0E3E003C003C003C003E2F
:10433000C01FF80FFE037F001F000F000F001F209B
:104340003E3CFC3FF01F00000000000000000000A9
:10435000000000000000FFFFFFFFE003E003E003B8
:10436000E003E003E003E003E003E003E003E00335
:10437000E003E003E003E003E003000000000000CE
:10438000000000000000000000000F7C0F7C0F7C8C
:104390000F7C0F7C0F7C0F7C0F7C0F7C0F7C0F7CC5
:1043A0000F7C0F7C1E3C1E3C3E3EFC1FF0070000B5
:1043B000000000000000000000000000000007F006
:1043C00007F007F80F780F7C1E3C1E3C1E3E3C1E7B
:1043D0003C1F781F780FF80FF007F007F007E00395
:1043E000E0030000000000000000000000000000EA
:1043F000000003E003F003F007F0E7F3E7F3E7F36F
:10440000E773F77BF77FFF7F7F7F7F7F7E7F7E3F36
:104410003E3E3E3E3E3E0000000000000000000028
:1044200000000000000007F80F7C1E3E3E3E3C1FCF
:10443000F80FF007E007E003E003F007F80F7C0F48
:104440007C1E3E3C1F780F780FF00000000000003B
:104450000000000000000000000007F807780F7C53
:104460001E3C1E3E3C1F780FF80FF007E003E003F0
:10447000E003E003E003E003E003E003E003000007
:104480000000000000000000000000000000FF7FAE
:10449000FF7F0F001F003E007C00F800F000E001ED
:1044A000E003C007800F000F001E003E007CFF7F6E
:1044B000FF7F00000000000000000000FF078007F1
:1044C00080078007800780078007800780078007B4
:1044D00080078007800780078007800780078007A4
:1044E00080078007800780078007FF07FF0700001D
:1044F00000780078003C003C001E001E000F000FFA
:1045000080078007C003C003E001E001F000F00075
:10451000780078003C003C001E001E000F000F00D9
:1045200007000000F07FF000F000F000F000F00065
:10453000F000F000F000F000F000F000F000F000FB
:10454000F000F000F000F000F000F000F000F000EB
:10455000F000F07FF07F0000C000C001C001E00368
:10456000E003F007F0077807780F380F3C1E3C1E79
:104570001E3C1E3C0F380F7807780000000000003A
:10458000000000000000000000000000000000002B
:10459000000000000000000000000000000000001B
:1045A000000000000000000000000000000000000B
:1045B000000000000000FFFFFFFF000000000000FF
:1045C000F0000000000000000000000000000000FB
:1045D00000000000000000000000000000000000DB
:1045E00000000000000000000000000000000000CB
:1045F00000000000000000000000000000000000BB
:10460000F80FFC3F7C3C3E003E003E00FE07FE1FD4
:104610003E3E3E7C3E783E7C7E7CFF3FCF1F0000CE
:104620000000000000000000003C003C003C003C9A
:10463000003C003CF83DFE3F3E3F1F3E0F3C0F3C20
:104640000F3C0F3C0F3C0F3C1F3C1E3C3E3FFC3FD1
:10465000F03B00000000000000000000000000002F
:104660000000000000000000FE03FF0F871F003E57
:10467000003E003C007C007C007C003C003E003E94
:10468000871FFF0FFE030000000000000000000075
:104690001F001F001F001F001F001F00FF07FF1F3C
:1046A0003F3E1F3C1F7C1F7C1F7C1F781F781F7C98
:1046B0001F7C3F3C7F3EFF1FDF0F0000000000001B
:1046C00000000000000000000000000000000000EA
:1046D000F803FC0F3E1F1E3E1F3C1F7CFF7FFF7F29
:1046E000007C007C003C003E071FFF0FFE03000023
:1046F0000000000000000000FF01E103C003C0074C
:10470000C007C007FF7FFF7FC007C007C007C00703
:10471000C007C007C007C007C007C007C007C00761
:10472000C0070000000000000000000000000000C2
:104730000000000000000000EF07FF1F7F3E1F3C4D
:104740001F7C1F7C1F781F781F781F7C1F7C3F3CBD
:104750007F3EFF1FDF0F1E001E001E007C38F83F4B
:10476000003C003C003C003C003C003CFC3DFE3F6B
:104770009E3F1F3F1F3E1F3C1F3C1F3C1F3C1F3CDA
:104780001F3C1F3C1F3C1F3C1F3C00000000000062
:1047900000000000F001F001000000000000000037
:1047A000E07FE07FE001E001E001E001E001E00105
:1047B000E001E001E001E001E001E001E0010000D2
:1047C0000000000000000000F800F80000000000F9
:1047D00000000000F83FF83FF800F800F800F8008B
:1047E000F800F800F800F800F800F800F800F80009
:1047F000F800F800F800F000F071E07F003C003CA9
:10480000003C003C003C003C1F3C3E3C7C3CF83CF7
:10481000F03DE03DC03FC03FE03FF03DF83C7C3C18
:104820003E3C1F3C1F3C0000000000000000000058
:10483000F07FF001F001F001F001F001F001F00172
:10484000F001F001F001F001F001F001F001F001E0
:10485000F001F001F001F001F001000000000000A3
:104860000000000000000000000000000000000048
:104870009EF7FFFFFFFFFFFFE7FBE7F9C7F1C7F177
:10488000C7F1C7F1C7F1C7F1C7F1C7F1C7F1000020
:104890000000000000000000000000000000000018
:1048A00000000000FC3DFE3F9E3F1F3F1F3E1F3C9F
:1048B0001F3C1F3C1F3C1F3C1F3C1F3C1F3C1F3C20
:1048C0001F3C00000000000000000000000000008D
:1048D0000000000000000000F007FC1F3E3E1F3CEF
:1048E0001F7C0F780F780F780F780F781F7C1F3C94
:1048F0003E3EFC1FF007000000000000000000002A
:10490000000000000000000000000000F83DFE3F35
:104910003E3F1F3E0F3C0F3C0F3C0F3C0F3C0F3CFB
:104920001F3C1E3E3E3FFC3FF83F003C003C003C2D
:10493000003C003C000000000000000000000000FF
:10494000EE07FE1F7E3E1E3C1E7C1E781E781E78E3
:104950001E781E781E7C3E7C7E3EFE1FDE0F1E00F3
:104960001E001E001E001E000000000000000000CF
:10497000000000007F1FFF1FE71FC71F871F001FCA
:10498000001F001F001F001F001F001F001F001F2F
:10499000001F0000000000000000000000000000F8
:1049A0000000000000000000FC07FE1F0E1E003E7D
:1049B000003E003FE01FFC07FE003E001E001E0000
:1049C0003E3CFC3FF01F0000000000000000000023
:1049D000000000000000800780078007FF7FFF7F46
:1049E000800780078007800780078007800780078F
:1049F00080078007C007FF03FF01000000000000E0
:104A000000000000000000000000000000000000A6
:104A10001E3C1E3C1E3C1E3C1E3C1E3C1E3C1E3CC6
:104A20001E3C1E3C3E3C7E3CFE3EFE1FDE0F000058
:104A30000000000000000000000000000000000076
:104A40000000000007F00F780F781E3C1E3C1E3E51
:104A50003C1E3C1E780F780FF00FF007F007E003C4
:104A6000E003000000000000000000000000000063
:104A7000000000000000000003F0E3F1E3F3E7F3BF
:104A8000F7F3F7F3F77F777F7F7F7F7F7F7F3E3E70
:104A90003E3E3E3E3E3E00000000000000000000A2
:104AA0000000000000000000000000000F7C1E3E1F
:104AB0003C3E3C1FF80FF007F007E003F007F80753
:104AC000F80F7C1E3E3E1F3C1F78000000000000D7
:104AD00000000000000000000000000000000000D6
:104AE00007F80F780F7C1E3C1E3C3C1E3C1E3C1FF2
:104AF000780FF80FF007F007E003E003C003C003EE
:104B0000C0038007800F007F00000000000000004D
:104B100000000000FF3FFF3F1F003E007C00F80048
:104B2000F001E003C007800F001F001E003CFF7F64
:104B3000FF7F00000000000000000000FE01E00315
:104B4000C003C003C003C003E001E001E001C001F5
:104B5000C003803F803FC003C001E001E001E001ED
:104B6000C003C003C003C003E003FE017E000000D9
:104B7000C001C001C001C001C001C001C001C0012D
:104B8000C001C001C001C001C001C001C001C0011D
:104B9000C001C001C001C001C001C001C001C0010D
:104BA000C0010000C03FE003E001E001E001E001DE
:104BB000C001C003C003C001E001FE00FE00E0012F
:104BC000C001C003C003C001E001E001E001E00159
:104BD000E003C03F003F00000000000000000000B4
:104BE0000000000000000000000000000000073F7F
:104BF000C77FE773FFF17EF00000000000000000B7
:104C000000000000000000000000000000000000A4
:104C1000000000000102030406070809000000006C
:104C20000102030446524944415900004D4F4E448D
:104C30004159000053554E444159000053415254CC
:104C400055524441590000005745444E4553444194
:104C50005900000054554553444159005448555299
:104C60005344415900000000884C00080000002017
:104C70005000000028010008D84C00085000002017
:104C8000B807000044010008070A0000F8230008E4
:104C90000B120000642B0008101A0000C038000836
:104CA0000000000000000000000000002C4C000884
:104CB000544C0008484C00085C4C0008244C000888
:104CC0003C4C0008344C00080100000010000000BB
:084CD000000000000024F400C4
:04000005080000ED02
:00000001FF
