:020000040800F2
:100000001007002089010008C3150008A711000887
:10001000C11500088F020008F71600080000000054
:10002000000000000000000000000000C7150008EC
:100030009102000800000000C5150008C91500085D
:10004000A3010008A3010008A3010008A301000800
:10005000A3010008A3010008A3010008A3010008F0
:10006000A3010008A3010008A3010008A3010008E0
:10007000A3010008A3010008A3010008A3010008D0
:10008000A3010008A3010008A3010008A3010008C0
:10009000A3010008A3010008A3010008A3010008B0
:1000A000A3010008A3010008A3010008A3010008A0
:1000B000A3010008A3010008A3010008A301000890
:1000C000A3010008A3010008A3010008A301000880
:1000D000A3010008A3010008A3010008A301000870
:1000E000A3010008A3010008A301000800F002F822
:1000F00000F03AF80AA090E8000C82448344AAF188
:100100000107DA4501D100F02FF8AFF2090EBAE885
:100110000F0013F0010F18BFFB1A43F0010318473B
:10012000CC160000EC160000103A24BF78C878C145
:10013000FAD8520724BF30C830C144BF04680C60ED
:10014000704700000023002400250026103A28BF35
:1001500078C1FBD8520728BF30C148BF0B60704739
:100160001FB51FBD10B510BD00F058F81146FFF7C0
:10017000F7FF01F0D1FA00F076F803B4FFF7F2FFD1
:1001800003BC00F07DF8000009488047094800479B
:10019000FEE7FEE7FEE7FEE7FEE7FEE7FEE7FEE737
:1001A000FEE7FEE704480549054A064B7047000094
:1001B0001D160008ED0000081001002010070020A7
:1001C00010030020100300204FF0000200B513467A
:1001D00094469646203922BFA0E80C50A0E80C5067
:1001E000B1F12001BFF4F7AF090728BFA0E80C5018
:1001F00048BF0CC05DF804EB890028BF40F8042B11
:1002000008BF704748BF20F8022B11F0804F18BF7D
:1002100000F8012B7047704770477047754600F033
:100220002BF8AE4605006946534620F00700854688
:1002300018B020B5FFF7B6FFBDE820404FF000062C
:100240004FF000074FF000084FF0000B21F00701BE
:10025000AC46ACE8C009ACE8C009ACE8C009ACE801
:10026000C0098D46704710B50446AFF300802046A4
:10027000BDE81040FFF781BF00487047AC00002088
:1002800001491820ABBEFEE7260002007047FEE7DA
:10029000704700002DE9F84FDFF8B891002409F10C
:1002A000040A0AF1040B23460F270BF1040EC9E0E0
:1002B0000125A5402A40AA427DD1674ED1F804C04D
:1002C000ACEB0608B44532D014DCBCF1030F3AD0D5
:1002D00009DCBCF1000F2AD0BCF1010F1CD0BCF12D
:1002E000020F31D11DE0BCF1110F17D0BCF1120F7C
:1002F0002AD119E0B8F5881F19D006DCB8F5803F7F
:1003000015D0B8F5801F1FD111E0B8F5001F0ED031
:10031000B8F5041F18D10AE0CB6815E0CB681B1DA7
:1003200012E0CB6808330FE0CB680C330CE08B682D
:100330002BB1012B4FF0080303D0456104E00423E7
:1003400002E0056100E00023FF2A01D8064601E033
:1003500000F104064FEA840501D9A5F12005D6F87D
:10036000008007FA05FC28EA0C0803FA05F548EABC
:100370000508C6F800804D68ED0062D5374DAE69BE
:1003800046F00106AE61AD6924F0030605F00105F3
:100390000095334D06EB050CDCF80850A607360F28
:1003A00007FA06F825EA0805DFF8B880404503D1CA
:1003B0004FF0000817E044E0DFF8AC80404502D180
:1003C0004FF001080FE0DFF8A480404502D14FF064
:1003D000020808E0DFF89880404502D14FF003089A
:1003E00001E04FF0040808FA06F848EA0508CCF8DE
:1003F00008804D68D9F80060ED034D4601D51643DD
:1004000000E096432E604D68DAF80060AD03554673
:1004100001D5164300E096432E604D68DBF800607E
:10042000ED025D4601D5164300E096432E604D680F
:10043000DEF80060AD02754601D5164300E0964334
:100440002E60641C0D682A46E5407FF431AFBDE89C
:10045000F88F00000004014000001110001002405D
:100460000000014000080140000C01400010014064
:10047000001401400AB1016170470904FBE7000064
:1004800001488068704700000000002070B504003B
:1004900025D094F83D00002520B984F83C50204632
:1004A00000F070FA242084F83D002068016821F0F3
:1004B000010101602068016841F400410160206889
:1004C000016821F40041016000F0A4FB4D4A61681D
:1004D000914201D84C4900E04C49884201D20120A8
:1004E00070BD4B492368B0FBF1F15E6826F03F0612
:1004F0000E435E606368934206D94FF49673594386
:100500004FF47A73B1FBF3F12368491C1E6A26F09D
:100510003F06314319626168914210D84900401E7C
:10052000B0FBF1F2521CC2F30B02042A01D20420E8
:1005300022E0B0FBF1F0401CC0F30B001CE0A2680D
:10054000F2B301EBC10303EB0116431EB3FBF6F359
:100550005B1C43F480431B0549D092B301EBC102FD
:1005600002EB0111401EB0FBF1F0401CC0F30B0088
:1005700040F4804040F400402168CA694CF6FF73A3
:100580009A431043C861D4E9071001432068026808
:1005900022F0C00211430160D4E903010143206845
:1005A000826848F2FF339A4311438160D4E9050120
:1005B00008432168CA6822F0FF021043C86001E0C6
:1005C0000EE016E02068016841F001010160256439
:1005D000202084F83D00256384F83E50002070BD43
:1005E00001EB4106431EB3FBF6F35B1CB3E70120AE
:1005F000C2E701EB4101401EB0FBF1F0401CC0F32B
:100600000B00B7E7A086010080841E0000093D00B2
:1006100040420F002DE9F84F0025DDF8289098465C
:1006200017468A4604460095FFF72AFF064694F8C7
:100630003D0020287AD119230122834920460096C3
:1006400000F0B4FE0028F5D194F83C0001286DD0EC
:10065000012084F83C0020680168C90703D10168C3
:1006600041F0010101602068016821F4006101602E
:10067000222084F83D00102084F83E002564676243
:10068000A4F82A80608D20857048E06233464A468F
:100690005146204600F0A0FD00287DD1208DDFF8D6
:1006A000B081202768B1012814D002282068016891
:1006B0001ED041F48061016020684169806900902A
:1006C000B5E02068416981690091016841F40071D9
:1006D0000160ACE02068016821F48061016072B6BD
:1006E0002068416981690091016841F400710AE064
:1006F00041F40061016072B620684169816900912E
:10070000016821F48061016062B690E0032868D836
:1007100001280CD002284B464FF0000241462046EB
:1007200000960FD000F042FEB0BB10E08AE03246E7
:100730004946204600F0B9FE70BB20680069616A36
:1007400008706BE000F032FE30BB72B634E0206817
:10075000016821F48061016072B620680069616AF5
:100760000870606A401C6062208D401E2085608D8C
:10077000401E6085374846F2A8110068B0FBF1F0D2
:10078000C0EBC00000EB80000090401E009008D03D
:1007900020684069C04300E029E040070CD500987C
:1007A000F3E744F8305F6773A573206940F02000D9
:1007B000206162B625731AE02068016841F4007177
:1007C000016020680069616A0870606A401C6062AC
:1007D000218D491E2185618D491E618562B6216882
:1007E0001AE032464946204600F05FFE10B1012073
:1007F000BDE8F88F20680069616A0870606A401C73
:100800006062218D491E2185618D491E61852168A7
:100810004A69D24352070AD409690170606A401CD0
:100820006062208D401E2085608D401E6085208D79
:1008300000287FF46BAF84F83D7084F83E5084F854
:100840003C50D5E70220D3E7020010000000FFFF74
:10085000040001000C0000202DE9F84F1F469046CF
:100860008A460446DDF82890FFF70AFE054694F80C
:100870003D0020287FD119230122404920460095C0
:1008800000F094FD002876D194F83C00012872D045
:10089000012084F83C0020680168C90703D1016881
:1008A00041F0010101602068016821F400610160EC
:1008B000212084F83D00102084F83E0000262664A4
:1008C000C4F824806785608D20852D48E0622B4622
:1008D0004A465146204600F0F5FC90B9206841692F
:1008E0008069009036E02A464946204600F010FE16
:1008F00050B1206C042804D12068016841F40071D3
:1009000001600120BDE8F88F606A21680078086105
:10091000606A401C6062618D491E6185218D491E9F
:1009200089B2218522685369DB435B070BD451B13F
:1009300000781061606A401C6062608D401E6085B6
:10094000208D401E20852A464946204600F008FD9D
:100950000028CED1208D0028C5D154F83D0B016868
:1009600041F400710160202004F81E09E6776677E3
:100970000020C7E7FFE70220C4E7000002001000E4
:100980000000FFFF10B586B0002100910191029197
:1009900003910068104988421BD1104CA06940F0B7
:1009A0000800A061A069694600F0080004904FF4B7
:1009B0004060009012200190032003900848FFF748
:1009C00069FCE06940F48000E061E06900F48000C7
:1009D000049006B010BD0000005800400010024016
:1009E000000C014002488168027811448160704720
:1009F00000000020074810B5016841F010010160B7
:100A0000032000F05FF80F2000F006F800F024F853
:100A1000002010BD0020024070B50D4D04464FF47B
:100A20007A712878B1FBF0F00A490968B1FBF0F05F
:100A300000F0C6FA48B9102C07D200222146501EF9
:100A400000F020F800206C6070BD012070BD000037
:100A5000000000200C000020094808B5816941F021
:100A600001018161816901F001010091C16941F0D9
:100A70008051C161C06900F08050009008BD000045
:100A800000100240F0B40E4B1B680C46C3F3022367
:100A9000C3F10705042D00D90425191D072901D22A
:100AA000002300E0DB1E012606FA05F1491E214065
:100AB00099409E40761E16403143F0BC00F01CBEAB
:100AC0000CED00E0064900F0070208684FF6FF034E
:100AD000184040EA0220034A1043086070470000B3
:100AE0000CED00E00000FA052DE9F0470F46050087
:100AF00061D0434E306800F00700B84209D2306838
:100B000020F0070038433060306800F00700B8423A
:100B100051D128683B4C810712D5400703D5606846
:100B200040F4E06060602878000703D5606840F416
:100B3000605060606068A96820F0F0000843606061
:100B40002878C00728D06868012810D021680228BA
:100B500010D0890700292EDA616821F003010143D2
:100B60006160FFF78DFC804641F288390DE0216815
:100B70008903EFE78901EDE7FFF782FCA0EB0801AD
:100B8000494502D90320BDE8F0876068696800F034
:100B90000C00B0EB810FEFD1306800F00700B842D5
:100BA0000BD9306820F0070038433060306800F01F
:100BB0000700B84201D00120E5E72878400705D5B5
:100BC0006068E96820F4E060084360602878000706
:100BD00006D56068296920F4605040EAC100606071
:100BE00000F028F86168084AC1F30311515CC8405D
:100BF0000649086006480068FFF70EFF0020C2E7BC
:100C00000020024000100240D41700080C00002011
:100C1000040000200448054900684968044AC1F3FB
:100C20000221515CC84070470C00002000100240B7
:100C3000E417000812A185B00FC98DE80F0014A0B9
:100C4000144A006804905168134801F00C03042B07
:100C500010D0082B0ED1C1F38343C9031DF8030044
:100C60000AD5516804AAC1F34041515C0A4A504375
:100C7000B0FBF1F005B0704708494843FAE70000BF
:100C800002030405060708090A0B0C0D0E0F1010CD
:100C9000010200000010024000127A0000093D002D
:100CA0002DE9F84F040070D02078C04DC00749D01E
:100CB0006868C0F38100012807D06868C0F381002C
:100CC000022809D16868C00306D52868800339D591
:100CD00060680028E7D035E06068B0F5803F0BD051
:100CE00010B1B0F5A02F11D0286820F48030286012
:100CF000286820F4802002E0286840F480302860D2
:100D0000606890B1FFF7BCFB06460AE0286840F433
:100D100080202860F0E700BFFFF7B2FB801B64284B
:100D200073D828688003F7D50CE0FFF7A9FB0646C7
:100D300005E000BFFFF7A4FB801B6428F0D82868FB
:100D40008003F7D420789A4E80074FF001094FF0C6
:100D5000000839D5686810F00C0F07D06868C0F338
:100D60008100022809D16868C00306D4286880077A
:100D700014D52069012808D110E02069B0B1C6F867
:100D80000090FFF77DFB074605E00AE1FFF778FBDF
:100D9000C01B0228C4D828688007F7D52868616975
:100DA00020F0F80040EAC10028600DE0C6F800809D
:100DB000FFF766FB074604E0FFF762FBC01B022853
:100DC00023D828688007F7D4207800072CD57948E5
:100DD000A169D9B1C0F80090FFF752FB074604E0C3
:100DE000FFF74EFBC01B02280FD8686A8007F7D5B3
:100DF00071484FF4FA510068B0FBF1F0009000BF69
:100E00000098411E0091FAD20EE080E0C0F8008008
:100E1000FFF736FB074604E0FFF732FBC01B022852
:100E200075D8686A8007F7D42078400760D5E869EC
:100E30000027C00008D4E86940F08050E861E86904
:100E4000012700F0805000905C480168C90513D468
:100E50000168834641F480710160FFF711FB82460F
:100E600006E000BFFFF70CFBA0EB0A0064284ED899
:100E7000DBF80000C005F5D5E06801280AD008B10C
:100E8000052813D0286A20F001002862286A20F083
:100E9000040002E0286A40F001002862E06841F2A4
:100EA000883B98B1FFF7ECFA82460BE0286A40F0E5
:100EB00004002862EEE700BFFFF7E2FAA0EB0A01A8
:100EC00059455AD8286A8007F6D50CE0FFF7D8FABA
:100ED000824605E0FFF7D4FAA0EB0A0159454CD849
:100EE000286A8007F6D41FB1E86920F08050E861D5
:100EF000E06988B36968C1F38101022944D00228FE
:100F0000C6F8608004D0FFF7BBFA044638E034E04E
:100F1000FFF7B6FA074604E0FFF7B2FAC01B022853
:100F20002BD828688001F7D4206AB0F5803F05D11E
:100F30006868A16820F4003008436860D4E90801BB
:100F40000843696821F4741108436860C6F860902A
:100F5000FFF796FA044606E025E000BFFFF790FA97
:100F6000001B022809D828688001F7D51BE000BFC4
:100F7000FFF786FA001B022802D90320BDE8F88F8C
:100F800028688001F4D40EE00128F7D06868226A4E
:100F900000F48031914204D1616A00F470108842FB
:100FA00001D00120EAE70020E8E70000001002403D
:100FB00000004242800442420C00002000700040C9
:100FC00010B5401EB0F1807F01D3012010BD4FF05D
:100FD000E02460610F21601700F08EFB0020A0610B
:100FE00007202061002010BD70B590F83C20012A38
:100FF00026D0012480F83C40022280F83D2003687E
:101000005A689D6822F070060A6832435A600D4B98
:1010100002689A4208D0B2F1804F05D00A4B9A423A
:1010200002D00A4B9A4204D1496825F08003194343
:10103000916080F83D40002180F83C10084670BD6A
:10104000022070BD002C0140000400400008004058
:1010500010B5040003D094F83D0010B107E0012062
:1010600010BD002084F83C00204600F01FF802204C
:1010700084F83D00211D206800F0D2FA012084F898
:10108000460084F83E0084F83F0084F8400084F86D
:10109000410084F8420084F8430084F8440084F856
:1010A000450084F83D00002010BD000008B5006830
:1010B000B0F1804F08D10548C16941F00101C1611B
:1010C000C06900F00100009008BD0000001002405F
:1010D00070B5044690F83C00012817D0012584F82B
:1010E0003C50022084F83D002068826822F077029C
:1010F00022F47F4282600868502830D00DDC20281E
:101100004DD005DC98B310283BD148E0022070BDDB
:10111000302844D0402834D139E0602828D07028C5
:1011200006D0B0F5805F2CD0B0F5005F29D10AE081
:10113000CB68D1E90121206800F0A8FA2068816815
:1011400041F0770109E0CB68D1E90121206800F086
:101150009DFA2068816841F48041816011E0CA688D
:101160004968206800F0A4FA5021206807E016E0E2
:10117000CA684968206800F0ACFA6021206800F075
:101180008FFA84F83D50002084F83C0070BDCA6896
:101190004968206800F08CFA40212068EFE7226857
:1011A00001461046EBE7FEE701684A69D243520563
:1011B0000FD46FF480624A61002140F8301F202272
:1011C00042738173026942F00402026101730120DB
:1011D00070470020704700002DE9F84F0446C06AB0
:1011E0001E4693460D4621680A6842F480620A60F2
:1011F000082807D0012805D010F5803F02D0206BC9
:10120000112804D12068016841F4807101604FF019
:1012100001195B46002249462046009600F0C6F8B8
:101220004FF4007840B120680068C00501D5C4F8CB
:1012300040800320BDE8F88F2069DFF884A0B0F576
:10124000804F0FD00620216800EAD51747F0F00044
:10125000086133465A460AF10601204600F0DAF8E2
:1012600058BB03E0E8B240F001001CE02168E8B29E
:10127000086133465A465146204600F0CBF8E0B9A3
:101280002068416981690091016841F480710160C1
:101290005B46002249462046009600F087F8002869
:1012A000C1D147F0F1002168086133465A465146E2
:1012B000204600F0AFF80028BCD00120BAE70000BB
:1012C00002000100F8B50446C06A1E460D461746E6
:1012D000082807D0012805D010F5803F02D0206BE8
:1012E000122804D12068016841F48071016013461E
:1012F00000224FF001112046009600F057F840B14F
:1013000020680068C00502D54FF4007020640320F7
:10131000F8BD2069B0F5804F0ED00620216800EAA4
:10132000D51040F0F000086133463A460B4920469C
:1013300000F070F878B902E005F0FE0000E0E8B2D5
:1013400021680861054933463A46891F204600F066
:1013500061F80028DCD00120F8BD00000800010081
:1013600070B516460D4604460DE02046FFF71CFFFB
:1013700008B1012070BD681C05D0FFF781F8801B03
:10138000A84207D835B120684069C0434007ECD473
:10139000002070BD002044F8300F20216173A0733D
:1013A000216941F0200121612073E2E72DE9F04736
:1013B0001E4690460D460446C1F30747DDF82090CF
:1013C00008E0701C06D0FFF75BF8A0EB0900B04204
:1013D0000FD876B12068012F18D0806925EA000067
:1013E0000004000C14D000214145EAD00020BDE8E3
:1013F000F087002044F8300F20216173A073216929
:1014000041F02001216120730120F0E74069E5E708
:101410000121E9E72DE9F0479A4691460E46044638
:1014200000254FF02008C1F3074725E020684069F8
:10143000C043400514D42068016841F40071016084
:1014400021686FF480604861256384F83D8084F8EA
:101450003E50206C40F00400206484F83C501FE0B3
:10146000B9F1FF3F08D0FFF70BF8A0EB0A0149459F
:101470000CD8B9F1000F09D02068012F13D0806972
:1014800026EA00000004000C0BD0CFE744F8305FE0
:1014900084F80D80A573206940F020002061257339
:1014A0000120BDE8F0874069EAE72DE9F041002519
:1014B00090460E460446202717E04069C043C00608
:1014C0000CD454F8301B6FF01000486144F81059E8
:1014D0006777A577206A2062257717E0FEF7D0FFAF
:1014E000A0EB0800B04208D83EB120684169C9436A
:1014F0004906E2D40020BDE8F08144F8305F67730C
:10150000A573206940F02000206125730120F2E7D7
:1015100070B516460D4604460DE02046FFF744FE22
:1015200008B1012070BD681C05D0FEF7A9FF801B23
:10153000A84207D835B120684069C0430006ECD402
:10154000002070BD002044F8300F20216173A0738B
:10155000216941F0200121612073E2E710B586B0D6
:1015600000241648009401940294039404944FF0CC
:1015700080410594C0E900144FF6FF71C0E90241B3
:1015800004618461FFF764FD08B172B6FEE74FF4B1
:101590008050009069460948FFF79AFD08B172B67D
:1015A000FEE7049404A905480594FFF71DFD0028F3
:1015B00001D072B6FEE706B010BD00006400002046
:1015C000FEE7FEE770477047FFF70CBA10B590B022
:1015D00028216846FEF7F8FD14210AA8FEF7F4FD5D
:1015E0000220009001200490102000240590079410
:1015F0006846FFF755FB08B172B6FEE70F20CDE94C
:101600000A040C940D9400210AA80E94FFF76CFABA
:10161000002801D072B6FEE710B010BD7047000080
:10162000F0B50268164B174C174D4FF080479842A3
:1016300005D0B84203D0A04201D0A84203D122F085
:1016400070064A683243984205D0B84203D0A0429F
:1016500001D0A84203D122F44074CA6822434C69E5
:1016600022F08002224302608A68C2620A688262B3
:10167000984201D10969016301214161F0BD000077
:10168000002C0140000400400008004010B58468B0
:1016900042EA032224F47F440A432243826010BDBD
:1016A000826822F070020A4342F0070181607047AD
:1016B00010B5036A046A24F001040462846924F00A
:1016C000F00444EA021423F00A020A43846102622D
:1016D00010BD10B5036A23F0100303628369046A26
:1016E00023F4704343EA023224F0A00343EA0111D9
:1016F0008261016210BDFEE70907090E002804DBC4
:1017000000F1E02080F80014704700F00F0000F1B5
:10171000E02080F8141D704786B0FFF76BF9FFF7E3
:1017200055FF002425480094019402940394816994
:1017300041F010018161816901F01001049181691A
:1017400041F00801816180691D4E00F008004FF4EE
:1017500000550490002229463046FEF78BFE0120FA
:101760000095CDE901040220039069463046FEF75A
:1017700091FD1548134901601449C0E9011469003D
:10178000C0E9034144618461C4610462FEF77EFEE6
:1017900008B172B6FEE7FFF7E1FE0DA505240323AD
:1017A0002A46002108480094FFF756F803232A46EA
:1017B000002105480094FEF72DFFF0E700100240DD
:1017C000001001400058004010000020A0860100D9
:1017D00061626300000000000000000001020304D9
:1017E0000607080900000000010203040C180008A5
:1017F0000000002010000000280100081C1800084C
:101800001000002000070000440100080100000053
:0C18100010000000000000000024F400A4
:04000005080000ED02
:00000001FF
