:020000040800F2
:100000006809002099010008232C00082F2400080B
:10001000212C00084F0B0008813000080000000070
:10002000000000000000000000000000272C000875
:10003000650D000800000000252C0008292C000890
:10004000B3010008B3010008B3010008B3010008C0
:10005000B3010008B3010008670D00086D0D00082A
:10006000730D0008790D0008B3010008B301000802
:10007000B3010008B3010008B3010008B301000890
:10008000B3010008B3010008B3010008B301000880
:10009000B3010008B3010008B3010008B301000870
:1000A000B3010008B3010008B3010008B301000860
:1000B0008D2C0008992C0008B3010008B30100083A
:1000C000B3010008B3010008B3010008B301000840
:1000D000B3010008B3010008B3010008B301000830
:1000E000B3010008B3010008B301000800F002F8F2
:1000F00000F042F80AA090E8000C82448344AAF180
:100100000107DA4501D100F037F8AFF2090EBAE87D
:100110000F0013F0010F18BFFB1A43F0010318473B
:100120005C3600007C360000103A24BF78C878C1E5
:10013000FAD8520724BF30C830C144BF04680C60ED
:10014000704700000023002400250026103A28BF35
:1001500078C1FBD8520728BF30C148BF0B60704739
:100160001FB59DE8030000F0BBFA00F099F81FBD31
:1001700010B500F0FEF810BD00F061F91146FFF770
:10018000EFFF03F029F800F079FA03B4FFF7F0FF6E
:1001900003BC00F037FC00000948804709480047CD
:1001A000FEE7FEE7FEE7FEE7FEE7FEE7FEE7FEE727
:1001B000FEE7FEE704480549054A064B7047000084
:1001C0008B2C0008ED00000868030020680900205F
:1001D00068050020680500200FB4044910B503AA83
:1001E000029800F02FF810BC5DF814FB60020020AC
:1001F0004FF0000200B5134694469646203922BFC0
:10020000A0E80C50A0E80C50B1F12001BFF4F7AF0A
:10021000090728BFA0E80C5048BF0CC05DF804EBEC
:10022000890028BF40F8042B08BF704748BF20F85A
:10023000022B11F0804F18BF00F8012B7047704758
:1002400070477047074B70B50D467B4400F011F8BE
:100250000446284600F020F810B14FF0FF3070BD82
:10026000204670BD1F2F000001694A1C02610878FA
:10027000704700B58FB0CDE90131002105910549E6
:100280007944CDE903101146684600F024F90FB017
:1002900000BD0000E5FFFFFF007B00F0800070471D
:1002A00010B542485421FFF7A3FF41485421FFF7FE
:1002B0009FFF40485421FFF79BFF3F493B483C4A82
:1002C0003F4B08603D490A603A491960531C036579
:1002D000481C1065012008653B48344A39A1784420
:1002E00000F030F920B9384878440A3800F0CFF9E6
:1002F00037482F4A35A1784400F024F920B9344812
:1003000078440A3800F0C3F932482A4A2FA17844C9
:1003100000F018F920B92F4878440A3800F0B7F9EE
:1003200040232248DC000021224600F0E8F820B1FA
:1003300025487844543800F0AAF91D482246402345
:10034000002100F0DCF820B121487844543800F056
:100350009EF9184822461023002100F0D0F800280A
:1003600006D01C487844BDE81040563800F08FB9DC
:1003700010BD104870B5006D20F001040B4800F06E
:1003800057F90B4800F054F90A4800F051F909E018
:10039000206D20F00105204600F04AF9204600F0CB
:1003A00073F82C46002CF3D170BD00000C02002025
:1003B00060020020B4020020580000205C000020F1
:1003C00060000020720000008C3400007700000004
:1003D00078340000643400000EB5CDE9000100F06F
:1003E000F1FA029069460120ABBE0EBD08B5694620
:1003F00000900220ABBE08BD1FB58DE8070069461E
:100400000520ABBE04B010BD1FB58DE80F006946D6
:100410000620ABBEF6E708B5694600900920ABBEE2
:1004200008BD1CB5CDE9000169460A20ABBE1CBD64
:10043000704708B5694600900C20ABBE08BD7546F4
:1004400000F02CF9AE4605006946534620F007003F
:10045000854618B020B5FFF7ADFEBDE820404FF04F
:1004600000064FF000074FF000084FF0000B21F09E
:100470000701AC46ACE8C009ACE8C009ACE8C0096B
:10048000ACE8C0098D46704770B50446051F00F002
:100490000BF90068002C14BF446870BD002C18BF15
:1004A000AC423CBF20466468F8D301680A18AA42EF
:1004B00018BF456003D12A680546114401602868C9
:1004C0004119A1421CBF6C6070BD61686960216800
:1004D0000844286070BD2DE9F04106460024D6E9A5
:1004E0000170F5688046304603E04146B847641C19
:1004F0003046A8470028F8D12046BDE8F08170B505
:10050000C468A50713D0650211D4B2F5807F09D065
:10051000B2F5007F06D0B2F5806F08D1012300F15B
:10052000240106E05D1E6FF07F46B54201D3012035
:1005300070BD0161C361416024F470611143C16009
:10054000002070BD2DE9F0410C46074616461046C6
:1005500000F06EF82078611C61280AD0722802D061
:1005600077283CD102E00125002405E0022504247F
:1005700002E0082448F2020511F8010B2B2806D0EE
:10058000622809D011F8010C74280AD00BE045F05C
:10059000030544F00204EFE745F0040544F00104CC
:1005A000EAE744F0100438462146FFF715FF411CE6
:1005B00015D00021316171604FF40071F560F16177
:1005C0007061200704D530460222002100F0E6F8D1
:1005D000306D40F0010030653046BDE8F08100200C
:1005E000FBE72DE9F0410D460646104C206DC10792
:1005F00004D0410804D020F00104F7E722460EE0C1
:10060000542000F09CF807000ED0206D47F0010147
:100610000843542120653846FFF7EAFD3A4629464B
:100620003046BDE8F0418DE70020D6E70C020020FF
:100630002DE9F04704464FF000094FF0FF37C56839
:10064000D4E90486A80707D0204600F057F93046C1
:10065000FFF7CCFE002802DA3846BDE8F08728050F
:1006600002D54046FFF710FF4C212046FFF7C0FDA2
:10067000206D20F0010020654846EEE710B50446E5
:10068000AFF300802046BDE81040FFF77EBD10B5F7
:1006900000F07EF9BDE8104000F074B900487047E2
:1006A0000803002070470000004870471003002036
:1006B000704770477047704738B504460A460020B7
:1006C0006946AFF30080002808BF38BD0246009994
:1006D000204600F0A4F9012038BD012000F0F3B954
:1006E000F8B5AFF30080054600200C46102000BF8F
:1006F0000646A819A0420DD9324669460020AFF33C
:100700000080070008BF00F0DEF90098A04218BF83
:100710000546C419FFF7C8FF05600746F01D20F025
:1007200007004619284600F073F9B44208BFF8BD27
:10073000A21B31463868BDE8F84000F070B970B5CA
:100740000646FFF7B1FF056806F10B0020F007042D
:10075000B4429CBF002070BD2B466A68BAB11068D5
:10076000A04210D304F1080188423CBF5068586091
:1007700007D35168101941601168091B0160586066
:100780001460101D70BD13465268002AE7D121463F
:100790002846FFF791FF0028DED170BD2DE9F0411A
:1007A000044616460D464769007B80072ED0384622
:1007B000FFF731FE50BB3EB3012E02D0022E25D1F1
:1007C00004E0204600F045F905441DE03846FFF7F7
:1007D00030FEE168002841F01001E16005DA2046B2
:1007E00000F058F80120BDE8F081C9030BD562681C
:1007F000E16A914200D81146A26911442269891A1E
:10080000814200DD08460544002D01DA0220EAE7B6
:10081000E16A6068E268814206D29103E06203D532
:1008200022F4003141F01002A6690027AE4213DC29
:10083000E16A814201D90B4600E0034603EB060C56
:100840002369ACEB030CAC4506DD814201D98C4633
:1008500000E084469C4505D1A760276042F0200057
:10086000A5620DE0AD1BE669AE1B8142A66000D912
:100870000846C01A281A20605819606022F020002B
:1008800003490840E060002084F84870ABE70000AE
:10089000BFCFD7FFC16821F4001141F08001C160D2
:1008A00000218160016070472DE9F04781461446C0
:1008B0000E464FF0FF383248D5685769054209D0D7
:1008C0003846A169FFF7ADFD002811DB2C48C04375
:1008D0000540E5602B46324649463846FFF78CFD19
:1008E000A16920F00042B21A11440028A16103D08E
:1008F0002046FFF7CFFF4046BDE8F08770B50446BD
:100900000569C06A6168884200D80846E16821F438
:100910002011E160C90312D5A84208D02246411B2C
:100920002846FFF7C1FF10B14FF0FF3070BD002027
:10093000E562C4E90150E06820F48030E060002006
:1009400070BD10B50446C06820F02000E060A16AC8
:10095000A06988420DD02046FFF7D0FFE06820F460
:10096000405040F01000E060A06AA0612069E062A1
:10097000606044F24001E0688843E06010BD000020
:1009800010000200002801D000F03CB870470000C1
:1009900010B5014602A000F07DF8012010BD000056
:1009A00053494752545245443A205265646972652E
:1009B00063743A2063616E2774206F70656E3A200D
:1009C0000000000010B5431C02E010F8011B71B1DB
:1009D0008107FAD14FF0013202C88C1A8C4314EA15
:1009E000C211F9D0C01A0A0603D0C01E10BDC01A29
:1009F00010BD0A0401D0801E10BD0902FCD0401EAB
:100A000010BD000001491820ABBEFEE72600020021
:100A100000210160C0E901107047102070470346B3
:100A200040688C46002818BF88423CBF0346406897
:100A3000F8D318681844884207D00CF1030020F05E
:100A40000700001D411A521A0146081D0A60FFF7EF
:100A50001BBD10B50146C268900703D0900607D5AC
:100A6000886A0AE000F03EF801210160881E10BD8E
:100A70008B69486818440B69C01A91F848301BB15B
:100A800091F84910401A10BD1103FCD50028FADD79
:100A9000401E10BD70B505460C460A2000E06D1CD6
:100AA00000F018F835B128780028F8D102E0641C6D
:100AB00000F010F814B120780028F8D1BDE870409B
:100AC0000A2000F007B810B500F010F8BDE810409B
:100AD000FFF758BF08B569468DF800000320ABBE8C
:100AE00008BD0000004870470803002010B5012829
:100AF00005D0002103A0FFF7CDFF012010BD09A103
:100B0000F8E7000053494752544D454D3A204F7580
:100B100074206F662068656170206D656D6F7279F5
:100B2000000000003A2048656170206D656D6F72AD
:100B30007920636F727275707465640000F00F0144
:100B4000000900EB800001EB4000C0B27047FEE7F7
:100B500001F034B8036800225A620068426A8A428F
:100B6000FCD370474068FFF7F5BF30B40129029C01
:100B700002D0022903D005E044F2506101E042F6C0
:100B8000E0610180C3600481426030BC1046FFF721
:100B9000DFBF2DE9F0410746002500F061F8002491
:100BA0000126384600F021F80028FAD028213846DE
:100BB000FFF7D8FF384600F018F880B1C4F10701FC
:100BC00006FA01F02843C5B2384600F00EF80028B6
:100BD000FAD1641C082CE4DB2846BDE8F081C4F19E
:100BE000070006FA00F08543EEE70189C06800F0CF
:100BF00015BA00002DE9F047054600F040F82846F8
:100C0000FFF7C7FF81462846FFF7C3FF8046284607
:100C1000FFF7BFFF07462846FFF7BBFF06462846FB
:100C2000FFF7B7FF044646EA072048EA092602F024
:100C30001DFD0A4F00223B4602F0C0FB02F08CFB78
:100C40002861304602F012FD00223B4602F0B6FB5E
:100C500002F082FB68612046BDE8F0870000244076
:100C60001FB500210091019102910391018900912A
:100C700001210291C068694600F0E0F81FBD7FB510
:100C80000025044600950195029503950089009082
:100C900001200190022003902E466946E06800F092
:100CA000CDF821893246E06800F0BDF92188204660
:100CB000FFF758FF2046FFF7D3FF28212046FFF714
:100CC00051FF2046FFF791FF40B928212046FFF74A
:100CD00049FF2046FFF789FF00B101252046FFF7B5
:100CE00084FF0028FAD104B0284670BD3EB5044602
:100CF0004FF47A7204210E308DE80700012303229D
:100D0000D021206800F05EFAA07BFFF717FFA075E6
:100D1000E07BFFF713FF6075207CFFF70FFFE075A6
:100D2000607CFFF70BFF20763EBD3EB504464FF4D6
:100D30007A720321C01D8DE8070001230022D02113
:100D4000206800F03FFAE079FFF7F8FE2075207A7E
:100D5000FFF7F4FEE074607AFFF7F0FEA0743EBD8A
:100D6000016070477047012000F05CB8022000F07D
:100D700059B8042000F056B8082000F053B838B530
:100D800004460D46C820642300901A4600212846D8
:100D900002F09EFA616880B239B1042909D00829AD
:100DA0002168096809D0086438BD2168096848636A
:100DB00038BD21680968886338BDC86338BD000044
:100DC00070B5044600F034F90546601C02D00448B2
:100DD0000078044400F02CF9401BA042FAD370BD07
:100DE0004800002010B5012817D10C4C607000F0AD
:100DF0001FF9A060E1680223421A0021B2F57A7F50
:100E000008D22278521CD2B22270E060072A02D99E
:100E10000348037021700420607010BD380000206A
:100E200026000020044910B50A68024202D008607A
:100E3000FFF7D8FF10BD0000140401402DE9F84F62
:100E4000DFF8B8910024A9F1040B23460F2709F11C
:100E5000040AABF1040EC9E00125A5402A40AA42CC
:100E60007DD1674ED1F804C0ACEB0608B44532D052
:100E700014DCBCF1030F3AD009DCBCF1000F2AD01E
:100E8000BCF1010F1CD0BCF1020F31D11DE0BCF14F
:100E9000110F17D0BCF1120F2AD119E0B8F5881F35
:100EA00019D006DCB8F5803F15D0B8F5801F1FD1EA
:100EB00011E0B8F5001F0ED0B8F5041F18D10AE0F4
:100EC000CB6815E0CB681B1D12E0CB6808330FE040
:100ED000CB680C330CE08B682BB1012B4FF008036F
:100EE00003D0456104E0042302E0056100E0002333
:100EF000FF2A01D8064601E000F104064FEA840506
:100F000001D9A5F12005D6F8008007FA05FC28EAEA
:100F10000C0803FA05F548EA0508C6F800804D6894
:100F2000ED0062D5374DAE6946F00106AE61AD69A0
:100F300024F0030605F001050095334D06EB050C82
:100F4000DCF80850A607360F07FA06F825EA080568
:100F5000DFF8B880404503D14FF0000817E044E0C7
:100F6000DFF8AC80404502D14FF001080FE0DFF818
:100F7000A480404502D14FF0020808E0DFF89880D5
:100F8000404502D14FF0030801E04FF0040808FA91
:100F900006F848EA0508CCF808804D68D9F80060E2
:100FA000ED024D4601D5164300E096432E604D6894
:100FB000DAF80060AD02554601D5164300E09643CD
:100FC0002E604D68DBF80060AD035D4601D5164329
:100FD00000E096432E604D68DEF80060ED03754634
:100FE00001D5164300E096432E60641C0D682A4626
:100FF000E5407FF431AFBDE8F88F00000804014000
:1010000000001110001002400000014000080140E3
:10101000000C0140001001400014014080680840AD
:1010200000D0012070470AB1016170470904FBE755
:1010300001488068704700004800002070B5040037
:1010400025D094F83D00002520B984F83C50204676
:1010500000F0E0F9242084F83D002068016821F0C8
:10106000010101602068016841F4004101602068CD
:10107000016821F40041016000F028FB4D4A6168DD
:10108000914201D84C4900E04C49884201D20120EC
:1010900070BD4B492368B0FBF1F15E6826F03F0656
:1010A0000E435E606368934206D94FF496735943CA
:1010B0004FF47A73B1FBF3F12368491C1E6A26F0E2
:1010C0003F06314319626168914210D84900401EC1
:1010D000B0FBF1F2521CC2F30B02042A01D204202D
:1010E00022E0B0FBF1F0401CC0F30B001CE0A26852
:1010F000F2B301EBC10303EB0116431EB3FBF6F39E
:101100005B1C43F480431B0549D092B301EBC10241
:1011100002EB0111401EB0FBF1F0401CC0F30B00CC
:1011200040F4804040F400402168CA694CF6FF73E7
:101130009A431043C861D4E907100143206802684C
:1011400022F0C00211430160D4E903010143206889
:10115000826848F2FF339A4311438160D4E9050164
:1011600008432168CA6822F0FF021043C86001E00A
:101170000EE016E02068016841F00101016025647D
:10118000202084F83D00256384F83E50002070BD87
:1011900001EB4106431EB3FBF6F35B1CB3E70120F2
:1011A000C2E701EB4101401EB0FBF1F0401CC0F36F
:1011B0000B00B7E7A086010080841E0000093D00F7
:1011C00040420F002DE9FF4F83B00025DDE9107983
:1011D0009A4693460446DDF848800095FFF728FFBD
:1011E000064694F83D0020287CD119230122854928
:1011F0002046009601F0B2F90028F5D194F83C00A1
:1012000001286FD0012084F83C0020680168C907DC
:1012100003D1016841F0010101602068016821F4F7
:1012200000610160222084F83D00402084F83E00E7
:1012300025646762A4F82A90608D20857248E06278
:10124000CDE9008653465A462046049901F008F934
:1012500000287DD1208DDFF8B491202768B10128C6
:1012600014D00228206801681ED041F4806101601A
:101270002068416980690090B6E020684169816911
:101280000091016841F400710160ADE020680168DF
:1012900021F48061016072B6206841698169009122
:1012A000016841F400710AE041F40061016072B626
:1012B0002068416981690091016821F480610160C1
:1012C00062B691E0032868D801280CD00228434672
:1012D0004FF000024946204600960FD001F03EF93B
:1012E000B0BB10E08BE032464146204601F0DCF90D
:1012F00070BB20680069616A08706CE001F02EF92B
:1013000030BB72B634E02068016821F4806101606E
:1013100072B620680069616A0870606A401C606289
:10132000208D401E2085608D401E6085384846F225
:10133000A8110068B0FBF1F0C0EBC00000EB80002A
:101340000090401E009008D020684069C04300E033
:1013500029E040070CD50098F3E744F8305F677345
:10136000A573206940F02000206162B625731AE061
:101370002068016841F40071016020680069616AB9
:101380000870606A401C6062218D491E2185618D54
:10139000491E618562B621681BE0324641462046FF
:1013A00001F082F918B1012007B0BDE8F08F206884
:1013B0000069616A0870606A401C6062218D491E84
:1013C0002185618D491E618521684A69D243520792
:1013D0000AD409690170606A401C6062208D401E59
:1013E0002085608D401E6085208D00287FF46AAFC7
:1013F00084F83D7084F83E5084F83C50D4E70220D5
:10140000D2E70000020010000000FFFF040001000E
:101410005400002010B586B0002100910191029186
:10142000039100680F4988421AD10F4CA06940F01F
:101430000800A061A069694600F008000490C0207F
:10144000009012200190032003900848FFF7F6FC5B
:10145000E06940F40010E061E06900F400100490DD
:1014600006B010BD0054004000100240000C0140C6
:10147000024881680278114481607047480000206A
:10148000074810B5016841F010010160032000F029
:1014900075F80F2000F006F800F024F8002010BDC9
:1014A0000020024070B50D4D04464FF47A71287843
:1014B000B1FBF0F00A490968B1FBF0F000F0DCFA8A
:1014C00048B9102C07D200222146501E00F036F8F1
:1014D00000206C6070BD012070BD0000480000203D
:1014E000540000200C4808B5816941F00101816178
:1014F000816901F001010091C16941F08051C16130
:10150000C06900F0805000900448416821F0E0611B
:1015100041F00071416008BD001002400000014030
:10152000002809DB00F01F020121914040098000E2
:1015300000F1E020C0F8001170470000F0B40E4B3D
:101540001B680C46C3F30223C3F10705042D00D921
:101550000425191D072901D2002300E0DB1E012606
:1015600006FA05F1491E214099409E40761E16401C
:101570003143F0BC01F085BD0CED00E0064900F000
:10158000070208684FF6FF03184040EA0220034AAA
:1015900010430860704700000CED00E00000FA0501
:1015A0002DE9F0470F46050061D0434E306800F04A
:1015B0000700B84209D2306820F007003843306095
:1015C000306800F00700B84251D128683B4C8107D1
:1015D00012D5400703D5606840F4E0606060287869
:1015E000000703D5606840F4605060606068A968D7
:1015F00020F0F000084360602878C00728D06868B1
:10160000012810D02168022810D0890700292EDA7D
:10161000616821F0030101436160FFF709FD804625
:1016200041F288390DE021688903EFE78901EDE790
:10163000FFF7FEFCA0EB0801494502D90320BDE8F5
:10164000F0876068696800F00C00B0EB810FEFD1A3
:10165000306800F00700B8420BD9306820F007006E
:1016600038433060306800F00700B84201D00120F4
:10167000E5E72878400705D56068E96820F4E06070
:10168000084360602878000706D56068296920F45F
:10169000605040EAC100606000F038F86168084AB4
:1016A000C1F30311515CC840064908600648006850
:1016B000FFF7F8FE0020C2E70020024000100240C1
:1016C00056370008540000204C000020044805490B
:1016D00000684968044AC1F30221515CC840704760
:1016E00054000020001002406637000804480549F5
:1016F00000684968044AC1F3C221515CC840704780
:101700005400002000100240663700080E4A51685D
:101710000E4801F00C03042B11D0082B0FD10C48FC
:10172000C1F38343C903C05C0AD55168084AC1F3B9
:101730004041921E515C054A5043B0FBF1F07047A6
:1017400004494843704700000010024000127A002C
:101750004637000800093D002DE9F84F040070D01D
:101760002078C04DC00749D06868C0F381000128C7
:1017700007D06868C0F38100022809D16868C003F7
:1017800006D52868800339D560680028E7D035E0A1
:101790006068B0F5803F0BD010B1B0F5A02F11D02C
:1017A000286820F480302860286820F4802002E037
:1017B000286840F480302860606890B1FFF738FCFA
:1017C00006460AE0286840F480202860F0E700BF61
:1017D000FFF72EFC801B642873D828688003F7D598
:1017E0000CE0FFF725FC064605E000BFFFF720FCF4
:1017F000801B6428F0D828688003F7D420789A4E9C
:1018000080074FF001094FF0000839D5686810F0E3
:101810000C0F07D06868C0F38100022809D16868FE
:10182000C00306D42868800714D52069012808D190
:1018300010E02069B0B1C6F80090FFF7F9FB074649
:1018400005E00AE1FFF7F4FBC01B0228C4D82868B2
:101850008007F7D52868616920F0F80040EAC100E8
:1018600028600DE0C6F80080FFF7E2FB074604E0C1
:10187000FFF7DEFBC01B022823D828688007F7D4B7
:10188000207800072CD57948A169D9B1C0F800901B
:10189000FFF7CEFB074604E0FFF7CAFBC01B022898
:1018A0000FD8686A8007F7D571484FF4FA5100687D
:1018B000B0FBF1F0009000BF0098411E0091FAD2F9
:1018C0000EE080E0C0F80080FFF7B2FB074604E0BE
:1018D000FFF7AEFBC01B022875D8686A8007F7D4F3
:1018E0002078400760D5E8690027C00008D4E8697F
:1018F00040F08050E861E869012700F080500090D6
:101900005C480168C90513D40168834641F48071BD
:101910000160FFF78DFB824606E000BFFFF788FB02
:10192000A0EB0A0064284ED8DBF80000C005F5D50E
:10193000E06801280AD008B1052813D0286A20F0F1
:1019400001002862286A20F0040002E0286A40F0C2
:1019500001002862E06841F2883B98B1FFF768FB1C
:1019600082460BE0286A40F004002862EEE700BFE0
:10197000FFF75EFBA0EB0A0159455AD8286A800799
:10198000F6D50CE0FFF754FB824605E0FFF750FB6D
:10199000A0EB0A0159454CD8286A8007F6D41FB13C
:1019A000E86920F08050E861E06988B36968C1F3B4
:1019B0008101022944D00228C6F8608004D0FFF7D4
:1019C00037FB044638E034E0FFF732FB074604E01B
:1019D000FFF72EFBC01B02282BD828688001F7D404
:1019E000206AB0F5803F05D16868A16820F4003016
:1019F00008436860D4E908010843696821F4741158
:101A000008436860C6F86090FFF712FB044606E0E2
:101A100025E000BFFFF70CFB001B022809D828684F
:101A20008001F7D51BE000BFFFF702FB001B022877
:101A300002D90320BDE8F88F28688001F4D40EE0B5
:101A40000128F7D06868226A00F48031914204D1FD
:101A5000616A00F47010884201D00120EAE700209A
:101A6000E8E70000001002400000424280044242C9
:101A7000540000200070004010B5401EB0F1807F7F
:101A800001D3012010BD4FF0E02460610F216017E9
:101A900001F0F7FA0020A06107202061002010BDAE
:101AA0007047704770B590F83C20012A26D0012479
:101AB00080F83C40022280F83D2003685A689D6807
:101AC00022F070060A6832435A600D4B02689A424F
:101AD00008D0B2F1804F05D00A4B9A4202D00A4B8F
:101AE0009A4204D1496825F080031943916080F837
:101AF0003D40002180F83C10084670BD022070BDBA
:101B0000002C0140000400400008004010B5040013
:101B100003D094F83D0010B107E0012010BD002073
:101B200084F83C00204600F01FF8022084F83D00B5
:101B3000211D206801F0B6F8012084F8460084F8E1
:101B40003E0084F83F0084F8400084F8410084F8A7
:101B5000420084F8430084F8440084F8450084F887
:101B60003D00002010BD000008B5114A0168114871
:101B7000914211D1C16941F00201C161C0690022E5
:101B800000F00200009011461D20FFF7D7FCBDE8D1
:101B900008401D20FFF7C4BC074A914207D1C16924
:101BA00041F00401C161C06900F00400009008BD6B
:101BB00000040040001002400008004090F83D1072
:101BC000012901D001207047022180F83D100068F2
:101BD0000B49884208D0B0F1804F05D009498842AE
:101BE00002D00949884204D1816801F00701062921
:101BF00003D0016841F0010101600020704700003E
:101C0000002C0140000400400008004070B504466C
:101C100090F83C000025012817D0012684F83C608C
:101C2000022084F83D002068826822F0770222F4C6
:101C30007F4282600868502838D00DDC20284FD0C1
:101C400005DC90B3102811D14AE0022070BD302885
:101C500046D040280AD13BE060282FD070280DD014
:101C6000B0F5805F03D0B0F5005F12D0012584F895
:101C70003D60002084F83C00284670BDCB68D1E967
:101C80000121206801F044F82068816841F0770163
:101C900009E0CB68D1E90121206801F039F820681A
:101CA000816841F480418160E1E719E0CA684968D0
:101CB000206801F0E1F85021206806E0CA68496810
:101CC000206801F017F96021206801F02BF8CEE7B9
:101CD000CA684968206801F0CFF840212068F4E71D
:101CE000226801461046F0E710B5002100F0D2FA54
:101CF000134988804A88821A92B2CA804880A2F129
:101D00007900132804D20020C8600870886010BDD4
:101D10000F2A03D9886840F0010001E007D28868E3
:101D20004FEA40008860087800F1010008700878E8
:101D30001F28ECD18868C8600120487010BD0000E1
:101D4000140000202DE9F041054690F83C000026E3
:101D50000C46012810D0012085F83C0072B1042AFD
:101D60001CD0082A2CD00C2A50D00126002085F83F
:101D70003C003046BDE8F0810220FBE7D4E90012C8
:101D8000E368286801F08AF82868816921F00C016D
:101D9000816128688169A26811430FE0D4E90012CB
:101DA000E368286801F0B8F82868816921F4406187
:101DB000816128688169A26841EA02218161D5E7D1
:101DC0002868D4E9002C277B036A016A21F480711A
:101DD0000162C16923F4007321F0030141EA0C019F
:101DE00021F0F00C39074FF400774CEA116107EA53
:101DF00002221A43C16102622868C16921F00C0104
:101E0000C1612868C169A26811432BE02868D4E940
:101E10000021E768036AD0F820C02CF4805CC0F889
:101E200020C0D0F81CC023F400532CF4407C4CEAB2
:101E3000012121F4704C4FF6FF7101EA07314FF494
:101E4000005741EA0C0107EA02321A43C1610262FB
:101E50002868C16921F44061C1612868C169A2682C
:101E600041EA0221C16181E710B5040003D094F872
:101E70003D0010B107E0012010BD002084F83C00B7
:101E8000204600F01EF8022084F83D00211D206845
:101E900000F008FF012084F8460084F83E0084F832
:101EA0003F0084F8400084F8410084F8420084F840
:101EB000430084F8440084F8450084F83D00002085
:101EC00010BD704770B50446006801694FF0000509
:101ED000C943890715D4C168C943890711D4E91ECC
:101EE000016101202077206880698007204602D0A8
:101EF000FFF7FAFE04E000F0DBF8204600F0A8F956
:101F0000257720680169C943490717D4C168C943C7
:101F1000490713D46FF00401016102202077206883
:101F2000806910F4407F204602D0FFF7DDFE04E018
:101F300000F0BEF8204600F08BF925772068016993
:101F4000C943090716D4C168C943090712D46FF001
:101F500008010161042020772068C06980072046BD
:101F600002D0FFF7C1FE04E000F0A2F8204600F026
:101F70006FF9257720680169C943C90617D4C1687C
:101F8000C943C90613D46FF01001016108202077FE
:101F90002068C06910F4407F204602D0FFF7A4FEFD
:101FA00004E000F085F8204600F052F9257720681B
:101FB0000169C943C90708D1C168C943C90704D128
:101FC000891E0161204600F045F920680169C94376
:101FD000090609D4C168C943090605D46FF0800118
:101FE00001612046FFF75CFD20680169C94349068D
:101FF00009D4C168C943490605D46FF040010161A5
:10200000204600F05CF920680169C94389060BD4B9
:10201000C168C943890607D46FF0200101612046D9
:10202000BDE87040FFF73DBD70BD000010B586B043
:10203000002100910191029103910068B0F1804F5D
:102040002BD11748816941F004018161816901F058
:1020500004010491816941F00801816180690224D1
:1020600000F0080004904FF40040CDE900046946F8
:102070000C480394FEF7E2FE0820CDE9000469460F
:1020800009480394FEF7DAFE0848416821F44071DC
:1020900041F0E06141F44071416006B010BD0000C4
:1020A0000010024000080140000C01400000014007
:1020B000704770B5044690F83C0000260D46012894
:1020C0000FD0012084F83C006AB1042A1DD0082AF0
:1020D0002FD00C2A3FD00126002084F83C00304647
:1020E00070BD022070BD206800F024FE2068816968
:1020F00041F0080181612068816921F0040181615A
:10210000206881692A69114311E0206800F03AFED5
:102110002068816941F4006181612068816921F44E
:1021200080618161206881692A6941EA02218161B7
:10213000D2E7206800F052FE2068C16941F0080132
:10214000C1612068C16921F00401C1612068C169D1
:102150002A69114311E0206800F06CFE2068C16913
:1021600041F40061C1612068C16921F48061C161ED
:102170002068C1692A6941EA0221C161ACE710B552
:10218000040003D094F83D0010B107E0012010BD19
:10219000002084F83C00204600F01EF8022084F85D
:1021A0003D00211D206800F07DFD012084F84600DF
:1021B00084F83E0084F83F0084F8400084F8410031
:1021C00084F8420084F8430084F8440084F8450011
:1021D00084F83D00002010BD00B585B000210091BD
:1021E0000191029103910068B0F1804F28D1154808
:1021F000C16941F00101C161C16901F001010491AE
:10220000816941F0080181618069694600F0080038
:1022100004904FF4006000900B48FEF70FFE0B484F
:10222000416821F4407141F0E06141F44071416046
:10223000002211461C20FFF781F91C20FFF770F9DE
:1022400005B000BD00100240000C0140000001403C
:102250007047000010B500680B49884201D100F0BA
:1022600091FF0A4941F288324868401C4860904218
:1022700009D9074800230278521CD2B202704B6081
:10228000032A00D9037010BD00040040380000206C
:10229000250000200246002041B1042909D0082968
:1022A0000AD00C2901D11068006C70471068406B8F
:1022B00070471068806B70471068C06B704770473C
:1022C00070B5040004D094F84100002510B106E078
:1022D000012070BD84F84050204600F023F82420EF
:1022E00084F841002068C16821F40051C160204693
:1022F00000F02EFE2068016921F490410161206800
:10230000416921F02A0141612068C16841F400510E
:10231000C1606564202084F8410084F84200656350
:10232000002070BD30B585B0002400940194029463
:10233000039400681449884224D11448816941F407
:1023400080418161816901F480410491816941F09A
:102350000401816180690E4D00F0040004904FF487
:1023600000700090022001900320039069462846E7
:10237000FEF764FD2815CDE900046946284602945D
:10238000FEF75CFD05B030BD003801400010024092
:10239000000801402DE9F843044690F841001F462B
:1023A00016460D46202802D00220BDE8F8837DB1F4
:1023B00076B100206064212084F84100FEF738FEE9
:1023C000A6848046E684A068B0F5805F02D003E072
:1023D0000120EAE7206910B12E4600250EE0002614
:1023E0000CE08021204600F00FFEA0B9AEB116F837
:1023F000010B21684860E08C401EE084E08C43467D
:102400004FF0000200970028EBD14FF0400120462A
:1024100000F0FAFD30B10320C7E735F8020BC0F336
:102420000800E6E7202084F841000020BDE7FEE731
:1024300001684A69D24352050FD46FF480624A6141
:10244000002140F8301F202242738173026942F05C
:1024500004020261017301207047002070470000F0
:102460002DE9F84F0446006889460B9D016898469F
:10247000174641F4806101602068016841F4807171
:10248000016000954FF0011B0022594620460A9B2F
:1024900000F064F84FF4007A40B120680068C0058D
:1024A00001D5C4F840A00320BDE8F88F216809F0E9
:1024B000FE0008612B46284920460A9A00F096F84B
:1024C000F0BB20684169806900902A4620460A993D
:1024D00000F022F940B1206C04283AD1206801684C
:1024E00041F40071016034E0FEB2B8F1010F09D08F
:1024F0002168380A08612A4620460A9900F00CF93A
:102500000028E8D1206806612A4620460A9900F092
:1025100003F90028DFD12068016841F4807101606F
:1025200000950022594620460A9B00F017F8002823
:10253000B3D1216809F0FF0040F00100086100E01C
:1025400007E02B46044920460A9A00F04FF800287D
:10255000AAD00120A8E70000020001002DE9F04701
:10256000984617460D460446C1F30746DDF820900D
:102570002AE000BFB8F1FF3F26D0FEF759FDA0EBDF
:102580000901414502D8B8F1000F1DD12068012E84
:1025900016D0806925EA00000004000C12D000204B
:1025A000B84211D1002044F8300F20216173A0738C
:1025B000216941F02001216120730120BDE8F087ED
:1025C0004069E7E70120EBE72068012E0AD0806927
:1025D00025EA00000004000C06D00020B842C9D053
:1025E0000020EBE74069F3E70120F7E72DE9F0472A
:1025F000984616460D4604464FF000094FF0200A53
:10260000C1F3074723E020684069C043400515D463
:102610002068016841F40071016021686FF48060F6
:102620004861C4F8309084F83DA084F83E90216C55
:1026300041F00401216484F83C9021E0701C06D034
:10264000FEF7F6FCA0EB0800B04203D816B1012F4C
:102650001FD021E02068012F15D0806925EA0000F5
:102660000004000C18D000BF44F8309F84F80DA07F
:1026700084F80E90216941F02001216184F80C90CA
:102680000120BDE8F087406925EA00000004000C45
:10269000EAD12068406901E02068806925EA0000ED
:1026A0000004000CAFD1ECE72DE9F0410025904685
:1026B0000E460446202728E04069C043C0060CD4DB
:1026C00054F8301B6FF01000486144F810596777D8
:1026D000A577206A2062257714E0FEF7A9FCA0EB1D
:1026E0000800B04200D886B920684069C04340065F
:1026F0000BD544F8305F6773A573206940F0200064
:10270000206125730120BDE8F08120684169C9433B
:102710004906D1D40020F6E770B516460D460446AA
:102720001EE02046FFF784FE08B1012070BD681C42
:1027300016D0FEF77DFC801BA84200D885B9206822
:102740004069C04300060BD5002044F8300F20211B
:102750006173A073216941F0200121612073E4E7D6
:1027600020684069C0430006DBD4002070BDF0B58E
:1027700042F21073B1FBF3F464F30702B1FBF3F41C
:1027800003FB14154FF47A74B5FBF4F565F30F22CF
:10279000B1FBF3F503FB1515B5FBF4F604FB165678
:1027A0006425B6FBF5F666F31742B1FBF3F603FBBF
:1027B0001616B6FBF4F704FB1766B6FBF5F705FB38
:1027C00017670A26B7FBF6F767F31F62B1FBF3F74B
:1027D00003FB1711B1FBF4F304FB1311B1FBF5F389
:1027E00005FB1311B1FBF6F306FB13110260017137
:1027F000F0BD00002DE9FC412B4C2C4D661C2178CE
:10280000B1B901466846FFF7B2FF0098C4F801006D
:102810009DF804006071002202212846FEF703FCA7
:10282000012220212846FEF7FEFB707800F040F8D8
:1028300020784FF4807701280CD1002220212846EF
:10284000FEF7F1FB012239462846FEF7ECFBB07893
:1028500000F02EF8207802280CD1002239462846B4
:10286000FEF7E1FB012211462846FEF7DCFBF0787B
:1028700000F01EF8207803280CD100220121284600
:10288000FEF7D1FB012202212846FEF7CCFB30796E
:1028900000F00EF82078401CC0B22070032801D947
:1028A00000202070BDE8FC8100000020000C0140E9
:1028B00070B51F4D04461F4E285D102100F0010227
:1028C0003046FEF7B0FB285D2021C0F340023046C1
:1028D000FEF7A9FB285D4021C0F380023046FEF7D9
:1028E000A2FB285D8021C0F3C0023046FEF79BFBAF
:1028F000285DB115C0F300123046FEF794FB285D49
:1029000031150D4EC0F340123046FEF78CFB285DAA
:10291000B114C0F380123046FEF785FB285DBDE898
:102920007040C2094FF400410448FEF77CBB000030
:102930000600002000080140000C0140001001408A
:1029400010B540F25740FFF755FF4FF4FA74204698
:10295000FEF736FA40F6AE00FFF74CFF2046FEF7D2
:102960002FFA40F60550FFF745FF2046BDE810401E
:10297000FEF726BA2DE9F04F85B0002443480094B5
:10298000019402940394816941F01001816181698D
:1029900001F010010491816941F020018161816998
:1029A00001F020010491816941F004018161816994
:1029B00001F004010491816941F00801816180699D
:1029C000DFF8CC9000F008004FF46045049000223E
:1029D00029464846FEF727FBDFF8B8A04FF4F87702
:1029E000002239465046FEF71EFBDFF8ACB041F23C
:1029F0002358002241465846FEF715FB0095022653
:102A000001250396CDE9015469464846FEF716FABA
:102A10000F2000902148CDE9010569465046FEF798
:102A20000DFA00970396CDE9015469465046FEF72A
:102A300005FACDF800800396CDE901546946584661
:102A4000FEF7FCF9002211460620FEF777FD06206E
:102A5000FEF766FD002211460720FEF76FFD0720F6
:102A6000FEF75EFD002211460820FEF767FD0820F4
:102A7000FEF756FD002211460920FEF75FFD0920F2
:102A8000FEF74EFD05B0BDE8F08F000000100240DB
:102A90000010014000080140000C0140000021101E
:102AA00010B58EB000240B941C2168460C94FDF7E1
:102AB0009FFB26480794089409944FF080410A949C
:102AC00001604FF4E151C0E901144FF6FF71C0E914
:102AD00003148461FFF753FB08B172B6FEE71B488D
:102AE000FFF7C2F908B172B6FEE70B940BA91748BD
:102AF0000C94FEF7D7FF08B172B6FEE76020CDE96F
:102B0000000402940022694610480494FFF7D1FAA9
:102B100008B172B6FEE7042269460C48FFF7C9FA0D
:102B200008B172B6FEE70120CDE9074009940C22F6
:102B300007A906480A94FFF705F908B172B6FEE73F
:102B40000248FFF773FA0EB010BD0000EC00002041
:102B500010B586B0002417480094019402940394A1
:102B600004941349059401604FF4FA51C0E901142B
:102B700040F2E731C0E903148461FEF7C7FF08B1F2
:102B800072B6FEE74FF48050009069460948FFF79F
:102B90003DF808B172B6FEE7049404A9054805940F
:102BA000FEF780FF002801D072B6FEE706B010BD28
:102BB000000400403401002010B586B000241748FE
:102BC00000940194029403940494134905940160C1
:102BD0000721C0E901144FF6FF71C0E903148461B5
:102BE000FEF794FF08B172B6FEE74FF480500090F4
:102BF00069460A48FFF70AF808B172B6FEE704947E
:102C000004A906480594FEF74DFF002801D072B6CE
:102C1000FEE706B010BD0000000800407C01002067
:102C2000FEE7FEE770477047FEF722BC30B58FB075
:102C300028216846FDF7DCFA14210AA8FDF7D8FA26
:102C400001210804CDE9001000240294022504911A
:102C5000CDE907504FF4E01009906846FEF77CFD7F
:102C600008B172B6FEE70F20CDE90A054FF4806087
:102C7000CDE90C4002210AA80E94FEF791FC002831
:102C800001D072B6FEE70FB030BD70470148FFF7C4
:102C900019B90000EC0000200148FFF713B900004B
:102CA00034010020F0B50268164B174C174D4FF059
:102CB0008047984205D0B84203D0A04201D0A84234
:102CC00003D122F070064A683243984205D0B842D8
:102CD00003D0A04201D0A84203D122F44074CA68B4
:102CE00022434C6922F08002224302608A68C26259
:102CF0000A688262984201D1096901630121416138
:102D0000F0BD0000002C014000040040000800401D
:102D100010B5846842EA032224F47F440A43224324
:102D2000826010BD826822F070020A4342F00701FF
:102D30008160704730B5036A026A22F001020262C4
:102D40004268846924F073050C682C4323F0020563
:102D50008B682B430A4DA8420BD123F00805CB68A2
:102D600022F440722B434D6923F0040315438A6912
:102D70002A434260846149684163036230BD0000B8
:102D8000002C014030B5026A036A23F0100303628D
:102D9000436884690D6824F4E64444EA05248D6898
:102DA00022F0200242EA05120B4DA8420ED1CD6856
:102DB00022F0800242EA05124D6923F4406343EA9F
:102DC00085038D6922F0400243EA850343608461F4
:102DD00049688163026230BD002C014030B5036A4E
:102DE000026A22F4807202624268C46923F40073AA
:102DF00024F073050C682C438D6843EA05230C4DC1
:102E0000A8420ED1CD6823F4006343EA05234D693F
:102E100022F4405242EA05128D6923F4806342EAAB
:102E200005124260C4614968C163036230BD00009D
:102E3000002C014030B5046A026A22F4805202621A
:102E40004268C3690D6823F4E64343EA05238D68AD
:102E500024F4005444EA0534064DA84204D14D69D7
:102E600022F4804242EA85124260C36149680164EB
:102E7000046230BD002C014010B5036A046A24F0DE
:102E800001040462846924F0F00444EA021423F08B
:102E90000A020A438461026210BD000070B5056A2F
:102EA000046A24F00104046284690F4EB04208D021
:102EB000B0F1804F05D00D4EB04202D00C4EB04262
:102EC00003D124F00304144301E044F001041A0781
:102ED00024F0F00444EA126225F00A0301F00A012A
:102EE00019438261016270BD002C01400004004062
:102EF0000008004010B5036A046A24F0100404625C
:102F0000846923F0A00324F4704444EA023243EAC3
:102F100001118261016210BD30B5046A056A25F0B5
:102F200010050562856925F4407545EA022222F400
:102F300070454FF6FF7202EA033224F0A0032A43E1
:102F4000A02404EA011119438261016230BD00002E
:102F500070B5044600680169E26821F440511143EC
:102F600001612169A0680843616908432168CA6852
:102F700041F20C639A430243CA6020684169A26926
:102F800021F44071114341611E492068884202D1F9
:102F9000FEF7ACFB01E0FEF799FB00EBC00101EB93
:102FA0000012606864218000B2FBF0F3B3FBF1F320
:102FB0006FF018067343B2FBF0F5B2FBF0F605EBC9
:102FC0008305322303EB0515B5FBF1F5B6FBF1F6EE
:102FD00005F0F00505EB0615B2FBF0F6B2FBF0F0DC
:102FE000B0FBF1F06FF01802504306EB800003EBEA
:102FF0000010B0FBF1F0216800F00F002844886059
:1030000070BD0000003801402DE9F0419846174698
:103010000E460446069D27E0681C25D02DB1FEF71C
:1030200007F8A0EB0800A8421ED920680C3050E831
:10303000001F21F4D07140E80012002AF5D1206869
:10304000143050E8001F21F0010140E80012002A6E
:10305000F5D1202084F8410084F84200002084F853
:1030600040000320BDE8F0812068006836EA0000D7
:1030700004D00020B842CFD00020F3E70120F9E7C8
:10308000FEE70907090E002804DB00F1E02080F8C4
:103090000014704700F00F0000F1E02080F8141DCC
:1030A000704700002DE9F0472948284D0024067993
:1030B00095F800C08379427A90F80A908778017871
:1030C000BCF1050F12D2DFE80CF0110316263A000E
:1030D00017B1012F03D008E00121817005E0491CE0
:1030E000C9B20170032900D904702C70BDE8F04703
:1030F00018A0FDF771B841B1012908D0022908D004
:103100000329F2D109F101010EE0761C0FE05B1CEE
:1031100010E0521C11E049B101290AD002290BD05C
:103120000329E2D1A9F101018172DEE7761E067161
:10313000DBE75B1E8371D8E7521E4272D5E7012F91
:10314000D3D1847000F0CEF8CFE700003900002022
:1031500024000020627574746F6E2068616E646C68
:103160006520646F6E6500007047000013B54FF076
:10317000FF33012269460248FFF70CF900981CBD95
:10318000C40100201348817861B1012920D1017860
:10319000C1B1012918D0022918D0032918D1807A89
:1031A000FFF728BB417839B1012907D0022907D0A0
:1031B00003290DD1007AF3E7C078F1E74079EFE712
:1031C000C079EDE70079EBE78079E9E7407AE7E756
:1031D000704700002400002008B5FEF751F9FFF702
:1031E00025FDFFF7C7FB2F482D49002401602E491C
:1031F000C0E901144FF48045C0E90345446184618E
:10320000C4610462FDF71AFF08B172B6FEE7FFF76A
:1032100047FC2748254901604FF41651C0E90114C5
:103220000C21C460C0E904418461C461FFF748F81F
:1032300008B172B6FEE7FFF78BFCFFF7BDFC1D4C33
:10324000012251032046FDF7EEFE19484838FDF7EC
:103250007FFC174A2346483A012117480095FDF79D
:1032600084FC10491548FDF77BFD15A0FCF7B4FF61
:10327000164C207830B101280BD00228F9D1FFF785
:103280005FFBF6E7FFF70EFF00F048F800F038F8B4
:1032900003E0FFF769FFFFF705FFFFF773FFE8E7BC
:1032A0000054004098000020A08601000038014032
:1032B000C4010020001001408000002064000020B4
:1032C000736574757020646F6E65000026000020C1
:1032D00010B5401A029CE41A6043511AB0FBF1F099
:1032E000184410BD01A0FCF777BF0000736176653C
:1032F0002073657474696E6720646F6E65000000EA
:103300000548C1780079814204D9034864210C3012
:10331000FDF735BD704700002400002010B50848B7
:10332000FDF768FC06481C38FDF7FFFC04481C3814
:10333000FDF7DCFCBDE8104002A0FCF74DBF00002B
:103340008000002073656E736F7220726561642067
:10335000646F6E650000000021F00042A2F160522F
:10336000B2F5801F01F0004328BFD2F17F6C0BD96A
:103370005FEA001C43EAC20242EB507018BF70477C
:1033800028BF20F001007047B2F5801FBCBF18466F
:1033900070474FEA410C1CF5001F02D2084600F0AE
:1033A000CCB970B500F075F900000089FFF7F6BFE1
:1033B0004FF00040A0F58000704700002DE9C041AB
:1033C00030B4DFF8A0C23CEA111418BF3CEA131471
:1033D00000F0EC8081EA03051CEA111444EAD5747C
:1033E00018BF1CEA131500F0C780A4EB05044FF0CA
:1033F000004545EAC12145EAC32341EA505143EA69
:10340000525304F17F74994204F500344FEAC0200E
:103410004FEAC22208BF904200F09C804FEA136539
:103420000FF24016765D4FEA134506FB05F7C7F12C
:10343000807706FB07F74FEAD737A7FB036876428A
:10344000C8F58038A7FB06CE38BFA8F1010807FBF6
:1034500008E64FF0000EA6FB028CE6FB03CEDCF183
:10346000000CCEF1004E38BFAEF1010EA6FB0C5899
:103470004FF000074FF00005E6FB0E87A1FB08C6E2
:10348000A0FB07CE16EB0E0645F10005E1FB076534
:1034900015F1E04E7EBFA4F580345FEA46066D412B
:1034A00016F1800745F100054FEA17274FEA066637
:1034B00047EA0567A6F1DE46B6F1805F4FEA1525BB
:1034C0001FD9384624F0010C05EBC471BCF1FE6F26
:1034D00001EB0C1102D8F0BCBDE8008124425CBFB6
:1034E00001F5801E9EEAC47F02D4F0BCBDE80081D5
:1034F000244238D4F0BCA1F1C041BDE8004100F045
:1035000016B94FEAD22242EA43524FEAD323A7FB2D
:1035100002864FEAD02040EA415007FB03661EEACC
:103520000E0F4FEAD12105FB026658BFA6EB0056ED
:10353000B6EB00564FEA520E4EEAC37E18EB0E0E63
:1035400056EB530EBDD518EB02085E417F1C55F1BA
:103550000005B6E74FF480154FF000074FF0000666
:103560004FF00008ADE7F0BC4FF0000001F1C041A2
:1035700001F00041BDE8008111EA0C1F0CEA1315AF
:1035800000D00CE013EA0C1F00F025804FF0000083
:10359000F0BC81EA030101F00041BDE80081F0BC0C
:1035A000BDE8004181EA030100F0C1B8F0BCBDE80C
:1035B000004170B500F06DF8097EFC3E00F007B8E0
:1035C00081EA03014FF0000001F00041704781EAF9
:1035D000030100F0ACB8F0BCBDE800414FF00000C2
:1035E00021497047FFFDFBF9F7F5F4F2F0EEEDEB42
:1035F000E9E8E6E4E3E1E0DEDDDBDAD8D7D5D4D3F1
:10360000D1D0CFCDCCCBCAC8C7C6C5C4C2C1C0BF3C
:10361000BEBDBCBBBAB9B8B7B6B5B4B3B2B1B0AF42
:10362000AEADACABAAA9A8A8A7A6A5A4A3A3A2A126
:10363000A09F9F9E9D9C9C9B9A99999897979695E1
:1036400095949393929191908F8F8E8E8D8C8C8B7D
:103650008B8A898988888787868585848483838205
:10366000828181800000FF070000F87FB0FA80F3BC
:1036700010FA03F10AD0C3F11D0303F580634FEA8A
:1036800041504FEA035202EBD12170474FF0000046
:1036900070470EF1020E2EF0030E5EF8046B3642F8
:1036A00005D4012A43EB030515F5001F12D80128A4
:1036B00041EB010C1CF5001F0CD80ED14FEAD17C58
:1036C00015F5001F0CEB4C0C0CF1020C08BF4CEB79
:1036D000D37C04E04FF0080C01E04FEAD37C0CEB04
:1036E0004C0526FA05F606F00706B6F1040C06D2DC
:1036F0000EEB860CBDE870404CF0010C6047DFE833
:103700000CF0090B02024FF000414FF00000A1F550
:10371000002170BD19461046012851EB010418BF65
:10372000D4F5001484BF002001F0004170BD0808EA
:10373000A0F500114FEA31017047FF2141EAD05056
:10374000C0057047010202030405060708090A0BB9
:103750000C0D0E0F10100000000000000000010210
:1037600003040607080900000000010203043A747C
:1037700074003A7474003A74740000009C370008B6
:103780000000002064000000280100080038000844
:10379000640000200409000044010008000000004B
:1037A0000000C0F9A4B0999282F8809080000000D7
:1037B0000000000000000000000000000000000009
:1037C00000000000000000000000000000000000F9
:1037D00000000000000000000000000000000000E9
:1037E00000000000010000001000000000000000C8
:1037F0000024F400000000000000000000000000B1
:04000005080000ED02
:00000001FF
