:020000040800F2
:1000000020070020910100080B1000086D0F000868
:10001000091000088F0400086710000800000000A5
:100020000000000000000000000000000F100008A9
:100030005B070008000000000D1000081110000808
:10004000AB010008AB010008AB010008AB010008E0
:10005000AB010008AB010008AB010008AB010008D0
:10006000AB010008AB010008AB010008AB010008C0
:10007000AB010008AB010008AB010008AB010008B0
:10008000AB010008AB010008AB010008AB010008A0
:10009000AB010008AB010008AB010008AB01000890
:1000A000AB010008AB010008AB010008AB01000880
:1000B000AB010008AB010008AB010008AB01000870
:1000C000AB010008AB010008AB010008AB01000860
:1000D000AB010008AB010008AB010008AB01000850
:1000E000AB010008AB010008AB01000800F002F80A
:1000F00000F03FF80AA090E8000C82448344AAF183
:100100000107DA4501D100F034F8AFF2090EBAE880
:100110000F0013F0010F18BFFB1A43F0010318473B
:100120001410000034100000103A24BF78C878C1C1
:10013000FAD8520724BF30C830C144BF04680C60ED
:10014000704700000023002400250026103A28BF35
:1001500078C1FBD8520728BF30C148BF0B60704739
:10016000642900F07D80002070471FB51FBD10B5C9
:1001700010BD00F052F91146FFF7F7FF00F084FFC1
:1001800000F070F903B4FFF7F2FF03BC00F078F958
:100190000948804709480047FEE7FEE7FEE7FEE71B
:1001A000FEE7FEE7FEE7FEE7FEE7FEE70448054957
:1001B000054A064B7047000065100008ED00000876
:1001C0002001002020070020200300202003002021
:1001D0000FB41CB5074B06AA7B44694600900598EE
:1001E00000F003F90020694600F012F91CBC5DF82C
:1001F00014FB0000350200002DE9F0410E460446D4
:10020000002020622046E168884730B3252805D0C9
:10021000D4E901219047206A401CF2E7E1682046BA
:1002200000278847050018D0A5F14100192802D8F9
:1002300020354FF400673246294620462760FFF7F5
:100240008FFF40B1012804D0F61D26F007060836BE
:10025000D8E7361DD6E72846DAE7206ABDE8F08100
:100260002DE9F0410646002410687529314616A58F
:1002700010D0AFF30080002802DA404213A507E057
:1002800031688A0701D512A502E0490704D511A5F6
:10029000012401E0AFF3008000210A2206F12407C7
:1002A00009E0B0FBF2FCB0FBF2F302FB1C003030C3
:1002B00078541846491C0028F3D123462A46304674
:1002C000BDE8F04100F032B8000000002D00000051
:1002D0002B000000200000004FF0000200B5134684
:1002E00094469646203922BFA0E80C50A0E80C5056
:1002F000B1F12001BFF4F7AF090728BFA0E80C5007
:1003000048BF0CC05DF804EB890028BF40F8042BFF
:1003100008BF704748BF20F8022B11F0804F18BF6C
:1003200000F8012B70477047704770472DE9F04780
:100330000D4699469246044600F124080168880655
:1003400004D5E06921F01001216000E00120A842FD
:1003500001DD471B00E00027A1697A1902EB0900C3
:10036000081AA0612078C00602D42046AFF30080AE
:10037000002608E0D4E901211AF806009047206A17
:10038000401C761C20624E45F4DB2078C0060AD55E
:100390002046AFF3008006E0D4E9012130209047E9
:1003A000206A401C2062381EA7F10107F4DC07E038
:1003B000D4E9012118F805009047206A401C20620A
:1003C000281EA5F10105F3DC2046AFF3008020785C
:1003D000000602D50220BDE8F0870120FBE70000FF
:1003E00001694A1C02610878704700B58FB0CDE9F9
:1003F00001310021059105497944CDE903101146E9
:100400006846FFF7F9FE0FB000BD0000E5FFFFFFF3
:100410000A6802F8010B0A607047754600F02CF874
:10042000AE4605006946534620F00700854618B0E1
:1004300020B5FFF7BBFEBDE820404FF000064FF0AF
:1004400000074FF000084FF0000B21F00701AC4609
:10045000ACE8C009ACE8C009ACE8C009ACE8C00928
:100460008D46704710B50446AFF300802046BDE8C6
:100470001040FFF787BE000000487047BC00002016
:1004800001491820ABBEFEE7260002007047FEE7D8
:100490002DE9F05F0446DDE91890DDE91465DDE93A
:1004A00012C7DDE90ABE4FF01008DDF86CA084F831
:1004B00000806170A2706360A4F808B0C4F80CE01A
:1004C0000C9921820D9961610E9921830F99E16147
:1004D0001099218411996162A4F828C0E7622686E8
:1004E0006563169921871799E163A4F840906064C9
:1004F0001A98A4F84800C4F84CA01C98A4F850001E
:10050000322000F02BF9382084F85500062184F8B9
:1005100052100C2084F85300142084F85400002258
:10052000204600F0A7F894F853100022204600F06F
:10053000A1F894F854100022204600F09BF894F89B
:1005400055100022204600F095F800220121204697
:1005500000F090F82046BDE8F05F0022022100F094
:1005600089B810B50178102901D029B108E000221E
:10057000012100F07FF803E00022012100F005F8DE
:10058000BDE81040052000F0E9B870B504460E093A
:100590000D4612B1012A04D008E0218900226068CA
:1005A00002E021890122606800F0DAF9218F606B96
:1005B00006F001020C3400F0D3F9A18EC6F340021C
:1005C000206B00F0CDF9A18FC6F38002A06B00F084
:1005D000C7F9B4F84410F208206C00F0C1F9A18802
:1005E0000022206800F0BCF9012000F0B7F8A188D3
:1005F0000122206800F0B4F9012000F0AFF8A188D2
:100600000022206800F0ACF9012000F0A7F805F006
:100610000102A18DA06A00F0A3F9A18EC5F34002EA
:10062000206B00F09DF9A18FC5F38002A06B00F054
:1006300097F9B4F84410C5F3C002206C00F090F9AB
:10064000A1880022206800F08BF9012000F086F8D4
:10065000A1880122206800F083F9012000F07EF8D3
:10066000A1880022206800F07BF9BDE870400120DD
:1006700000F074B870B50D46044612B1012A04D0DA
:1006800008E021890022606802E021890122606877
:1006900000F066F9218B606905F001020C3400F06E
:1006A0005FF9A18AC5F34002206900F059F9A18BD6
:1006B000C5F38002A06900F053F9A18CC5F3C00214
:1006C000206A00F04DF9A18DC5F30012A06A00F078
:1006D00047F9A18EC5F34012206B00F041F9A18FBC
:1006E000C5F38012A06B00F03BF9EA09B4F844109E
:1006F000206C00F035F9A1880022206800F030F964
:10070000012000F02BF8A1880122206800F028F9D0
:10071000012000F023F8A1880022206800F020F9D1
:10072000BDE87040012000F019B80278102A04D00A
:10073000002A05D10122FFF728BF0122FFF79ABF47
:10074000704770B50C46054603E02846641CFFF769
:10075000ECFF21780029F8D170BD704770B50446D0
:1007600000F004F90546601C02D0044800780444F7
:1007700000F0FCF8401BA042FAD370BD040000203A
:100780002DE9F84FDFF8B891002409F1040A0AF1C5
:10079000040B23460F270BF1040EC9E00125A540E9
:1007A0002A40AA427DD1674ED1F804C0ACEB0608BE
:1007B000B44532D014DCBCF1030F3AD009DCBCF1F3
:1007C000000F2AD0BCF1010F1CD0BCF1020F31D1B7
:1007D0001DE0BCF1110F17D0BCF1120F2AD119E0A6
:1007E000B8F5881F19D006DCB8F5803F15D0B8F5EC
:1007F000801F1FD111E0B8F5001F0ED0B8F5041FFF
:1008000018D10AE0CB6815E0CB681B1D12E0CB685D
:1008100008330FE0CB680C330CE08B682BB1012B55
:100820004FF0080303D0456104E0042302E00561B2
:1008300000E00023FF2A01D8064601E000F104068B
:100840004FEA840501D9A5F12005D6F8008007FA02
:1008500005FC28EA0C0803FA05F548EA0508C6F87D
:1008600000804D68ED0062D5374DAE6946F0010657
:10087000AE61AD6924F0030605F001050095334D26
:1008800006EB050CDCF80850A607360F07FA06F849
:1008900025EA0805DFF8B880404503D14FF000088D
:1008A00017E044E0DFF8AC80404502D14FF001088A
:1008B0000FE0DFF8A480404502D14FF0020808E0C5
:1008C000DFF89880404502D14FF0030801E04FF077
:1008D000040808FA06F848EA0508CCF808804D68CC
:1008E000D9F80060ED034D4601D5164300E096436C
:1008F0002E604D68DAF80060AD03554601D5164309
:1009000000E096432E604D68DBF80060ED025D4626
:1009100001D5164300E096432E604D68DEF8006076
:10092000AD02754601D5164300E096432E60641C67
:100930000D682A46E5407FF431AFBDE8F88F00002E
:1009400000040140000011100010024000000140AE
:1009500000080140000C014000100140001401405B
:100960000AB1016170470904FBE700000148806893
:10097000704700000400002002488168027811449A
:100980008160704704000020074810B5016841F0FD
:1009900010010160032000F067F80F2000F006F856
:1009A00000F024F8002010BD0020024070B50D4D6D
:1009B00004464FF47A712878B1FBF0F00A490968CF
:1009C000B1FBF0F000F0BEFA48B9102C07D20022BB
:1009D0002146501E00F028F800206C6070BD0120F8
:1009E00070BD000004000020100000200C4808B575
:1009F000816941F001018161816901F0010100918A
:100A0000C16941F08051C161C06900F0805000901F
:100A10000448416821F0E06141F00071416008BD87
:100A20000010024000000140F0B40E4B1B680C4661
:100A3000C3F30223C3F10705042D00D90425191DB2
:100A4000072901D2002300E0DB1E012606FA05F18A
:100A5000491E214099409E40761E16403143F0BC0D
:100A600000F002BB0CED00E0064900F00702086848
:100A70004FF6FF03184040EA0220034A1043086083
:100A8000704700000CED00E00000FA052DE9F0478A
:100A90000F46050061D0434E306800F00700B842B1
:100AA00009D2306820F0070038433060306800F029
:100AB0000700B84251D128683B4C810712D5400746
:100AC00003D5606840F4E06060602878000703D5D3
:100AD000606840F4605060606068A96820F0F000D1
:100AE000084360602878C00728D06868012810D0C3
:100AF0002168022810D0890700292EDA616821F0C8
:100B0000030101436160FFF731FF804641F28839FC
:100B10000DE021688903EFE78901EDE7FFF726FF84
:100B2000A0EB0801494502D90320BDE8F0876068C1
:100B3000696800F00C00B0EB810FEFD1306800F075
:100B40000700B8420BD9306820F007003843306006
:100B5000306800F00700B84201D00120E5E72878AE
:100B6000400705D56068E96820F4E06008436060EC
:100B70002878000706D56068296920F4605040EAAB
:100B8000C100606000F018F86168084AC1F3031101
:100B9000515CC8400649086006480068FFF706FF38
:100BA0000020C2E70020024000100240241100088B
:100BB000100000200800002012A185B00FC98DE8A8
:100BC0000F0014A0144A006804905168134801F003
:100BD0000C03042B10D0082B0ED1C1F38343C9039F
:100BE0001DF803000AD5516804AAC1F34041515CC5
:100BF0000A4A5043B0FBF1F005B07047084948433A
:100C0000FAE7000002030405060708090A0B0C0DA9
:100C10000E0F1010010200000010024000127A00B6
:100C200000093D002DE9F84F040070D02078C04D38
:100C3000C00749D06868C0F38100012807D0686800
:100C4000C0F38100022809D16868C00306D528686E
:100C5000800339D560680028E7D035E06068B0F5DA
:100C6000803F0BD010B1B0F5A02F11D0286820F430
:100C700080302860286820F4802002E0286840F452
:100C800080302860606890B1FFF770FE06460AE089
:100C9000286840F480202860F0E700BFFFF766FE78
:100CA000801B642873D828688003F7D50CE0FFF711
:100CB0005DFE064605E000BFFFF758FE801B642876
:100CC000F0D828688003F7D420789A4E80074FF038
:100CD00001094FF0000839D5686810F00C0F07D0F3
:100CE0006868C0F38100022809D16868C00306D48F
:100CF0002868800714D52069012808D110E02069F0
:100D0000B0B1C6F80090FFF731FE074605E00AE1F2
:100D1000FFF72CFEC01B0228C4D828688007F7D52F
:100D20002868616920F0F80040EAC10028600DE001
:100D3000C6F80080FFF71AFE074604E0FFF716FE2C
:100D4000C01B022823D828688007F7D42078000722
:100D50002CD57948A169D9B1C0F80090FFF706FEFB
:100D6000074604E0FFF702FEC01B02280FD8686A9E
:100D70008007F7D571484FF4FA510068B0FBF1F0E5
:100D8000009000BF0098411E0091FAD20EE080E072
:100D9000C0F80080FFF7EAFD074604E0FFF7E6FD34
:100DA000C01B022875D8686A8007F7D420784007EE
:100DB00060D5E8690027C00008D4E86940F0805099
:100DC000E861E869012700F0805000905C48016804
:100DD000C90513D40168834641F480710160FFF7AF
:100DE000C5FD824606E000BFFFF7C0FDA0EB0A008C
:100DF00064284ED8DBF80000C005F5D5E06801286E
:100E00000AD008B1052813D0286A20F00100286212
:100E1000286A20F0040002E0286A40F001002862FD
:100E2000E06841F2883B98B1FFF7A0FD82460BE0F5
:100E3000286A40F004002862EEE700BFFFF796FD45
:100E4000A0EB0A0159455AD8286A8007F6D50CE06C
:100E5000FFF78CFD824605E0FFF788FDA0EB0A0155
:100E600059454CD8286A8007F6D41FB1E86920F0AC
:100E70008050E861E06988B36968C1F381010229A3
:100E800044D00228C6F8608004D0FFF76FFD044606
:100E900038E034E0FFF76AFD074604E0FFF766FD3F
:100EA000C01B02282BD828688001F7D4206AB0F52F
:100EB000803F05D16868A16820F40030084368606D
:100EC000D4E908010843696821F474110843686093
:100ED000C6F86090FFF74AFD044606E025E000BF33
:100EE000FFF744FD001B022809D828688001F7D5C8
:100EF0001BE000BFFFF73AFD001B022802D90320C8
:100F0000BDE8F88F28688001F4D40EE00128F7D0FE
:100F10006868226A00F48031914204D1616A00F469
:100F20007010884201D00120EAE70020E8E70000C5
:100F300000100240000042428004424210000020A3
:100F40000070004010B5401EB0F1807F01D3012039
:100F500010BD4FF0E02460610F21601700F084F8AD
:100F60000020A06107202061002010BDFEE70000E6
:100F70002DE9F04186B000242048009401940294A9
:100F80000394816941F020018161816901F02001B0
:100F90000491816941F004018161816901F00401DA
:100FA0000491816941F0080181618069144F00F06A
:100FB00008000490002218213846FFF7D1FCDFF822
:100FC00044800022FF214046FFF7CAFC182001257B
:100FD0000226CDE90005CDE9024669463846FFF70D
:100FE000CFFBFF20CDE90005CDE90246694640462A
:100FF000FFF7C6FB06B0BDE8F0810000001002401C
:1010000000080140000C0140FEE7FEE77047704712
:10101000FFF7B2BC10B590B028216846FFF75CF925
:1010200014210AA8FFF758F902200090012004902B
:1010300010200024059007946846FFF7F3FD08B1DF
:1010400072B6FEE70F20CDE90A040C940D9400213E
:101050000AA80E94FFF71AFD002801D072B6FEE729
:1010600010B010BD7047FEE70907090E002804DB29
:1010700000F1E02080F80014704700F00F0000F14C
:10108000E02080F8141D704794B0FFF77DFCFFF757
:10109000C1FFFFF76DFF1C484022CDE90F02802100
:1010A000CDE9110110212022CDE90B01CDE90D027E
:1010B0000423CDE907030822CDE909020124CDE983
:1010C00003040223CDE90503104B0291CDE900236F
:1010D00002220F48FFF7DCF90E4C4FF47A752846D0
:1010E000FFF73CFB0A48FFF73CFA20880AA1401CA6
:1010F00082B2074822805830FFF76AF80449044852
:101100005831FFF71EFBEAE7000C014000080140E0
:101110001400002000000020436F756E743A2025F3
:101120006400000000000000000000000102030451
:1011300006070809541100080000002014000000F0
:101140002801000868110008140000200C070000A6
:101150004401000800000000010000001000000031
:08116000000000000024F4006F
:04000005080000ED02
:00000001FF
